:100000000C9462000C948A000C948A000C948A0070
:100010000C948A000C948A000C948A000C948A0038
:100020000C948A000C948A000C948A000C9410079B
:100030000C948A000C948A000C948A000C948A0018
:100040000C9440050C948A000C94B0050C948A051D
:100050000C948A000C948A000C948A000C948A00F8
:100060000C94E2050C948A00000000002300260096
:10007000290000000000240027002A0000000000E2
:10008000250028002B0004040404040404040202D4
:100090000202020203030303030301020408102007
:1000A0004080010204081020010204081020000012
:1000B0000008000201000003040700000000000027
:1000C0000000D10711241FBECFEFD8E0DEBFCDBFA7
:1000D00011E0A0E0B1E0EEEBF4E102C005900D927A
:1000E000A837B107D9F722E0A8E7B1E001C01D9217
:1000F000A43FB207E1F710E0C2E6D0E004C02197C8
:10010000FE010E94520AC136D107C9F70E945C085D
:100110000C945D0A0C940000833081F028F4813047
:1001200099F08230A1F008958730A9F08830B9F0B5
:100130008430D1F4809180008F7D03C08091800055
:100140008F7780938000089584B58F7702C084B53F
:100150008F7D84BD08958091B0008F7703C080911A
:10016000B0008F7D8093B00008951F93CF93DF93ED
:10017000282F30E0F901E255FF4F8491F901E6564E
:10018000FF4FD491F901EA57FF4FC491CC23C1F03E
:10019000162F81110E948C00EC2FF0E0EE0FFF1F54
:1001A000E458FF4FA591B4919FB7F894111104C082
:1001B0008C91D095D82302C0EC91DE2BDC939FBFAD
:1001C000DF91CF911F910895CF93DF9390E0FC01D1
:1001D000E656FF4F2491FC01EA57FF4F8491882394
:1001E00061F190E0880F991FFC01EE58FF4FC59117
:1001F000D491FC01E458FF4FA591B491611109C05D
:100200009FB7F8948881209582238883EC912E23D0
:100210000BC0623061F49FB7F8948881322F30951B
:1002200083238883EC912E2B2C939FBF06C08FB71E
:10023000F894E8812E2B28838FBFDF91CF9108950A
:100240003FB7F89480911C0290911D02A0911E026C
:10025000B0911F0226B5A89B05C02F3F19F001964B
:10026000A11DB11D3FBFBA2FA92F982F8827820F3C
:10027000911DA11DB11DBC01CD0142E0660F771F8C
:10028000881F991F4A95D1F708958F929F92AF9238
:10029000BF92CF92DF92EF92FF926B017C010E949E
:1002A00020014B015C01C114D104E104F104F1F01F
:1002B0000E942001DC01CB0188199909AA09BB0918
:1002C000883E9340A105B10570F321E0C21AD10820
:1002D000E108F10888EE880E83E0981EA11CB11C8D
:1002E000C114D104E104F10419F7DDCFFF90EF90C0
:1002F000DF90CF90BF90AF909F908F900895E09146
:100300001302F0911402309729F010920E0210920D
:100310000D0209940895CF93DF93AC01E09111028F
:10032000F09112023097F1F09091100280910F023B
:100330009817C0F090E0292F30E02617370754F4C3
:10034000D901A758BE4FEA01C20FD31F28812C93B1
:100350009F5FF1CF1092100260930F02CB01DF91EB
:10036000CF910994DF91CF910895CF92DF92EF92D0
:10037000FF920F931F93CF93DF936C017A018B0150
:10038000C0E0D0E0CE15DF0581F0D8016D918D0180
:10039000D601ED91FC910190F081E02DC601099507
:1003A000892B11F02196EECF7E01C701DF91CF910D
:1003B0001F910F91FF90EF90DF90CF900895FC0177
:1003C000538D448D252F30E0842F90E0821B930BBA
:1003D000541710F0CF96089501970895FC01918D60
:1003E000828D981761F0828DDF01A80FB11D5D9697
:1003F0008C91928D9F5F9F73928F90E008958FEF05
:100400009FEF0895FC01918D828D981731F0828DB8
:10041000E80FF11D858D90E008958FEF9FEF08950F
:10042000FC01918D228D892F90E0805C9F4F821B73
:1004300091098F739927089580E292E00E9410023B
:1004400021E0892B09F420E0822F0895FC01848D9E
:10045000DF01A80FB11DA35ABF4F2C91848D90E0EE
:1004600001968F739927848FA689B7892C93A089C9
:10047000B1898C91837080648C93938D848D981353
:1004800006C00288F389E02D80818F7D80830895E6
:10049000EF92FF920F931F93CF93DF93EC0181E0D4
:1004A000888F9B8D8C8D981305C0E889F989808190
:1004B00085FD26C0F62E0B8D10E00F5F1F4F0F73CA
:1004C0001127E02E8C8DE8120CC00FB607FCFACF76
:1004D000E889F989808185FFF5CFCE010E94260247
:1004E000F1CF8B8DFE01E80FF11DE35AFF4FF08233
:1004F0009FB7F8940B8FEA89FB89808180620AC0DC
:100500009FB7F894EE89FF896083E889F989808133
:100510008370806480839FBF81E090E0DF91CF9102
:100520001F910F91FF90EF900895CF93DF93EC010F
:10053000888D8823C9F0EA89FB89808185FD05C003
:10054000A889B9898C9186FD0FC00FB607FCF5CF3D
:10055000808185FFF2CFA889B9898C9185FFEDCF85
:10056000CE010E942602E7CFDF91CF91089580E06F
:1005700090E0892B29F00E941C0281110C9400004C
:1005800008954091BF01262F30E0240F311D213204
:100590003105DCF42091E3012430C9F4FC0180E052
:1005A00090E0861758F43091BF012191DC01A156EB
:1005B000BE4FA30FB11D2C930196F3CF8091BF01C5
:1005C000680F6093BF0180E0089581E0089582E0A4
:1005D00008951092E30181E08093E5011092E40117
:1005E00061E082E10E94B50061E083E10E94B50014
:1005F000E9EBF0E080818E7F808380818D7F808336
:1006000088E48093B80085E48093BC000895089541
:10061000E091100280910F02E81730F4F0E0E75803
:10062000FE4F808190E008958FEF9FEF08959091A5
:10063000100280910F02981750F4E92FF0E0E7586C
:10064000FE4F208130E09F5F9093100202C02FEF99
:100650003FEFC901089580910F0290E020911002B0
:10066000821B91090895CF93DF93CB01EA01642F98
:100670000E94C102CE01DF91CF910895CF93DF9305
:100680001F92CDB7DEB7698361E0CE0101960E946B
:10069000C10281E090E00F90DF91CF91089508951D
:1006A00080E090E00895CF92DF92EF92FF92CF9397
:1006B000DF93EC01603282E078070CF03DC077FDFB
:1006C00006C0653B71052CF064EB70E002C060E091
:1006D00070E0898128E830E06901C81AD10887FDF7
:1006E000D394CC0CDD1CCC0CDD1C0D2C000CEE08C6
:1006F000FF088A8128E532E0281B310987FD339500
:10070000220F331F220F331FC901330FAA0BBB0B5C
:100710009C01AD012C193D094E095F09DB010E94C6
:100720000D0A24EB30E040E050E00E94E309C20EE5
:10073000D31EE41EF51EB60138813C3080F52981B8
:1007400088E890E0821B910927FD9395880F991FF7
:10075000880F991F6817790784F08A8148E552E06D
:10076000481B510987FD5395440F551F440F551FD2
:10077000CB01461757070CF4CA010297880F991F3F
:100780004FB7F894232F30E0F901EE0FFF1F2E0F23
:100790003F1FF901E753FD4F928381834FBFDF91E4
:1007A000CF91FF90EF90DF90CF9008951F93CF935C
:1007B000DF93EC01162F88818C3008F04EC061E089
:1007C000812F0E94E4008881E82FF0E09F01220F32
:1007D000331FE20FF31FE753FD4F1F739081907C8F
:1007E000192B108319821A826CE00E94460A9CE041
:1007F000899FB001112440E050E09B01240F351F78
:10080000F901EE0FFF1F2E0F3F1FF901E753FD4FB8
:10081000908196FD16C04F5F5F4F4C30510569F7D0
:1008200081110FC01092800082E0809381001092AD
:10083000850010928400B19A80916F00826080934D
:100840006F00E881F0E0CF01880F991FE80FF91FD2
:10085000E753FD4F8081806480838881DF91CF9151
:100860001F910895009769F0FC0101900020E9F7BD
:100870003197AF01481B590BBC0180E292E00C9408
:10088000B50180E090E00895CF93DF930E94320499
:10089000EC0185E291E00E9432048C0F9D1FDF91F4
:1008A000CF9108958F929F92AF92BF920F931F9313
:1008B000CF93DF93CDB7DEB7A1970FB6F894DEBF25
:1008C0000FBECDBF19A2423008F44AE08E010F5D81
:1008D0001F4F842E912CA12CB12CA50194010E94B4
:1008E000150AE62FB901CA0101501109EA3014F4C2
:1008F000E05D01C0E95CD801EC93232B242B252B70
:1009000061F7C8010E943204A1960FB6F894DEBFC9
:100910000FBECDBFDF91CF911F910F91BF90AF90D0
:100920009F908F9008950E94580ACF93DF9385ED92
:100930008093BC0080919B0190919C01A0919D01AE
:10094000B0919E010796A11DB11D23E0B695A79514
:10095000979587952A95D1F72091BC0024FF37C041
:1009600040919B0150919C0160919D0170919E016D
:10097000452B462B472B81F30097A105B10541F08C
:1009800025E32A95F1F700000197A109B109E4CF09
:1009900080919A0191E0909399018823D1F0C091C0
:1009A000B800D091BA008091BC008A7B8093BC00D3
:1009B00060E082E10E94B50060E083E10E94B50042
:1009C0000E94E902D093BA00C093B80002C010920E
:1009D000E301DF91CF91089588E291E00E94320413
:1009E0006091000170E080E090E04AE00E945204D3
:1009F00085E291E00E94320480910001823039F05A
:100A0000833059F46091150281E0682702C060913B
:100A100016028DEB92E00C943E038CE291E00E9472
:100A2000440460E08DEB92E00E943E038FEF8093E0
:100A3000000108951816190614F58DEB92E00E9436
:100A40001703809300018AE391E00E9432046091D1
:100A5000000170E080E090E04AE00E94520485E2EC
:100A600091E00E94320480910001813041F4909124
:100A70001602911104C01092150280931602089577
:100A80001F920F920FB60F9211242F933F938F93C3
:100A90009F93AF93BF938091180290911902A091F8
:100AA0001A02B0911B023091170223E0230F2D3759
:100AB00020F40196A11DB11D05C026E8230F029662
:100AC000A11DB11D20931702809318029093190263
:100AD000A0931A02B0931B0280911C0290911D02F8
:100AE000A0911E02B0911F020196A11DB11D80931D
:100AF0001C0290931D02A0931E02B0931F02BF918F
:100B0000AF919F918F913F912F910F900FBE0F90BA
:100B10001F9018951F920F920FB60F9211242F93CA
:100B20003F934F935F936F937F938F939F93AF9375
:100B3000BF93EF93FF9380E292E00E942602FF9121
:100B4000EF91BF91AF919F918F917F916F915F9145
:100B50004F913F912F910F900FBE0F901F901895BE
:100B60001F920F920FB60F9211242F938F939F9382
:100B7000EF93FF93E0913002F09131028081E09198
:100B80003602F091370282FD12C0908180913902C5
:100B90008F5F8F7320913A02821751F0E0913902F2
:100BA000F0E0E05EFD4F958F8093390201C08081B7
:100BB000FF91EF919F918F912F910F900FBE0F900A
:100BC0001F9018951F920F920FB60F9211242F931A
:100BD0003F934F935F936F937F938F939F93AF93C5
:100BE000BF93EF93FF938091B900887F803609F41B
:100BF0009CC068F5883209F45BC090F4803109F438
:100C000054C038F4882309F4F6C0883009F44DC084
:100C1000F6C0883109F44CC0803209F45DC0EFC0E1
:100C2000803409F468C048F4803309F455C088332F
:100C300009F0E5C08093E201D8C0803509F44FC0C7
:100C4000883509F45DC0883409F0D9C0D6C0883928
:100C500009F4C7C0A8F4883709F467C038F48836A7
:100C600009F463C0803709F460C0C9C0883809F44A
:100C7000B8C0803909F45FC0803809F0C0C05BC0DB
:100C8000803B09F486C038F4803A09F466C0883A9B
:100C900009F47FC0B4C0803C09F4A7C0883C09F4C3
:100CA000A4C0883B09F48AC0AAC08091080210C081
:100CB0009091070280910602981770F5E091070263
:100CC00081E08E0F80930702F0E0EA51FE4F8081B1
:100CD0008093BB0085EC86C08093E2018EC0E091DA
:100CE000070281E08E0F809307028091BB00F0E045
:100CF000EA51FE4F808390910702809106026EC0F8
:100D0000E091070281E08E0F809307028091BB0083
:100D1000F0E0EA51FE4F80838091E50181116DC0C2
:100D200081E08093E40184EA61C083E08093E30181
:100D30001092E101CFCF8091E101803208F051C0E3
:100D4000E091E10181E08E0F8093E1018091BB0091
:100D5000F0E0EF53FE4F8083BDCF85EC8093BC0065
:100D60001092E3018091E101803230F4E091E101E1
:100D7000F0E0EF53FE4F10826091E10170E0E091EE
:100D80000902F0910A0281EC91E009951092E101CB
:100D900036C084E08093E3011092C0011092BF013D
:100DA000E0910B02F0910C0209958091BF01811135
:100DB00005C081E08093BF0110929F01E091C001C6
:100DC00081E08E0F8093C001F0E0E156FE4F8081FC
:100DD0008093BB009091C0018091BF01981708F4E7
:100DE00079CF85E88093BC000AC085EC8093BC0075
:100DF0001092E30104C01092E2010E949504FF9159
:100E0000EF91BF91AF919F918F917F916F915F9182
:100E10004F913F912F910F900FBE0F901F901895FB
:100E20001F920F920FB60F9211242F933F934F935F
:100E30005F936F937F938F939F93AF93BF93EF9342
:100E4000FF938091780187FF05C010928500109272
:100E500084001BC020917801022E000C330B80917E
:100E6000ED0290E02817390784F480917801082E6C
:100E7000000C990BFC01EE0FFF1F8E0F9F1FFC0152
:100E8000E753FD4F808186FD15C0809178018F5F0B
:100E90008093780120917801022E000C330B809111
:100EA000ED0290E028173907C4F4809178018C3066
:100EB00064F113C080917801082E000C990BFC019D
:100EC000EE0FFF1F8E0F9F1FFC01E753FD4F808128
:100ED00060E08F730E94B500D8CF8091840090911C
:100EE0008500049680349C4918F480E49CE905C090
:100EF000809184009091850004969093890080935E
:100F000088008FEF809378013BC02091840030915E
:100F1000850080917801082E000C990BFC01EE0FE2
:100F2000FF1F8E0F9F1FFC01E753FD4F81819281B0
:100F3000820F931F9093890080938800809178019D
:100F4000082E000C990BFC01EE0FFF1F8E0F9F1F48
:100F5000FC01E753FD4F808186FF12C0809178012C
:100F6000082E000C990BFC01EE0FFF1F8E0F9F1F28
:100F7000FC01E753FD4F808161E08F730E94B50053
:100F8000FF91EF91BF91AF919F918F917F916F9161
:100F90005F914F913F912F910F900FBE0F901F9037
:100FA0001895109223021092220288EE93E0A0E09E
:100FB000B0E08093240290932502A0932602B09380
:100FC000270225E031E0309321022093200225EC16
:100FD00030E030932D0220932C0224EC30E030934B
:100FE0002F0220932E0220EC30E030933102209328
:100FF000300221EC30E0309333022093320222ECB5
:1010000030E0309335022093340226EC30E0309308
:101010003702209336021092390210923A0210924F
:101020003B0210923C021092C0021092BF028093C9
:10103000C1029093C202A093C302B093C40287E19D
:1010400091E09093BE028093BD028091ED028C30BE
:10105000A0F491E0980F9093ED028093F10290E05C
:10106000FC01EE0FFF1F8E0F9F1FFC01E753FD4F8A
:1010700088EB9BE09283818303C08FEF8093F10222
:101080008091ED028C30A0F491E0980F9093ED02E6
:101090008093EE0290E0FC01EE0FFF1F8E0F9F1F6A
:1010A000FC01E753FD4F88EB9BE092838183089519
:1010B0008FEF8093EE020895789484B5826084BDAA
:1010C00084B5816084BD85B5826085BD85B581604C
:1010D00085BD80916E00816080936E0010928100CA
:1010E0008091810082608093810080918100816085
:1010F0008093810080918000816080938000809146
:10110000B10084608093B1008091B00081608093D1
:10111000B00080917A00846080937A0080917A0098
:10112000826080937A0080917A00816080937A0057
:1011300080917A00806880937A001092C100E091DB
:101140003002F091310282E08083E0912C02F09134
:101150002D021082E0912E02F0912F0280E1808317
:1011600010923802E0913402F0913502C6E0C0835B
:10117000E0913202F0913302808180618083E091BE
:101180003202F0913302808188608083E0913202E4
:10119000F0913302808180688083E0913202F09187
:1011A000330280818F7D808361E084E00E94E400CF
:1011B00062E08AE00E94E40066E070E08EEE92E079
:1011C0000E94D6036AE570E08EEE92E00E9453031F
:1011D00065E070E081EF92E00E94D6036FE570E079
:1011E00081EF92E00E94530361E081E00E94E400FD
:1011F00061E080E00E94E40060E080E00E94B500D1
:1012000061E081E00E94B5001092100210920F027E
:1012100010920E0210920D020E94E9028FE791E0F7
:1012200090930C0280930B028BE891E090930A025A
:1012300080930902C093BA0060E083E10E94B50088
:1012400060E082E10E94B5008AE195E0909312028D
:10125000809311028CEE94E0909314028093130219
:1012600061E084E00E94B50064EF71E080E090E00E
:101270000E94450160E084E00E94B50064E670E0F1
:1012800080E090E00E944501C3E0D0E061E084E0AE
:101290000E94B50064E670E080E090E00E944501A5
:1012A00060E084E00E94B50064E670E080E090E0D9
:1012B0000E944501219751F78EE391E00E9444047A
:1012C000C8EBD0E004EA10E090E9E92E90E0F92EB6
:1012D000CC24C39480911602811117C0FE01849121
:1012E000F801B490F701D490DD2079F081110E94CB
:1012F0008C00ED2DF0E0EE0FFF1FE859FF4FA59198
:10130000B4918C918B2109F057C0C092160261E014
:1013100084E00E94B50086E591E00E94440460E00C
:1013200070E081EF92E00E94530368EE73E080E08A
:1013300090E00E94450160E070E08EEE92E00E9435
:10134000530364EF71E080E090E00E9445016AE59C
:1013500070E08EEE92E00E94530364EF71E080E053
:1013600090E00E9445016FE570E081EF92E00E94FD
:10137000530368EE73E080E090E00E94450161E075
:1013800080E00E94B50068EB7BE080E090E00E9486
:10139000450160E080E00E94B50087E691E00E9490
:1013A0004404109215021092160260E084E00E943C
:1013B000B5000E94B7028ECF61E070E080E090E05F
:1013C0000E94450187CF052E97FB1EF400940E94D2
:1013D000FA0957FD07D00E94150A07FC03D04EF406
:1013E0000C94FA0950954095309521953F4F4F4FF9
:1013F0005F4F089590958095709561957F4F8F4FC1
:101400009F4F08950E94370AA59F900DB49F900D9D
:10141000A49F800D911D11240895B7FF0C94020A1A
:101420000E94020A821B930B0895A1E21A2EAA1BA6
:10143000BB1BFD010DC0AA1FBB1FEE1FFF1FA21784
:10144000B307E407F50720F0A21BB30BE40BF50B81
:10145000661F771F881F991F1A9469F7609570950A
:10146000809590959B01AC01BD01CF010895A29F8D
:10147000B001B39FC001A39F700D811D1124911D68
:10148000B29F700D811D1124911D0895991B79E063
:1014900004C0991F961708F0961B881F7A95C9F704
:1014A00080950895EE0FFF1F0590F491E02D0994AB
:0E14B00081E090E0F8940C945D0AF894FFCF70
:1014BE00FF000000004802B501DF0195021002EEA8
:1014CE00010202000000003E033303500307032B0A
:1014DE0003170308030D0A004745540057726F6E39
:1014EE0067207265717565737400534554005374AB
:1014FE0072617720626F61726420696E69746961CE
:10150E006C697365640073746172742064697370BE
:10151E00656E73696E670064697370656E73696E6C
:08152E006720656E646564002E
:00000001FF
