:100000000C9462000C948A000C948A000C948A0070
:100010000C948A000C948A000C948A000C948A0038
:100020000C948A000C948A000C948A000C94CE06DE
:100030000C948A000C948A000C948A000C948A0018
:100040000C940D050C948A000C947D050C945705B6
:100050000C948A000C948A000C948A000C948A00F8
:100060000C94AF050C948A000000000023002600C9
:10007000290000000000240027002A0000000000E2
:10008000250028002B0004040404040404040202D4
:100090000202020203030303030301020408102007
:1000A0004080010204081020010204081020000012
:1000B0000008000201000003040700000000000027
:1000C00000008A0711241FBECFEFD8E0DEBFCDBFEE
:1000D00011E0A0E0B1E0E8E3F4E102C005900D9288
:1000E000A837B107D9F722E0A8E7B1E001C01D9217
:1000F000A43FB207E1F710E0C2E6D0E004C02197C8
:10010000FE010E94140AC136D107C9F70E941308E4
:100110000C941A0A0C940000833081F028F481308A
:1001200099F08230A9F008958730A9F08830C9F09D
:100130008430B1F4809180008F7D03C08091800075
:100140008F7780938000089584B58F7784BD08955C
:1001500084B58F7DFBCF8091B0008F778093B00006
:1001600008958091B0008F7DF9CF1F93CF93DF93D7
:10017000282F30E0F901E255FF4F8491F901E6564E
:10018000FF4FD491F901EA57FF4FC491CC23A9F056
:10019000162F81110E948C00EC2FF0E0EE0FFF1F54
:1001A000E458FF4FA591B4918FB7F894EC911111D9
:1001B00008C0D095DE23DC938FBFDF91CF911F91D4
:1001C0000895DE2BF8CFCF93DF9390E0FC01E65645
:1001D000FF4F24918A579F4FFC0184918823D1F0CF
:1001E00090E0880F991FFC01EE58FF4FA591B49144
:1001F000FC01E458FF4FC591D491623071F49FB770
:10020000F8943C91822F809583238C93E8812E2B48
:1002100028839FBFDF91CF9108958FB7F894EC9119
:100220002E2B2C938FBFF6CF3FB7F89480911C02F2
:1002300090911D02A0911E02B0911F0226B5A89BAD
:1002400005C02F3F19F00196A11DB11D3FBFBA2F68
:10025000A92F982F8827BC01CD01620F711D811D28
:10026000911D42E0660F771F881F991F4A95D1F7AD
:1002700008958F929F92AF92BF92CF92DF92EF92AA
:10028000FF924B015C010E9414016B017C010E94F2
:1002900014016C197D098E099F09683E7340810520
:1002A0009105A8F321E0821A9108A108B10888EE0F
:1002B000C80E83E0D81EE11CF11C81149104A10436
:1002C000B10429F7FF90EF90DF90CF90BF90AF90EF
:1002D0009F908F900895E0911302F091140230974F
:1002E00029F010920E0210920D0209940895CF93F6
:1002F000DF93AC01E0911102F09112023097F1F01E
:100300009091100280910F029817C0F090E0292F71
:1003100030E02617370754F4D901A758BE4F240FF1
:10032000351FE90128812C939F5FF1CF10921002B5
:1003300060930F02CB01DF91CF910994DF91CF91B0
:100340000895AF92BF92CF92DF92EF92FF920F93F8
:100350001F93CF93DF936C017B018B01040F151F5B
:10036000EB015E01AE18BF08C017D10759F06991C3
:10037000D601ED91FC910190F081E02DC601099527
:10038000892B79F7C501DF91CF911F910F91FF90D4
:10039000EF90DF90CF90BF90AF900895FC01538D08
:1003A000448D252F30E0842F90E0821B930B54174F
:1003B00010F0CF96089501970895FC01918D828DDC
:1003C000981761F0A28DAE0FBF2FB11D5D968C9175
:1003D000928D9F5F9F73928F90E008958FEF9FEFB4
:1003E0000895FC01918D828D981731F0828DE80F70
:1003F000F11D858D90E008958FEF9FEF0895FC012A
:10040000918D228D892F90E0805C9F4F821B9109F6
:100410008F739927089580E292E00E94FF0121E006
:10042000892B09F420E0822F089580E090E0892B49
:1004300029F00E940B0281110C9400000895FC0128
:10044000A48DA80FB92FB11DA35ABF4F2C91848D35
:1004500090E001968F739927848FA689B7892C9392
:10046000A089B1898C91837080648C93938D848DE5
:10047000981306C00288F389E02D80818F7D8083E8
:100480000895EF92FF920F931F93CF93DF93EC01A8
:1004900081E0888F9B8D8C8D98131AC0E889F9892B
:1004A000808185FF15C09FB7F894EE89FF8960832E
:1004B000E889F98980818370806480839FBF81E0AF
:1004C00090E0DF91CF911F910F91FF90EF900895F1
:1004D000F62E0B8D10E00F5F1F4F0F731127E02ECC
:1004E0008C8D8E110CC00FB607FCFACFE889F98904
:1004F000808185FFF5CFCE010E941F02F1CFEB8DE9
:10050000EC0FFD2FF11DE35AFF4FF0829FB7F894D7
:100510000B8FEA89FB8980818062CFCFCF93DF93F5
:10052000EC01888D8823B9F0AA89BB89E889F9890B
:100530008C9185FD03C0808186FD0DC00FB607FC40
:10054000F7CF8C9185FFF2CF808185FFEDCFCE0173
:100550000E941F02E9CFDF91CF9108952091BF0142
:10056000260F3327331F21323105ECF42091E301AC
:10057000FC0190E080E0243069F082E00895A091D1
:10058000BF012191AC0141565E4FA40FB52FB11DA3
:100590002C930196861798F38091BF01680F6093A2
:1005A000BF0180E0089581E008951092E30181E0A9
:1005B0008093E5011092E40161E082E10E94B500C0
:1005C00061E083E10E94B500E9EBF0E080818E7F7D
:1005D000808380818D7F808388E48093B80085E468
:1005E0008093BC0008950895E091100280910F025D
:1005F000E81730F4F0E0E758FE4F808190E008956E
:100600008FEF9FEF08959091100280910F022FEFCE
:100610003FEF981748F4E92FF0E0E758FE4F2081AC
:1006200030E09F5F90931002C901089580910F02FE
:1006300090911002891B990B0895CF93DF93CB0102
:10064000EA01642F0E94AE02CE01DF91CF9108959E
:10065000CF93DF931F92CDB7DEB7698361E0CE0100
:1006600001960E94AE0281E090E00F90DF91CF9161
:100670000895682F8DEB92E00C94280390E080E0C1
:1006800008958F929F92AF92BF92FF920F931F9304
:10069000CF93DF93FC01F0808BE08F1508F44AC004
:1006A000828108E512E0081B110987FD1395000FF0
:1006B000111F000F111F8181C8E8D0E0C81BD109AC
:1006C00087FDD395CC0FDD1FCC0FDD1F4E010D2E06
:1006D000000CAA08BB089801012E000C440B550B16
:1006E000281939094A095B09DB010E94CF0924EB6B
:1006F00030E040E050E00E94A509820E931EA41E47
:10070000B51E8C169D062CF0E801801691060CF49F
:10071000E4012297CC0FDD1F2FB7F8948F2D90E0C6
:10072000FC01EE0FFF1FE80FF91FE753FD4FD283C7
:10073000C1832FBFDF91CF911F910F91FF90BF9089
:10074000AF909F908F9008951F93CF93DF93EC010C
:10075000162F88818C3008F04EC061E0812F0E94F6
:10076000E3008881282F30E0F901EE0FFF1FE20F30
:10077000F31FE753FD4F1F736081607C612B608323
:1007800019821A822CE0622F0E94080A829FB0010F
:10079000112430E020E0AB01420F531FFA01EE0FAD
:1007A000FF1FE40FF51FE753FD4F908196FD16C024
:1007B0002F5F3F4F2C30310571F781110FC0109220
:1007C000800082E080938100109285001092840066
:1007D000B19A80916F00826080936F00E8818E2FC4
:1007E00090E0FC01EE0FFF1FE80FF91FE753FD4FEC
:1007F0008081806480838881DF91CF911F910895EB
:10080000FC0101900020E9F73197AF01481B590B1B
:10081000BC0180E292E00C94A1018F929F92AF9272
:10082000BF920F931F93CF93DF93CDB7DEB7A197FE
:100830000FB6F894DEBF0FBECDBF19A2423008F448
:100840004AE08E010F5D1F4F842E912CB12CA12CFC
:10085000A50194010E94D709E62FB901CA01EA3027
:10086000F4F4E05DD801EE938D01232B242B252B8E
:1008700079F790E080E0109719F0CD010E94000414
:10088000A1960FB6F894DEBF0FBECDBFDF91CF911A
:100890001F910F91BF90AF909F908F900895E95C4A
:1008A000E1CFCF93DF930E940004EC0185E291E059
:1008B0000E9400048C0F9D1FDF91CF910895CF936C
:1008C000DF9385ED8093BC0080919B0190919C010A
:1008D000A0919D01B0919E010796A11DB11D23E03D
:1008E000B695A795979587952A95D1F72091BC0045
:1008F00024FD03C01092E30136C040919B0150914A
:100900009C0160919D0170919E01452B462B472BC8
:1009100069F30097A105B10541F025E32A95F1F7A8
:1009200000000197A109B109E1CF80919A0191E0FE
:10093000909399018823B9F0C091B800D091BA0082
:100940008091BC008A7B8093BC0060E082E10E94C1
:10095000B50060E083E10E94B5000E94D502D0930B
:10096000BA00C093B800DF91CF91089588E291E07A
:100970000E9400046091000170E090E080E04AE095
:100980000E940D0485E291E00E9400048091000124
:10099000833061F08E3F31F0823069F4809116022D
:1009A00090E002C083E090E00C943903809115023E
:1009B00091E08927F5CF8CE291E00E94510490E00C
:1009C00080E00E9439038FEF80930001089518168C
:1009D000190614F58DEB92E00E9403038093000149
:1009E0008AE391E00E9400046091000170E090E0D1
:1009F00080E04AE00E940D0485E291E00E9400043C
:100A000080910001813041F490911602911104C04F
:100A1000109215028093160208951F920F920FB63E
:100A20000F9211242F933F938F939F93AF93BF9374
:100A30008091180290911902A0911A02B0911B02A4
:100A40003091170223E0230F2D3758F50196A11D91
:100A5000B11D209317028093180290931902A0935E
:100A60001A02B0931B0280911C0290911D02A0916A
:100A70001E02B0911F020196A11DB11D80931C02A0
:100A800090931D02A0931E02B0931F02BF91AF91DD
:100A90009F918F913F912F910F900FBE0F901F90BC
:100AA000189526E8230F0296A11DB11DD2CF1F92E3
:100AB0000F920FB60F9211242F933F934F935F9392
:100AC0006F937F938F939F93AF93BF93EF93FF9316
:100AD00080E292E00E941F02FF91EF91BF91AF91DF
:100AE0009F918F917F916F915F914F913F912F9146
:100AF0000F900FBE0F901F9018951F920F920FB678
:100B00000F9211242F938F939F93EF93FF93E09174
:100B10003002F09131028081E0913602F09137028B
:100B200082FD1BC09081809139028F5F8F7320916D
:100B30003A02821741F0E0913902F0E0E05EFD4FA9
:100B4000958F80933902FF91EF919F918F912F9113
:100B50000F900FBE0F901F9018958081F4CF1F92B9
:100B60000F920FB60F9211242F933F934F935F93E1
:100B70006F937F938F939F93AF93BF93EF93FF9365
:100B80008091B900887F803609F44AC0F0F5883238
:100B900009F4A7C018F5803109F49BC0B8F4882384
:100BA00009F4F9C0883009F494C0FF91EF91BF9126
:100BB000AF919F918F917F916F915F914F913F91F5
:100BC0002F910F900FBE0F901F901895883109F448
:100BD00088C0803251F78093E20114C0803409F458
:100BE0009DC040F48033B9F38833F9F68093E20175
:100BF00085ECB0C0803509F485C0883509F496C00D
:100C0000883499F60E945F04D0CF883909F48CC0EB
:100C100038F5883729F050F4883611F0803729F6F6
:100C200083E08093E3011092E10157C0883809F412
:100C30007BC0803919F0803809F0B7CF8091E1018D
:100C4000803208F071C0E091E10181E08E0F809365
:100C5000E1018091BB00F0E0EF53FE4F80833DC087
:100C6000803B39F0E0F4803A09F479C0883A09F021
:100C70009CCF84E08093E3011092C0011092BF01E9
:100C8000E0910B02F0910C0209958091BF01811156
:100C90000FC081E08093BF0110929F0109C0803C8A
:100CA00009F4A6CF883C09F4A3CF883B09F07DCF97
:100CB000E091C00181E08E0F8093C001F0E0E15629
:100CC000FE4F80818093BB009091C0018091BF0155
:100CD00029C0809108028093BB0085EC8093BC0002
:100CE00064CF9091070280910602981758F5E09121
:100CF000070281E08E0F80930702F0E0EA51FE4F79
:100D00008081E9CFE091070281E08E0F8093070296
:100D10008091BB00F0E0EA51FE4F80839091070282
:100D2000809106029817C8F285E8D8CFE0910702B3
:100D300081E08E0F809307028091BB00F0E0EA51C2
:100D4000FE4F80838091E50181115CCF81E080932B
:100D5000E40184EA8093BC001092E30126CF85EC85
:100D60008093BC001092E3018091E101803230F465
:100D7000E091E101F0E0EF53FE4F10826091E1015C
:100D800070E0E0910902F0910A0281EC91E009958E
:100D90001092E1010ACF1092E20134CF1F920F921C
:100DA0000FB60F9211242F933F934F935F936F933E
:100DB0007F938F939F93AF93BF93CF93DF93EF93E3
:100DC000FF9380917801C091ED02D0E087FF24C0AD
:100DD0001092850010928400809178018F5F80933B
:100DE000780180917801082E000C990B8C179D07D3
:100DF00024F4809178018C30C4F18091840090912A
:100E00008500049680349C4908F47AC0809184005F
:100E100090918500049676C080917801082E000C90
:100E2000990B8C179D07C4F6E09178018E2FEE0F79
:100E3000990BFC01EE0FFF1FE80FF91FE753FD4F61
:100E4000808186FFC9CFE09178018E2FEE0F990B3C
:100E5000FC01EE0FFF1FE80FF91FE753FD4F8081E4
:100E600060E08F730E94B500B7CF2091840030916D
:100E70008500E09178018E2FEE0F990BFC01EE0FAB
:100E8000FF1FE80FF91FE753FD4F81819281820F09
:100E9000931F9093890080938800E09178018E2FB2
:100EA000EE0F990BFC01EE0FFF1FE80FF91FE75340
:100EB000FD4F808186FF11C0E09178018E2FEE0FEB
:100EC000990BFC01EE0FFF1FE80FF91FE753FD4FD1
:100ED000808161E08F730E94B500FF91EF91DF91F7
:100EE000CF91BF91AF919F918F917F916F915F91C2
:100EF0004F913F912F910F900FBE0F901F9018951B
:100F000080E49CE990938900809388008FEF809320
:100F10007801E3CF109223021092220288EE93E030
:100F2000A0E0B0E08093240290932502A0932602D3
:100F3000B093270225E031E0309321022093200274
:100F400025EC30E030932D0220932C0224EC30E08D
:100F500030932F0220932E0220EC30E030933102A8
:100F60002093300221EC30E03093330220933202A0
:100F700022EC30E0309335022093340226EC30E04E
:100F800030933702209336021092390210923A02BF
:100F900010923B0210923C021092C0021092BF02CB
:100FA0008093C1029093C202A093C302B093C40283
:100FB00087E191E09093BE028093BD028091ED02A3
:100FC0008C3048F591E0980F9093ED028093F102F8
:100FD00090E0FC01EE0FFF1FE80FF91FE753FD4FF4
:100FE00088EB9BE0928381838091ED028C30B8F492
:100FF00091E0980F9093ED028093EE0290E0FC0157
:10100000EE0FFF1FE80FF91FE753FD4F88EB9BE042
:101010009283818308958FEF8093F102E5CF8FEF64
:101020008093EE020895789484B5826084BD84B57F
:10103000816084BD85B5826085BD85B5816085BDD3
:1010400080916E00816080936E001092810080918B
:101050008100826080938100809181008160809313
:101060008100809180008160809380008091B10038
:1010700084608093B1008091B00081608093B00063
:1010800080917A00846080937A0080917A008260F7
:1010900080937A0080917A00816080937A008091B9
:1010A0007A00806880937A001092C100E09130024B
:1010B000F091310282E08083E0912C02F0912D02C8
:1010C0001082E0912E02F0912F0280E18083109235
:1010D0003802E0913402F0913502C6E0C083E0911D
:1010E0003202F0913302808180618083E09132028C
:1010F000F0913302808188608083E0913202F09128
:101100003302808180688083E0913202F091330263
:1011100080818F7D808361E084E00E94E30062E053
:101120008AE00E94E30066E070E08EEE92E00E94AA
:10113000A4036AE570E08EEE92E00E94410365E050
:1011400070E081EF92E00E94A4036FE570E081EF10
:1011500092E00E94410361E081E00E94E30061E0CF
:1011600080E00E94E30060E080E00E94B50061E062
:1011700081E00E94B5001092100210920F021092AE
:101180000E0210920D020E94D5028BE691E0909320
:101190000C0280930B0287E791E090930A02809300
:1011A0000902C093BA0060E083E10E94B50060E0EC
:1011B00082E10E94B50087EE94E090931202809342
:1011C000110286EB94E0909314028093130261E085
:1011D00084E00E94B50064EF71E080E090E00E943E
:1011E000390160E084E00E94B50064E670E080E0D0
:1011F00090E00E943901C3E0D0E061E084E00E9409
:10120000B50064E670E080E090E00E94390160E0A3
:1012100084E00E94B50064E670E080E090E00E9407
:101220003901219751F78EE391E00E94510408EBB8
:1012300010E094EAE92E90E0F92E20E9C22E20E099
:10124000D22EAA24A394C0E0D0E08091160281118E
:101250001DC0F8018491F701B490F6019490992093
:10126000A9F081110E948C00E92DF0E0EE0FFF1F24
:10127000E859FF4FA591B4918C91B82239F061E003
:1012800070E080E090E00E943901DFCFA09216026A
:1012900061E084E00E94B50086E591E00E9451047F
:1012A00070E060E081EF92E00E94410368EE73E03D
:1012B00080E090E00E94390170E060E08EEE92E004
:1012C0000E94410364EF71E080E090E00E943901E8
:1012D0006AE570E08EEE92E00E94410364EF71E0F7
:1012E00080E090E00E9439016FE570E081EF92E0CC
:1012F0000E94410368EE73E080E090E00E943901B3
:1013000061E080E00E94B50068EB7BE080E090E067
:101310000E94390160E080E00E94B50087E691E01C
:101320000E945104109215021092160260E084E0AF
:101330000E94B500209709F488CF0E940B028823F1
:1013400009F483CF0E94000080CF052E97FB1EF486
:1013500000940E94BC0957FD07D00E94D70907FCE2
:1013600003D04EF40C94BC095095409530952195CE
:101370003F4F4F4F5F4F08959095809570956195C1
:101380007F4F8F4F9F4F08950E94F909A59F900DA1
:10139000B49F900DA49F800D911D11240895B7FF57
:1013A0000C94C4090E94C409821B930B0895A1E206
:1013B0001A2EAA1BBB1BFD010DC0AA1FBB1FEE1FCF
:1013C000FF1FA217B307E407F50720F0A21BB30B1A
:1013D000E40BF50B661F771F881F991F1A9469F796
:1013E00060957095809590959B01AC01BD01CF01F2
:1013F0000895A29FB001B39FC001A39F700D811DEE
:101400001124911DB29F700D811D1124911D08950D
:10141000991B79E004C0991F961708F0961B881F46
:101420007A95C9F780950895EE0FFF1F0590F49106
:08143000E02D0994F894FFCFB0
:10143800FF000000004102A101CE018E02FF01DD84
:1014480001F1010000000028031D033E03F302160A
:10145800030303F4020D0A004745540057726F6EE8
:101468006720726571756573740053455400537431
:1014780072617720626F61726420696E6974696154
:101488006C69736564007374617274206469737045
:10149800656E73696E670064697370656E73696EF3
:0814A8006720656E64656400B5
:00000001FF
