:100000000C945D000C9485000C9485000C94850084
:100010000C9485000C9485000C9485000C9485004C
:100020000C9485000C9485000C9485000C94DE06DD
:100030000C9485000C9485000C9485000C9485002C
:100040000C941D050C9485000C948D050C9467058B
:100050000C9485000C9485000C9485000C9485000C
:100060000C94BF050C9485000000000024002700BC
:100070002A0000000000250028002B0004040404CE
:100080000404040402020202020203030303030342
:10009000010204081020408001020408102001021F
:1000A00004081020000000080002010000030407FB
:1000B00000000000000000009A0711241FBECFEFCF
:1000C000D8E0DEBFCDBF11E0A0E0B1E0E4EBF8E1A5
:1000D00002C005900D92AC38B107D9F723E0ACE827
:1000E000B1E001C01D92AD30B207E1F710E0CDE5FF
:1000F000D0E004C02197FE010E94600ACC35D107F0
:10010000C9F70E9409080C94580C0C9400008F92B7
:100110009F92AF92BF92FF920F931F93CF93DF9363
:10012000F09006032BE02F1508F44CC02091080333
:1001300008E512E0021B110927FD1395000F111F9E
:10014000000F111F20910703C8E8D0E0C21BD1099E
:1001500027FDD395CC0FDD1FCC0FDD1F4E010D2EDB
:10016000000CAA08BB089801012E000C440B550B8B
:10017000281939094A095B09DC010E94E40924EBCA
:1001800030E040E050E00E94BA09820E931EA41EA7
:10019000B51E8C169D062CF0E801801691060CF415
:1001A000E4012297CC0FDD1F2FB7F8948F2D90E03C
:1001B000FC01EE0FFF1FE80FF91FEF51FD4FD28337
:1001C000C1832FBFDF91CF911F910F91FF90BF90FF
:1001D000AF909F908F900895E8E3F2E0A089B189F5
:1001E00082E08C93A485B5851C92A685B78580E1B5
:1001F0008C93108EA489B58986E08C93A289B389EB
:100200008C9180618C93A289B3898C9188608C9346
:10021000A289B3898C9180688C930288F389E02D40
:1002200080818F7D8083089590E0FC01EC55FF4F25
:100230002491FC01E057FF4F3491FC01E458FF4F3B
:10024000E491EE23C9F0222339F0233001F1A8F420
:10025000213019F1223029F1F0E0EE0FFF1FEE58A6
:10026000FF4FA591B4918FB7F894EC91611126C01E
:1002700030953E233C938FBF08952730A9F0283056
:10028000C9F0243049F7809180008F7D03C08091B0
:1002900080008F7780938000DFCF84B58F7784BD17
:1002A000DBCF84B58F7DFBCF8091B0008F778093BB
:1002B000B000D2CF8091B0008F7DF9CF3E2BDACF46
:1002C0003FB7F8948091300290913102A0913202B0
:1002D000B091330226B5A89B05C02F3F19F00196B7
:1002E000A11DB11D3FBFBA2FA92F982F8827BC0190
:1002F000CD01620F711D811D911D42E0660F771FB8
:10030000881F991F4A95D1F708958F929F92AF92B7
:10031000BF92CF92DF92EF92FF924B015C010E945D
:1003200060016B017C010E9460016C197D098E09DE
:100330009F09683E734081059105A8F321E0821A68
:100340009108A108B10888EEC80E83E0D81EE11C10
:10035000F11C81149104A104B10429F7FF90EF90DE
:10036000DF90CF90BF90AF909F908F900895E091D5
:100370002702F0912802309729F010922202109261
:10038000210209940895CF93DF93AC01E0912502F7
:10039000F09126023097F1F090912402809123028F
:1003A0009817C0F090E0292F30E02617370754F453
:1003B000D901A357BE4F240F351FE90128812C9383
:1003C0009F5FF1CF1092240260932302CB01DF9153
:1003D000CF910994DF91CF910895AF92BF92CF92C0
:1003E000DF92EF92FF920F931F93CF93DF936C01F5
:1003F0007B018B01040F151FEB015E01AE18BF08D6
:10040000C017D10759F06991D601ED91FC91019087
:10041000F081E02DC6010995892B79F7C501DF919F
:10042000CF911F910F91FF90EF90DF90CF90BF90F1
:10043000AF900895FC01538D448D252F30E0842F1B
:1004400090E0821B930B541710F0CF9608950197FC
:100450000895FC01918D828D981761F0A28DAE0FE9
:10046000BF2FB11D5D968C91928D9F5F9F73928F70
:1004700090E008958FEF9FEF08952FB7F894809143
:10048000340290913502A0913602B09137022FBF0D
:100490008093400290934102A0934202B0934302A2
:1004A00088E392E00E94290297FF26C02FB7F894B4
:1004B0008091340290913502A0913602B0913702BA
:1004C0002FBF4091400250914102609142027091D1
:1004D0004302841B950BA60BB70B40913C02509135
:1004E0003D0260913E0270913F0284179507A60776
:1004F000B707B0F28FEF9FEF0895FC01918D828DC9
:10050000981731F0828DE80FF11D858D90E00895E8
:100510008FEF9FEF0895FC01918D228D892F90E040
:10052000805C9F4F821B91098F739927089588E300
:1005300092E00E948B0221E0892B09F420E0822FB7
:10054000089580E090E0892B29F00E9497028111A4
:100550000C9400000895FC01A48DA80FB92FB11DC3
:10056000A35ABF4F2C91848D90E001968F739927E9
:10057000848FA689B7892C93A089B1898C918370C7
:1005800080648C93938D848D981306C00288F389C0
:10059000E02D80818F7D80830895EF92FF920F93ED
:1005A0001F93CF93DF93EC0181E0888F9B8D8C8D1F
:1005B00098131AC0E889F989808185FF15C09FB713
:1005C000F894EE89FF896083E889F98980818370D6
:1005D000806480839FBF81E090E0DF91CF911F9185
:1005E0000F91FF90EF900895F62E0B8D10E00F5FA6
:1005F0001F4F0F731127E02E8C8D8E110CC00FB67C
:1006000007FCFACFE889F989808185FFF5CFCE0113
:100610000E94AB02F1CFEB8DEC0FFD2FF11DE35AE1
:10062000FF4FF0829FB7F8940B8FEA89FB89808196
:100630008062CFCFCF93DF93EC01888D8823B9F010
:10064000AA89BB89E889F9898C9185FD03C08081DD
:1006500086FD0DC00FB607FCF7CF8C9185FFF2CF5A
:10066000808185FFEDCFCE010E94AB02E9CFDF9103
:10067000CF9108952091D301260F3327331F2132C4
:100680003105ECF42091F701FC0190E080E024308A
:1006900069F082E00895A091D3012191AC014D54FD
:1006A0005E4FA40FB52FB11D2C930196861798F3BA
:1006B0008091D301680F6093D30180E0089581E0B9
:1006C00008951092F70181E08093F9011092F801EA
:1006D00061E082E10E94140161E083E10E94140163
:1006E000E9EBF0E080818E7F808380818D7F808345
:1006F00088E48093B80085E48093BC000895089551
:10070000E091240280912302E81730F4F0E0E357EF
:10071000FE4F808190E008958FEF9FEF08959091B4
:100720002402809123022FEF3FEF981748F4E92F1E
:10073000F0E0E357FE4F208130E09F5F909324026A
:10074000C90108958091230290912402891B990B7D
:100750000895CF93DF93CB01EA01642F0E943A03FF
:10076000CE01DF91CF910895CF93DF931F92CDB744
:10077000DEB7698361E0CE0101960E943A0381E011
:1007800090E00F90DF91CF91089590E080E0089580
:100790001092290281E080932E022FB7F894809165
:1007A000340290913502A0913602B09137022FBFEA
:1007B00080932A0290932B02A0932C02B0932D02D7
:1007C00090E080E00C94870010922E0283E790E086
:1007D0000C948700FC0101900020E9F73197AF01EC
:1007E000481B590BBC0188E392E00C94ED01CF93B8
:1007F000DF930E94EA03EC018BE291E00E94EA039E
:100800008C0F9D1FDF91CF910895CF92DF92EF92D1
:10081000FF920F931F93CF93DF93CDB7DEB7A197CE
:100820000FB6F894DEBF0FBECDBF282F30E050E0EA
:1008300040E019A28E010F5D1F4F8AE0C82ED12C17
:10084000E12CF12CCA01B901A70196010E94230AEB
:10085000605DF80162938F01211531054105510555
:1008600089F73097C9F0CF010E94EA038C018BE22F
:1008700091E00E94EA03800F911FA1960FB6F894B1
:10088000DEBF0FBECDBFDF91CF911F910F91FF90C3
:10089000EF90DF90CF90089510E000E0E8CF1816B9
:1008A0001906ECF485ED92E00E948F03809300011D
:1008B0008EE291E00E94EA03809100010E9405040B
:1008C00080910001813019F0823039F008958091D3
:1008D0002E02811104C00C94C8030C94E403089503
:1008E00084E391E00E94EA03809100010E940504E4
:1008F00080910001833039F08E3F99F465E085EDF9
:1009000092E00C94B4036091290285ED92E00E947C
:10091000B4038AE391E00E94EA03809129020C94D7
:10092000050486E591E00E94F70360E085ED92E022
:100930000E94B4038FEF8093000108950F931F93DB
:10094000CF93DF93EC0188819981009759F02A8138
:100950003B812617370730F081E0DF91CF911F915F
:100960000F9108958B016F5F7F4F0E948B0B009753
:1009700059F0998388831B830A832C813D81232B23
:1009800059F7FC011082E8CF80E0E7CFCF93DF93E7
:1009900085ED8093BC008091AF019091B001A09152
:1009A000B101B091B2010796A11DB11D23E0B6952A
:1009B000A795979587952A95D1F72091BC0024FD9E
:1009C00003C01092F70136C04091AF015091B001C1
:1009D0006091B1017091B201452B462B472B69F311
:1009E0000097A105B10541F025E32A95F1F7000034
:1009F0000197A109B109E1CF8091AE0191E09093F7
:100A0000AD018823B9F0C091B800D091BA008091AF
:100A1000BC008A7B8093BC0060E082E10E941401EC
:100A200060E083E10E9414010E946103D093BA0048
:100A3000C093B800DF91CF9108951F920F920FB627
:100A40000F9211242F933F938F939F93AF93BF9354
:100A50008091340290913502A0913602B091370214
:100A600030912F0223E0230F2D3758F50196A11D59
:100A7000B11D20932F028093340290933502A093EE
:100A80003602B09337028091300290913102A091EA
:100A90003202B09133020196A11DB11D8093300244
:100AA00090933102A0933202B0933302BF91AF9181
:100AB0009F918F913F912F910F900FBE0F901F909C
:100AC000189526E8230F0296A11DB11DD2CF1F92C3
:100AD0000F920FB60F9211242F933F934F935F9372
:100AE0006F937F938F939F93AF93BF93EF93FF93F6
:100AF00088E392E00E94AB02FF91EF91BF91AF912A
:100B00009F918F917F916F915F914F913F912F9125
:100B10000F900FBE0F901F9018951F920F920FB657
:100B20000F9211242F938F939F93EF93FF93E09154
:100B30004802F09149028081E0914E02F0914F020B
:100B400082FD1BC09081809151028F5F8F73209135
:100B50005202821741F0E0915102F0E0E85CFD4F53
:100B6000958F80935102FF91EF919F918F912F91DB
:100B70000F900FBE0F901F9018958081F4CF1F9299
:100B80000F920FB60F9211242F933F934F935F93C1
:100B90006F937F938F939F93AF93BF93EF93FF9345
:100BA0008091B900887F803609F44AC0F0F5883218
:100BB00009F4A7C018F5803109F49BC0B8F4882364
:100BC00009F4F9C0883009F494C0FF91EF91BF9106
:100BD000AF919F918F917F916F915F914F913F91D5
:100BE0002F910F900FBE0F901F901895883109F428
:100BF00088C0803251F78093F60114C0803409F424
:100C00009DC040F48033B9F38833F9F68093F60140
:100C100085ECB0C0803509F485C0883509F496C0EC
:100C2000883499F60E94C604D0CF883909F48CC064
:100C300038F5883729F050F4883611F0803729F6D6
:100C400083E08093F7011092F50157C0883809F4CA
:100C50007BC0803919F0803809F0B7CF8091F50159
:100C6000803208F071C0E091F50181E08E0F809331
:100C7000F5018091BB00F0E0EB52FE4F80833DC058
:100C8000803B39F0E0F4803A09F479C0883A09F001
:100C90009CCF84E08093F7011092D4011092D3018D
:100CA000E0911F02F091200209958091D3018111FA
:100CB0000FC081E08093D3011092B30109C0803C42
:100CC00009F4A6CF883C09F4A3CF883B09F07DCF77
:100CD000E091D40181E08E0F8093D401F0E0ED54D7
:100CE000FE4F80818093BB009091D4018091D3010D
:100CF00029C080911C028093BB0085EC8093BC00CE
:100D000064CF90911B0280911A02981758F5E091D8
:100D10001B0281E08E0F80931B02F0E0E650FE4F35
:100D20008081E9CFE0911B0281E08E0F80931B024E
:100D30008091BB00F0E0E650FE4F808390911B0253
:100D400080911A029817C8F285E8D8CFE0911B026B
:100D500081E08E0F80931B028091BB00F0E0E65093
:100D6000FE4F80838091F90181115CCF81E08093F7
:100D7000F80184EA8093BC001092F70126CF85EC3D
:100D80008093BC001092F7018091F501803230F41D
:100D9000E091F501F0E0EB52FE4F10826091F50119
:100DA00070E0E0911D02F0911E0285ED91E0099541
:100DB0001092F5010ACF1092F60134CF1F920F92D4
:100DC0000FB60F9211242F933F934F935F936F931E
:100DD0007F938F939F93AF93BF93CF93DF93EF93C3
:100DE000FF9380918C01C0910503D0E087FF24C060
:100DF000109285001092840080918C018F5F809307
:100E00008C0180918C01082E000C990B8C179D078A
:100E100024F480918C018C30C4F1809184009091F5
:100E20008500049680349C4908F47AC0809184003F
:100E300090918500049676C080918C01082E000C5C
:100E4000990B8C179D07C4F6E0918C018E2FEE0F45
:100E5000990BFC01EE0FFF1FE80FF91FEF51FD4F3B
:100E6000808186FFC9CFE0918C018E2FEE0F990B08
:100E7000FC01EE0FFF1FE80FF91FEF51FD4F8081BE
:100E800060E08F730E941401B7CF209184003091ED
:100E90008500E0918C018E2FEE0F990BFC01EE0F77
:100EA000FF1FE80FF91FEF51FD4F81819281820FE3
:100EB000931F9093890080938800E0918C018E2F7E
:100EC000EE0F990BFC01EE0FFF1FE80FF91FEF511A
:100ED000FD4F808186FF11C0E0918C018E2FEE0FB7
:100EE000990BFC01EE0FFF1FE80FF91FEF51FD4FAB
:100EF000808161E08F730E941401FF91EF91DF9177
:100F0000CF91BF91AF919F918F917F916F915F91A1
:100F10004F913F912F910F900FBE0F901F901895FA
:100F200080E49CE990938900809388008FEF809300
:100F30008C01E3CF10923B0210923A0288EE93E0CC
:100F4000A0E0B0E080933C0290933D02A0933E026B
:100F5000B0933F022BE031E0309339022093380206
:100F600025EC30E0309345022093440224EC30E03D
:100F7000309347022093460220EC30E03093490240
:100F80002093480221EC30E030934B0220934A0238
:100F900022EC30E030934D0220934C0226EC30E0FE
:100FA00030934F0220934E0210925102109252023F
:100FB00010925302109254021092D8021092D7024B
:100FC0008093D9029093DA02A093DB02B093DC0203
:100FD0008DE191E09093D6028093D5028091050334
:100FE0008C3098F491E0980F90930503809306035A
:100FF00090E0FC01EE0FFF1FE80FF91FEF51FD4FCE
:1010000088EB9BE09283818308958FEF80930603A2
:101010000895CF93DF93CDB7DEB728970FB6F89436
:10102000DEBF0FBECDBF789484B5826084BD84B529
:10103000816084BD85B5826085BD85B5816085BDD3
:1010400080916E00816080936E001092810080918B
:101050008100826080938100809181008160809313
:101060008100809180008160809380008091B10038
:1010700084608093B1008091B00081608093B00063
:1010800080917A00846080937A0080917A008260F7
:1010900080937A0080917A00816080937A008091B9
:1010A0007A00806880937A001092C1000E94EC0060
:1010B0000E94EC001092240210922302109222024D
:1010C000109221020E94610387EB91E0909320022D
:1010D00080931F0283EC91E090931E0280931D0287
:1010E0008AE08093BA0060E083E10E94140160E02E
:1010F00082E10E9414018FE494E090932602809391
:10110000250280E794E0909328028093270261E013
:101110008DE00E94140164EF71E080E090E00E9495
:10112000850160E08DE00E94140164E670E080E0DB
:1011300090E00E94850105E010E061E08DE00E94F2
:10114000140164E670E080E090E00E94850160E0B8
:101150008DE00E94140164E670E080E090E00E945F
:1011600085010150110949F784E691E00E94F703D7
:10117000809106038C3008F066C0E9E9F0E0249124
:10118000E5E8F0E08491882399F090E0880F991FBA
:10119000FC01E859FF4FA591B491FC01EE58FF4FB7
:1011A000859194918FB7F894EC91E22BEC938FBFDB
:1011B00080910603282F30E0F901EE0FFF1FE20FA8
:1011C000F31FEF51FD4F9081907C996090831092B6
:1011D0000703109208032CE0622F0E94540A829F9A
:1011E000B00111249B01200F311FF901EE0FFF1FE9
:1011F000E20FF31FEF51FD4F908196FD16C00F5F78
:101200001F4F0C30110571F781110FC01092800033
:1012100082E0809381001092850010928400B19A40
:1012200080916F00826080936F00E09106038E2FA3
:1012300090E0FC01EE0FFF1FE80FF91FEF51FD4F8B
:1012400080818064808383E790E00E94870080E053
:10125000E82E80E0F82EDD24D39488E392E00E940B
:101260008B02892B09F44FC01A8219821C821B82BF
:101270001E821D8270E060E0CE0101960E949E04F5
:1012800029813A8181112BC02115310519F0C9013D
:101290000E94020B1A8219821E821D821C821B82EE
:1012A0000E943D0297FD23C08F8318860D811E8109
:1012B0000F5F1F4FB801CE0101960E949E04882344
:1012C00079F329813A818D819E81BE01695F7F4FCB
:1012D000820F931F0E94510C1E830D83E1CF1E824B
:1012E0001D826DE271E0C9010E94510CD9CF80913D
:1012F0002E028823E1F10E94E40389819A810097FC
:1013000011F00E94020B80912E02882321F12FB749
:10131000F8948091340290913502A0913602B091F8
:1013200037022FBF40912A0250912B0260912C026C
:1013300070912D02841B950BA60BB70B813395473B
:10134000A105B10540F0D09229020E94E4038CE788
:1013500091E00E94F703E114F10409F47ECF0E94AA
:101360009702882309F479CF0E94000076CF0E946B
:10137000C803C3CF052E97FB1EF400940E94D10929
:1013800057FD07D00E94230A07FC03D04EF40C94AB
:10139000D10950954095309521953F4F4F4F5F4F64
:1013A000089590958095709561957F4F8F4F9F4FD1
:1013B00008950E94450AA59F900DB49F900DA49F8B
:1013C000800D911D11240895B7FF0C94D9090E9436
:1013D000D909821B930B08952F923F924F925F92EF
:1013E0006F927F928F929F92AF92BF92CF92DF9235
:1013F000EF92FF920F931F93CF93DF93CDB7DEB79A
:10140000CA1BDB0B0FB6F894DEBF0FBECDBF09942D
:101410002A88398848885F846E847D848C849B8484
:10142000AA84B984C884DF80EE80FD800C811B8192
:10143000AA81B981CE0FD11D0FB6F894DEBF0FBEC1
:10144000CDBFED010895A1E21A2EAA1BBB1BFD0121
:101450000DC0AA1FBB1FEE1FFF1FA217B307E40793
:10146000F50720F0A21BB30BE40BF50B661F771FEB
:10147000881F991F1A9469F76095709580959095CB
:101480009B01AC01BD01CF010895A29FB001B39FA4
:10149000C001A39F700D811D1124911DB29F700D7D
:1014A000811D1124911D0895991B79E004C0991F95
:1014B000961708F0961B881F7A95C9F780950895AE
:1014C000EE0FFF1F0590F491E02D09940F931F93E9
:1014D000CF93DF938230910510F482E090E0E091A9
:1014E0000B03F0910C0330E020E0B0E0A0E0309777
:1014F00099F42115310509F44AC0281B390B243011
:101500003105D8F58A819B816115710589F1FB014F
:1015100093838283FE0111C0408151810281138136
:1015200048175907E0F04817590799F4109761F0E8
:1015300012960C93129713961C933296CF01DF915B
:10154000CF911F910F91089500930B0310930C03FB
:10155000F4CF2115310551F04217530738F0A90196
:10156000DB019A01BD01DF01F801C1CFEF01F9CF25
:1015700090930C0380930B03CDCFFE01E20FF31F7A
:10158000819391932250310939832883D7CF2091B9
:10159000090330910A03232B41F420910301309178
:1015A000040130930A032093090320910101309133
:1015B00002012115310541F42DB73EB740910501D7
:1015C00050910601241B350BE0910903F0910A03A9
:1015D000E217F307A0F42E1B3F0B2817390778F00A
:1015E000AC014E5F5F4F2417350748F04E0F5F1F69
:1015F00050930A0340930903819391939FCFF0E0A6
:10160000E0E09CCFCF93DF930097E9F0FC013297A5
:1016100013821282A0910B03B0910C03ED0130E014
:1016200020E01097A1F420813181820F931F209137
:10163000090330910A032817390709F061C0F093B4
:101640000A03E0930903DF91CF910895EA01CE17D1
:10165000DF07E8F54A815B819E0141155105B1F72D
:10166000E901FB83EA8349915991C40FD51FEC1717
:10167000FD0761F4808191810296840F951FE90135
:1016800099838883828193819B838A83F0E0E0E061
:1016900012968D919C9113970097B9F52D913C91DD
:1016A0001197CD010296820F931F2091090330916B
:1016B0000A032817390739F6309751F510920C03B1
:1016C00010920B03B0930A03A0930903BCCFD383FA
:1016D000C28340815181840F951FC817D90761F4D7
:1016E0004E5F5F4F88819981480F591F5183408316
:1016F0008A819B81938382832115310509F0B0CFC4
:10170000F0930C03E0930B039ECFFD01DC01C0CFEF
:1017100013821282D7CFB0E0A0E0E1E9FBE00C94A5
:10172000EE098C01009751F4CB010E94660A8C01EE
:10173000C801CDB7DEB7E0E10C940A0AFC01E60F60
:10174000F71F9C0122503109E217F30708F49DC0EE
:10175000D901CD91DC911197C617D70798F0C53004
:10176000D10530F3CE0104978617970708F3C61BFF
:10177000D70B2297C193D1936D937C93CF010E9495
:10178000020BD6CF5B01AC1ABD0A4C018C0E9D1E1C
:10179000A0910B03B0910C03512C412CF12CE12CA6
:1017A000109731F58091090390910A0388159905E6
:1017B00009F05CC04616570608F058C08091010138
:1017C00090910201009741F48DB79EB740910501B9
:1017D00050910601841B950BE817F90708F055C0D6
:1017E000F0930A03E0930903F90171836083A0CFAA
:1017F0008D919C91119712966C90129713967C90F4
:101800001397A815B90559F56C0142E0C40ED11C17
:10181000CA14DB0420F1AC014A195B09DA01129603
:10182000159780F06282738251834083D9016D9352
:101830007C93E114F10471F0D7011396FC93EE93BD
:10184000129776CF22968C0F9D1FF901918380838A
:10185000F301EFCFF0930C03E0930B0369CF48162D
:10186000590608F42C017D01D3019ACFCB010E94C7
:10187000660A7C01009749F0AE01B8010E94480C4D
:10188000C8010E94020B870153CF10E000E050CF47
:10189000FB01DC0102C001900D9241505040D8F78D
:1018A0000895FB01DC0101900D920020E1F70895FD
:0418B000F894FFCFDA
:1018B400FF00000D03800000000000CD02ED011ABE
:1018C400021A038B0229027D0200000000B403A95E
:1018D40003C5037F03A2038F0380030D0A0053454E
:1018E400543A20004745543A20004572726F7220E2
:1018F4007265717565737465642C20726574757294
:101904006E65643A200057726F6E67207265717558
:1019140065737400537567617220626F617264202D
:10192400696E697469616C69736564004572726F8C
:0C193400723A2074696D656F75740000D4
:00000001FF
