:100000000C9462000C948A000C948A000C948A0070
:100010000C948A000C948A000C948A000C948A0038
:100020000C948A000C948A000C948A000C948A0028
:100030000C948A000C948A000C948A000C948A0018
:100040000C94D6020C948A000C948A000C948A00BA
:100050000C948A000C948A000C948A000C948A00F8
:100060000C9420030C948A0000000000230026005A
:10007000290000000000240027002A0000000000E2
:10008000250028002B0004040404040404040202D4
:100090000202020203030303030301020408102007
:1000A0004080010204081020010204081020000012
:1000B0000008000201000003040700000000000027
:1000C00000003B0511241FBECFEFD8E0DEBFCDBF3F
:1000D00021E0A4E1B1E001C01D92AB3CB207E1F721
:1000E00011E0A0E0B1E0E8EAFAE002C005900D926C
:1000F000A431B107D9F710E0C2E6D0E004C02197DF
:10010000FE010E944C05C136D107C9F70E943F0489
:100110000C9452050C940000833081F028F4813057
:1001200099F08230A9F008958730A9F08830C9F09D
:100130008430B1F4809180008F7D03C08091800075
:100140008F7780938000089584B58F7784BD08955C
:1001500084B58F7DFBCF8091B0008F778093B00006
:1001600008958091B0008F7DF9CF1F93CF93DF93D7
:10017000282F30E0F901E255FF4F8491F901E6564E
:10018000FF4FD491F901EA57FF4FC491CC23A9F056
:10019000162F81110E948C00EC2FF0E0EE0FFF1F54
:1001A000E458FF4FA591B4918FB7F894EC911111D9
:1001B00008C0D095DE23DC938FBFDF91CF911F91D4
:1001C0000895DE2BF8CFCF93DF9390E0FC01E65645
:1001D000FF4F24918A579F4FFC0184918823D1F0CF
:1001E00090E0880F991FFC01EE58FF4FA591B49144
:1001F000FC01E458FF4FC591D49161110EC09FB727
:10020000F8948C91E22FE0958E238C932881E22341
:10021000E8839FBFDF91CF9108958FB7F894EC9159
:10022000E22BEC938FBFF6CF3FB7F8948091C701D4
:100230009091C801A091C901B091CA0126B5A89BAF
:1002400005C02F3F19F00196A11DB11D3FBFBA2F68
:10025000A92F982F8827BC01CD01620F711D811D28
:10026000911D42E0660F771F881F991F4A95D1F7AD
:1002700008958F929F92AF92BF92CF92DF92EF92AA
:10028000FF924B015C010E9414016B017C010E94F2
:1002900014016C197D098E099F09683E7340810520
:1002A0009105A8F321E0821A9108A108B10888EE0F
:1002B000C80E83E0D81EE11CF11C81149104A10436
:1002C000B10429F7FF90EF90DF90CF90BF90AF90EF
:1002D0009F908F900895E091AE01F091AF0130971B
:1002E00029F01092A9011092A80109940895CF93C2
:1002F000DF93AC01E091AC01F091AD013097F1F0EA
:100300009091AB018091AA019817C0F090E0292F3D
:1003100030E02617370754F4D901AC5EBE4F240FE6
:10032000351FE90128812C939F5FF1CF1092AB011B
:100330006093AA01CB01DF91CF910994DF91CF9116
:10034000089520915A01260F3327331F213231059A
:10035000ECF420917E01FC0190E080E0243069F013
:1003600082E00895A0915A012191AC01465C5E4F54
:10037000A40FB52FB11D2C930196861798F3809189
:100380005A01680F60935A0180E0089581E0089552
:1003900010927E0181E08093800110927F0161E0E4
:1003A00082E10E94B50061E083E10E94B500E9EBC3
:1003B000F0E080818E7F808380818D7F808388E4E0
:1003C0008093B80085E48093BC0008950895E0917F
:1003D000AB018091AA01E81730F4F0E0EC5EFE4F2B
:1003E000808190E008958FEF9FEF08959091AB0189
:1003F0008091AA012FEF3FEF981748F4E92FF0E022
:10040000EC5EFE4F208130E09F5F9093AB01C9010D
:1004100008958091AA019091AB01891B990B0895D1
:10042000CF93DF93CB01EA01642F0E94A101CE019B
:10043000DF91CF910895CF93DF931F92CDB7DEB7B1
:10044000698361E0CE0101960E94A10181E090E004
:100450000F90DF91CF91089590E080E00895809112
:100460000001833061F064E08E3F59F060E080EB82
:1004700091E00E941B028FEF80930001089560912C
:10048000BC0180EB91E00C941B021092C10160E072
:1004900086E00C94B500CF93DF9385ED8093BC008C
:1004A0008091360190913701A0913801B0913901C6
:1004B0000796A11DB11D23E0B695A7959795879541
:1004C0002A95D1F72091BC0024FD03C010927E0133
:1004D00036C04091360150913701609138017091DA
:1004E0003901452B462B472B69F30097A105B10530
:1004F00041F025E32A95F1F700000197A109B10920
:10050000E1CF8091350191E0909334018823B9F0D7
:10051000C091B800D091BA008091BC008A7B8093D2
:10052000BC0060E082E10E94B50060E083E10E94CF
:10053000B5000E94C801D093BA00C093B800DF9103
:10054000CF9108951816190684F580EB91E00E946A
:10055000F60180930001813019F0823021F1089575
:100560009091C101911121C01092BC018093C101F1
:100570002FB7F8948091C3019091C401A091C50157
:10058000B091C6012FBF8093BD019093BE01A0938F
:10059000BF01B093C00161E086E00E94E30061E02A
:1005A00086E00C94B5000C94450208951F920F92BA
:1005B0000FB60F9211242F933F938F939F93AF9376
:1005C000BF938091C3019091C401A091C501B091E6
:1005D000C6013091C20123E0230F2D3758F5019653
:1005E000A11DB11D2093C2018093C3019093C4014A
:1005F000A093C501B093C6018091C7019091C80135
:10060000A091C901B091CA010196A11DB11D8093AD
:10061000C7019093C801A093C901B093CA01BF91CB
:10062000AF919F918F913F912F910F900FBE0F909F
:100630001F90189526E8230F0296A11DB11DD2CF59
:100640001F920F920FB60F9211242F933F934F9347
:100650005F936F937F938F939F93AF93BF93EF932A
:10066000FF938091B900887F803609F44AC0F0F585
:10067000883209F4A7C018F5803109F49BC0B8F49A
:10068000882309F4F9C0883009F494C0FF91EF91F0
:10069000BF91AF919F918F917F916F915F914F919A
:1006A0003F912F910F900FBE0F901F90189588319A
:1006B00009F488C0803251F780937D0114C08034E2
:1006C00009F49DC040F48033B9F38833F9F6809380
:1006D0007D0185ECB0C0803509F485C0883509F40A
:1006E00096C0883499F60E944B02D0CF883909F41D
:1006F0008CC038F5883729F050F4883611F08037EF
:1007000029F683E080937E0110927C0157C08838DF
:1007100009F47BC0803919F0803809F0B7CF809197
:100720007C01803208F071C0E0917C0181E08E0F85
:1007300080937C018091BB00F0E0E45AFE4F8083FF
:100740003DC0803B39F0E0F4803A09F479C0883A42
:1007500009F09CCF84E080937E0110925B0110929F
:100760005A01E091A601F091A701099580915A01E3
:1007700081110FC081E080935A0110923A0109C0A3
:10078000803C09F4A6CF883C09F4A3CF883B09F04C
:100790007DCFE0915B0181E08E0F80935B01F0E003
:1007A000E65CFE4F80818093BB0090915B0180915D
:1007B0005A0129C08091A3018093BB0085EC8093EE
:1007C000BC0064CF9091A2018091A101981758F5C7
:1007D000E091A20181E08E0F8093A201F0E0EF573B
:1007E000FE4F8081E9CFE091A20181E08E0F8093DE
:1007F000A2018091BB00F0E0EF57FE4F8083909103
:10080000A2018091A1019817C8F285E8D8CFE091A4
:10081000A20181E08E0F8093A2018091BB00F0E0E5
:10082000EF57FE4F80838091800181115CCF81E082
:1008300080937F0184EA8093BC0010927E0126CFD2
:1008400085EC8093BC0010927E0180917C01803207
:1008500030F4E0917C01F0E0E45AFE4F10826091A8
:100860007C0170E0E091A401F091A5018CE591E09C
:10087000099510927C010ACF10927D0134CF7894B3
:1008800084B5826084BD84B5816084BD85B5826095
:1008900085BD85B5816085BD80916E008160809346
:1008A0006E001092810080918100826080938100AF
:1008B00080918100816080938100809180008160BF
:1008C000809380008091B10084608093B10080911A
:1008D000B00081608093B00080917A008460809342
:1008E0007A0080917A00826080937A0080917A0009
:1008F000816080937A0080917A00806880937A008A
:100900001092C10061E086E00E94E30060E081E0B7
:100910000E94E3001092AB011092AA011092A9016B
:100920001092A8010E94C8018BE691E09093A70164
:100930008093A60187E791E09093A5018093A4019D
:1009400088E08093BA0060E083E10E94B50060E037
:1009500082E10E94B50082EA92E09093AD0180931B
:10096000AC018FE292E09093AF018093AE0161E021
:1009700084E00E94B50064EF71E080E090E00E94A6
:10098000390160E084E00E94B50064E670E080E038
:1009900090E00E943901C4E0D0E061E084E00E9470
:1009A000B50064E670E080E090E00E94390160E00C
:1009B00084E00E94B50064E670E080E090E00E9470
:1009C0003901219751F760E086E00E94B5000FEAF7
:1009D00010E09BE9E92E90E0F92E27E8C22E20E0F6
:1009E000D22EC0E0D0E0AA24A39432E0932E8091CE
:1009F000C101882361F12FB7F8948091C3019091D0
:100A0000C401A091C501B091C6012FBF4091BD01A5
:100A10005091BE016091BF017091C001841B950B84
:100A2000A60BB70B81339547A105B10520F0909235
:100A3000BC010E944502F8018491F701B490F601CF
:100A40008490811009C0A092BC010E9445022097A9
:100A500071F20E940000CBCF81110E948C00E82D22
:100A6000F0E0EE0FFF1FE859FF4FA591B4918C9174
:100A7000B82249F3ECCFE0EBF1E01382128288EE6A
:100A800093E0A0E0B0E084839583A683B78385E0FC
:100A900091E0918380830895EE0FFF1F0590F491FC
:080AA000E02D0994F894FFCF4A
:100AA800FF000000001B0210022C02E6010902F6FA
:040AB80001E7010051
:00000001FF
