:100000000C9462000C948A000C948A000C948A0070
:100010000C948A000C948A000C948A000C948A0038
:100020000C948A000C948A000C948A000C948A0028
:100030000C948A000C948A000C948A000C948A0018
:100040000C9465050C948A000C94D5050C94AF05AE
:100050000C948A000C948A000C948A000C948A00F8
:100060000C9407060C948A00000000002300260070
:10007000290000000000240027002A0000000000E2
:10008000250028002B0004040404040404040202D4
:100090000202020203030303030301020408102007
:1000A0004080010204081020010204081020000012
:1000B0000008000201000003040700000000000027
:1000C0000000260711241FBECFEFD8E0DEBFCDBF52
:1000D00023E0A8EAB1E001C01D92A030B207E1F729
:1000E00011E0A0E0B1E0ECE1F9E102C005900D9271
:1000F000A83AB107D9F710E0C2E6D0E004C02197D2
:10010000FE010E94830AC136D107C9F70E945F072A
:100110000C948C0C0C940000E3E5F2E0A089B1890A
:1001200082E08C93A485B5851C92A685B78580E175
:100130008C93108EA489B58986E08C93A289B389AB
:100140008C9180618C93A289B3898C9188608C9307
:10015000A289B3898C9180688C930288F389E02D01
:1001600080818F7D80830895833081F028F48130F1
:1001700099F08230A9F008958730A9F08830C9F04D
:100180008430B1F4809180008F7D03C08091800025
:100190008F7780938000089584B58F7784BD08950C
:1001A00084B58F7DFBCF8091B0008F778093B000B6
:1001B00008958091B0008F7DF9CF1F93CF93DF9387
:1001C000282F30E0F901E255FF4F8491F901E656FE
:1001D000FF4FD491F901EA57FF4FC491CC23A9F006
:1001E000162F81110E94B400EC2FF0E0EE0FFF1FDC
:1001F000E458FF4FA591B4918FB7F894EC91111189
:1002000008C0D095DE23DC938FBFDF91CF911F9183
:100210000895DE2BF8CFCF93DF9390E0FC01E656F4
:10022000FF4F24918A579F4FFC0184918823D1F07E
:1002300090E0880F991FFC01EE58FF4FA591B491F3
:10024000FC01E458FF4FC591D49161110EC09FB7D6
:10025000F8948C91E22FE0958E238C932881E223F1
:10026000E8839FBFDF91CF9108958FB7F894EC9109
:10027000E22BEC938FBFF6CF3FB7F89480914B02FF
:1002800090914C02A0914D02B0914E0226B5A89BD0
:1002900005C02F3F19F00196A11DB11D3FBFBA2F18
:1002A000A92F982F8827BC01CD01620F711D811DD8
:1002B000911D42E0660F771F881F991F4A95D1F75D
:1002C00008958F929F92AF92BF92CF92DF92EF925A
:1002D000FF924B015C010E943C016B017C010E947A
:1002E0003C016C197D098E099F09683E73408105A8
:1002F0009105A8F321E0821A9108A108B10888EEBF
:10030000C80E83E0D81EE11CF11C81149104A104E5
:10031000B10429F7FF90EF90DF90CF90BF90AF909E
:100320009F908F9008950895E0914202F0914302CA
:10033000309729F010923D0210923C0209940895E2
:10034000CF93DF93AC01E0914002F09141023097EE
:10035000F1F090913F0280913E029817C0F090E03A
:10036000292F30E02617370754F4D901A855BE4F7E
:10037000240F351FE90128812C939F5FF1CF109244
:100380003F0260933E02CB01DF91CF910994DF9150
:10039000CF910895AF92BF92CF92DF92EF92FF92EA
:1003A0000F931F93CF93DF936C017B018B01040F9D
:1003B000151FEB015E01AE18BF08C017D10759F039
:1003C0006991D601ED91FC910190F081E02DC6017B
:1003D0000995892B79F7C501DF91CF911F910F9175
:1003E000FF90EF90DF90CF90BF90AF900895FC0109
:1003F000538D448D252F30E0842F90E0821B930B8A
:10040000541710F0CF96089501970895FC01918D2F
:10041000828D981761F0A28DAE0FBF2FB11D5D9632
:100420008C91928D9F5F9F73928F90E008958FEFD4
:100430009FEF08952FB7F89480914F02909150024A
:10044000A0915102B09152022FBF80935B02909312
:100450005C02A0935D02B0935E0283E592E00E948D
:10046000060297FF26C02FB7F89480914F02909113
:100470005002A0915102B09152022FBF40915B02F5
:1004800050915C0260915D0270915E02841B950B3D
:10049000A60BB70B40915702509158026091590238
:1004A00070915A0284179507A607B707B0F28FEF2D
:1004B0009FEF0895FC01918D828D981731F0828D08
:1004C000E80FF11D858D90E008958FEF9FEF08955F
:1004D000FC01918D228D892F90E0805C9F4F821BC3
:1004E00091098F739927089583E592E00E9468022D
:1004F00021E0892B09F420E0822F089580E090E02C
:10050000892B29F00E94740281110C940000089537
:10051000FC01A48DA80FB92FB11DA35ABF4F2C9178
:10052000848D90E001968F739927848FA689B7896F
:100530002C93A089B1898C91837080648C93938D66
:10054000848D981306C00288F389E02D80818F7D09
:1005500080830895EF92FF920F931F93CF93DF93C1
:10056000EC0181E0888F9B8D8C8D98131AC0E889EF
:10057000F989808185FF15C09FB7F894EE89FF89BE
:100580006083E889F98980818370806480839FBF5C
:1005900081E090E0DF91CF911F910F91FF90EF905C
:1005A0000895F62E0B8D10E00F5F1F4F0F7311276C
:1005B000E02E8C8D8E110CC00FB607FCFACFE889A7
:1005C000F989808185FFF5CFCE010E948802F1CFA5
:1005D000EB8DEC0FFD2FF11DE35AFF4FF0829FB71B
:1005E000F8940B8FEA89FB8980818062CFCFCF930B
:1005F000DF93EC01888D8823B9F0AA89BB89E8894B
:10060000F9898C9185FD03C0808186FD0DC00FB6F0
:1006100007FCF7CF8C9185FFF2CF808185FFEDCF6E
:10062000CE010E948802E9CFDF91CF9108952091F9
:10063000EE01260F3327331F21323105ECF42091D0
:100640001202FC0190E080E0243069F082E008951D
:10065000A091EE012191AC0142535E4FA40FB52F42
:10066000B11D2C930196861798F38091EE01680FC7
:100670006093EE0180E0089581E0089510921202E7
:1006800081E0809314021092130261E082E10E94E3
:10069000DD0061E083E10E94DD00E9EBF0E08081B4
:1006A0008E7F808380818D7F808388E48093B800F3
:1006B00085E48093BC0008950895E0913F02809105
:1006C0003E02E81730F4F0E0E855FE4F808190E0FC
:1006D00008958FEF9FEF089590913F0280913E0221
:1006E0002FEF3FEF981748F4E92FF0E0E855FE4F61
:1006F000208130E09F5F90933F02C901089580916F
:100700003E0290913F02891B990B0895CF93DF938E
:10071000CB01EA01642F0E941703CE01DF91CF9134
:100720000895CF93DF931F92CDB7DEB7698361E061
:10073000CE0101960E94170381E090E00F90DF91B7
:10074000CF91089590E080E008951092490260E012
:1007500086E00C94DD00FC0101900020E9F7319760
:10076000AF01481B590BBC0183E592E00C94CA0110
:100770008F929F92AF92BF920F931F93CF93DF936D
:10078000CDB7DEB7A1970FB6F894DEBF0FBECDBFD1
:1007900019A2423008F44AE08E010F5D1F4F842EEB
:1007A000912CB12CA12CA50194010E94610AE62F85
:1007B000B901CA01EA30F4F4E05DD801EE938D018D
:1007C000232B242B252B79F790E080E0109719F04C
:1007D000CD010E94AB03A1960FB6F894DEBF0FBE09
:1007E000CDBFDF91CF911F910F91BF90AF909F90A0
:1007F0008F900895E95CE1CFCF93DF930E94AB0324
:10080000EC018BE291E00E94AB038C0F9D1FDF9106
:10081000CF910895CF93DF93682F70E090E080E050
:100820004AE00E94B803EC018BE291E00E94AB0326
:100830008C0F9D1FDF91CF9108958EE291E00E9471
:10084000AB03809100010E940A0480910001833073
:1008500039F08E3F99F464E080EF92E00C949103BC
:100860006091440280EF92E00E94910384E391E062
:100870000E94AB03809144020C940A0480E591E04D
:100880000E94FC0360E080EF92E00E9491038FEFF2
:1008900080930001089518161906D4F580EF92E0B0
:1008A0000E946C03809300018EE591E00E94AB03EF
:1008B000809100010E940A0480910001813019F0AA
:1008C000823021F1089590914902911121C0109236
:1008D0004402809349022FB7F89480914F0290917F
:1008E0005002A0915102B09152022FBF8093450255
:1008F00090934602A0934702B093480261E086E0DD
:100900000E940B0161E086E00C94DD000C94A503CD
:100910000895CF93DF93EC0188819981009711F0BE
:100920000E94250B198218821D821C821B821A824A
:10093000DF91CF910895FC0180819181009711F0A2
:100940000C94250B08950F931F93CF93DF93EC0125
:1009500088819981009759F02A813B8126173707B2
:1009600030F081E0DF91CF911F910F9108958B01BD
:100970006F5F7F4F0E94AE0B009759F09983888379
:100980001B830A832C813D81232B59F7FC011082A4
:10099000E8CF80E0E7CFEF92FF920F931F93CF93C2
:1009A000DF938C017B016115710561F0EB0109900A
:1009B0000020E9F72197C61BD70BBE010E94A304B4
:1009C00081110BC0C8010E948904C801DF91CF9139
:1009D0001F910F91FF90EF900895F801D583C48384
:1009E000B701808191810E94850CEFCFCF93DF9377
:1009F000EC0170E060E00E94A304811105C0CE010B
:100A0000DF91CF910C9489041D821C826DE271E00C
:100A100088819981DF91CF910C94850CCF93DF93DE
:100A200085ED8093BC008091CA019091CB01A0918B
:100A3000CC01B091CD010796A11DB11D23E0B69563
:100A4000A795979587952A95D1F72091BC0024FD0D
:100A500003C01092120236C04091CA015091CB01DE
:100A60006091CC017091CD01452B462B472B69F34A
:100A70000097A105B10541F025E32A95F1F70000A3
:100A80000197A109B109E1CF8091C90191E090934B
:100A9000C8018823B9F0C091B800D091BA00809104
:100AA000BC008A7B8093BC0060E082E10E94DD0094
:100AB00060E083E10E94DD000E943E03D093BA0013
:100AC000C093B800DF91CF9108951F920F920FB697
:100AD0000F9211242F933F938F939F93AF93BF93C4
:100AE00080914F0290915002A0915102B091520218
:100AF00030914A0223E0230F2D3758F50196A11DAE
:100B0000B11D20934A0280934F0290935002A0930C
:100B10005102B093520280914B0290914C02A091ED
:100B20004D02B0914E020196A11DB11D80934B0262
:100B300090934C02A0934D02B0934E02BF91AF919F
:100B40009F918F913F912F910F900FBE0F901F900B
:100B5000189526E8230F0296A11DB11DD2CF1F9232
:100B60000F920FB60F9211242F933F934F935F93E1
:100B70006F937F938F939F93AF93BF93EF93FF9365
:100B800083E592E00E948802FF91EF91BF91AF91BF
:100B90009F918F917F916F915F914F913F912F9195
:100BA0000F900FBE0F901F9018951F920F920FB6C7
:100BB0000F9211242F938F939F93EF93FF93E091C4
:100BC0006302F09164028081E0916902F0916A020F
:100BD00082FD1BC0908180916C028F5F8F7320918A
:100BE0006D02821741F0E0916C02F0E0ED5AFD4F8A
:100BF000958F80936C02FF91EF919F918F912F9130
:100C00000F900FBE0F901F9018958081F4CF1F9208
:100C10000F920FB60F9211242F933F934F935F9330
:100C20006F937F938F939F93AF93BF93EF93FF93B4
:100C30008091B900887F803609F44AC0F0F5883287
:100C400009F4A7C018F5803109F49BC0B8F48823D3
:100C500009F4F9C0883009F494C0FF91EF91BF9175
:100C6000AF919F918F917F916F915F914F913F9144
:100C70002F910F900FBE0F901F901895883109F497
:100C800088C0803251F78093110214C0803409F477
:100C90009DC040F48033B9F38833F9F68093110294
:100CA00085ECB0C0803509F485C0883509F496C05C
:100CB000883499F60E940E05D0CF883909F48CC08B
:100CC00038F5883729F050F4883611F0803729F646
:100CD00083E0809312021092100257C0883809F402
:100CE0007BC0803919F0803809F0B7CF80911002AD
:100CF000803208F071C0E091100281E08E0F809385
:100D000010028091BB00F0E0E051FE4F80833DC0B7
:100D1000803B39F0E0F4803A09F479C0883A09F070
:100D20009CCF84E0809312021092EF011092EE01AA
:100D3000E0913A02F0913B0209958091EE01811118
:100D40000FC081E08093EE011092CE0109C0803C7B
:100D500009F4A6CF883C09F4A3CF883B09F07DCFE6
:100D6000E091EF0181E08E0F8093EF01F0E0E2531C
:100D7000FE4F80818093BB009091EF018091EE0146
:100D800029C0809137028093BB0085EC8093BC0022
:100D900064CF9091360280913502981758F5E09112
:100DA000360281E08E0F80933602F0E0EB5EFD4F5D
:100DB0008081E9CFE091360281E08E0F8093360288
:100DC0008091BB00F0E0EB5EFD4F80839091360296
:100DD000809135029817C8F285E8D8CFE0913602A5
:100DE00081E08E0F809336028091BB00F0E0EB5ED5
:100DF000FD4F80838091140281115CCF81E080934C
:100E0000130284EA8093BC001092120226CF85EC74
:100E10008093BC001092120280911002803230F454
:100E2000E0911002F0E0E051FE4F1082609110025C
:100E300070E0E0913802F091390280EF91E009957D
:100E4000109210020ACF1092110234CFE3E5F2E0C3
:100E50001382128288EE93E0A0E0B0E08483958351
:100E6000A683B7832BE031E03183208325EC30E08B
:100E70003587248724EC30E03787268720EC30E064
:100E8000318B208B21EC30E0338B228B22EC30E055
:100E9000358B248B26EC30E0378B268B118E128E0F
:100EA000138E148EE0EFF2E0138212828483958316
:100EB000A683B7838DE191E0918380830895CF93DA
:100EC000DF93CDB7DEB768970FB6F894DEBF0FBEDD
:100ED000CDBF789484B5826084BD84B5816084BDC3
:100EE00085B5826085BD85B5816085BD80916E00C8
:100EF000816080936E0010928100809181008260F9
:100F00008093810080918100816080938100809135
:100F100080008160809380008091B1008460809324
:100F2000B1008091B00081608093B00080917A0020
:100F3000846080937A0080917A00826080937A0046
:100F400080917A00816080937A0080917A00806835
:100F500080937A001092C1000E948C000E948C0045
:100F600061E086E00E940B0160E081E00E940B01DD
:100F700010923F0210923E0210923D0210923C02EB
:100F80000E943E0384E991E090933B0280933A02F1
:100F900080EA91E0909339028093380288E0809350
:100FA000BA0060E083E10E94DD0060E082E10E941F
:100FB000DD008BE494E090934102809340028DE148
:100FC00094E0909343028093420261E084E00E94A7
:100FD000DD0064EF71E080E090E00E94610160E07C
:100FE00084E00E94DD0064E670E080E090E00E9412
:100FF000610104E010E061E084E00E94DD0064E64D
:1010000070E080E090E00E94610160E084E00E9476
:10101000DD0064E670E080E090E00E946101015034
:10102000110949F784E691E00E94FC0360E086E044
:101030000E94DD005FEAE52E50E0F52E9BE9A92E27
:1010400090E0B92E27E8822E20E0922E32E0232E67
:1010500040E0C42E40E0D42E83E592E00E94680276
:10106000892B09F400C11C8A1B8A1E8A1D8A188ECE
:101070001F8ACE0143960E94F6040E941A0297FD31
:101080001BC089831A820F89188D0F5F1F4FB8010B
:10109000CE0143960E94A304882379F32B893C89CF
:1010A0008F89988DBE016F5F7F4F820F931F0E94C3
:1010B000850C188F0F8BE1CF1E861D86188A1F8620
:1010C0001A8A198ACE010D960E94F6048F89988D8E
:1010D000892B69F0EB89FC89118111826B897C89EC
:1010E000CE010D960E94CB04EB89FC8911830D85FE
:1010F0001E850115110571F0F80181918F0188237A
:1011000049F0082E000C990B0E946B0CF8013197E6
:101110008083F2CF18861F821A8619861C861B864A
:10112000CE0107960E94F6040F89188D0330110531
:1011300008F446C01A8219821C821B821E821D82FC
:10114000CE0101960E94F6048F89988D8330910517
:10115000C0F08017910708F48C01EB89FC89E00F3F
:10116000F11F408010826B897C896E5F7F4FCE01BA
:1011700001960E94CB048B899C89080F191FF801E6
:1011800040828F819885009709F4B5C069817A8182
:101190006115710509F4ADC049855A852D813E81DF
:1011A0004217530708F4A5C00E94850C8D819E81CB
:1011B0009C878B871E821D82CE0101960E949B0414
:1011C00089899A89892B09F442C06EE771E08D857F
:1011D0009E850E947C0C892BD1F580E891E00E94CD
:1011E000AB038F819885009709F496C00E94EE09A1
:1011F0002B013C0177FE93C06DE283E592E00E94F3
:10120000AA0266277727CB01641975098609970911
:101210004AE00E94B8038BE291E00E94AB038F8109
:101220009885412C312C009721F00E94EE09462E22
:10123000372E042D132D61E086E00E940B0101156D
:10124000110509F070C060E086E00E94DD00CE016B
:1012500007960E949B04CE010D960E949B04CE012E
:1012600043960E949B0480914902882309F435C06B
:101270002FB7F89480914F0290915002A0915102A3
:10128000B09152022FBF40914502509146026091A9
:10129000470270914802841B950BA60BB70B813354
:1012A0009547A105B10540F0209244020E94A50394
:1012B00086E891E00E94FC03F7018491F501149106
:1012C000F401049101117AC081E0809344020E94EC
:1012D000A50385E991E00E94FC03C114D10409F43F
:1012E000BBCE0E947402882309F4A8CE0E9400009D
:1012F000A5CE0E94250B89819A8198878F838B8147
:101300009C819A8789878D819E819C878B871A8291
:1013100019821C821B824ECF412C512C32014AE093
:10132000C301B20176CF0F3F110511F461E08CCFFC
:10133000E4EBF0E08491833029F140F48130C1F096
:101340008230D9F0003811058CF77DCF873031F12C
:10135000883061F18430B1F78091800080628093A1
:101360008000842D932D90938B0080938A006FCF03
:1013700084B5806884BD47BC6ACF84B5806284BD73
:1013800048BC65CF80918000806880938000842D68
:10139000932D909389008093880059CF8091B0005D
:1013A00080688093B0004092B30051CF8091B0002C
:1013B00080628093B0004092B40049CF81110E94B6
:1013C000B400E02FF0E0EE0FFF1FE859FF4FA591AA
:1013D000B4918C91182309F477CF7FCF1F93FC0130
:1013E00099278827BC01E89411911032E9F319304C
:1013F00010F01E30C8F31B3251F01D3249F46894CE
:1014000006C00E94150A610F711D811D911D119169
:1014100010531A30B0F33EF4909580957095619515
:101420007F4F8F4F9F4F1F910895592F482F372F70
:10143000262F660F771F881F991F660F771F881F3B
:10144000991F620F731F841F951F660F771F881FD8
:10145000991F08952F923F924F925F926F927F92C1
:101460008F929F92AF92BF92CF92DF92EF92FF92B4
:101470000F931F93CF93DF93CDB7DEB7CA1BDB0B60
:101480000FB6F894DEBF0FBECDBF09942A88398805
:1014900048885F846E847D848C849B84AA84B9840C
:1014A000C884DF80EE80FD800C811B81AA81B98118
:1014B000CE0FD11D0FB6F894DEBF0FBECDBFED012C
:1014C0000895A1E21A2EAA1BBB1BFD010DC0AA1F85
:1014D000BB1FEE1FFF1FA217B307E407F50720F09D
:1014E000A21BB30BE40BF50B661F771F881F991F18
:1014F0001A9469F760957095809590959B01AC0161
:10150000BD01CF010895EE0FFF1F0590F491E02D6E
:1015100009940F931F93CF93DF938230910510F4BA
:1015200082E090E0E091FE02F091FF0230E020E0E6
:10153000B0E0A0E0309799F42115310509F44AC0D4
:10154000281B390B24303105D8F58A819B81611520
:10155000710589F1FB0193838283FE0111C04081F3
:1015600051810281138148175907E0F04817590744
:1015700099F4109761F012960C93129713961C939E
:101580003296CF01DF91CF911F910F910895009373
:10159000FE021093FF02F4CF2115310551F04217DE
:1015A000530738F0A901DB019A01BD01DF01F80101
:1015B000C1CFEF01F9CF9093FF028093FE02CDCF10
:1015C000FE01E20FF31F8193919322503109398379
:1015D0002883D7CF2091FC023091FD02232B41F4C8
:1015E00020910301309104013093FD022093FC020D
:1015F00020910101309102012115310541F42DB7EF
:101600003EB74091050150910601241B350BE09136
:10161000FC02F091FD02E217F307A0F42E1B3F0B32
:101620002817390778F0AC014E5F5F4F2417350754
:1016300048F04E0F5F1F5093FD024093FC028193D0
:1016400091939FCFF0E0E0E09CCFCF93DF930097A2
:10165000E9F0FC01329713821282A091FE02B09150
:10166000FF02ED0130E020E01097A1F420813181EC
:10167000820F931F2091FC023091FD022817390739
:1016800009F061C0F093FD02E093FC02DF91CF917D
:101690000895EA01CE17DF07E8F54A815B819E01D4
:1016A00041155105B1F7E901FB83EA83499159914D
:1016B000C40FD51FEC17FD0761F48081918102965C
:1016C000840F951FE90199838883828193819B838D
:1016D0008A83F0E0E0E012968D919C911397009739
:1016E000B9F52D913C911197CD010296820F931F70
:1016F0002091FC023091FD022817390739F6309706
:1017000051F51092FF021092FE02B093FD02A093D9
:10171000FC02BCCFD383C28340815181840F951FCB
:10172000C817D90761F44E5F5F4F88819981480FD0
:10173000591F518340838A819B8193838283211522
:10174000310509F0B0CFF093FF02E093FE029ECF87
:10175000FD01DC01C0CF13821282D7CFB0E0A0E040
:10176000E4EBFBE00C942C0A8C01009751F4CB01C4
:101770000E94890A8C01C801CDB7DEB7E0E10C9464
:10178000480AFC01E60FF71F9C0122503109E217BD
:10179000F30708F49DC0D901CD91DC911197C617CC
:1017A000D70798F0C530D10530F3CE0104978617DE
:1017B000970708F3C61BD70B2297C193D1936D935C
:1017C0007C93CF010E94250BD6CF5B01AC1ABD0ADA
:1017D0004C018C0E9D1EA091FE02B091FF02512C77
:1017E000412CF12CE12C109731F58091FC02909165
:1017F000FD028815990509F05CC04616570608F0E9
:1018000058C08091010190910201009741F48DB779
:101810009EB74091050150910601841B950BE81776
:10182000F90708F055C0F093FD02E093FC02F901BE
:1018300071836083A0CF8D919C91119712966C90CB
:10184000129713967C901397A815B90559F56C015A
:1018500042E0C40ED11CCA14DB0420F1AC014A19C9
:101860005B09DA011296159780F0628273825183C8
:101870004083D9016D937C93E114F10471F0D70199
:101880001396FC93EE93129776CF22968C0F9D1FA2
:10189000F90191838083F301EFCFF093FF02E0938E
:1018A000FE0269CF4816590608F42C017D01D301C8
:1018B0009ACFCB010E94890A7C01009749F0AE01C2
:1018C000B8010E94730CC8010E94250B870153CFF9
:1018D00010E000E050CF9111089581548A5108F42E
:1018E000805E855A0895FB01DC0102C001900D92D3
:1018F00041505040D8F70895FB01DC018D910190D3
:1019000080190110D9F3990B0895FB01DC010190B6
:0C1910000D920020E1F70895F894FFCF3D
:10191C00FF00000003800000000000AA02CA01F7CB
:10192C0001F702680206025A0200000000910386C9
:10193C0003A2035C037F036C035D030D0A004745A0
:10194C00543A20004572726F72207265717565731E
:10195C007465642C2072657475726E65643A20002F
:10196C0057726F6E6720726571756573740053459D
:10197C00543A20004372757368657220626F61720D
:10198C006420696E697469616C69736564007000C8
:10199C0050574D2D3E004572726F723A2074696D2E
:1019AC00656F7574004572726F723A20636F76655D
:0819BC0072206F70656E0000DF
:00000001FF
