:100000000C9462000C948A000C948A000C948A0070
:100010000C948A000C948A000C948A000C948A0038
:100020000C948A000C948A000C948A000C948A0028
:100030000C948A000C948A000C948A000C948A0018
:100040000C949D040C948A000C940D050C94E70408
:100050000C948A000C948A000C948A000C948A00F8
:100060000C943F050C948A00000000002300260039
:10007000290000000000240027002A0000000000E2
:10008000250028002B0004040404040404040202D4
:100090000202020203030303030301020408102007
:1000A0004080010204081020010204081020000012
:1000B0000008000201000003040700000000000027
:1000C00000005E0611241FBECFEFD8E0DEBFCDBF1B
:1000D00022E0AAE9B1E001C01D92AE3EB207E1F70D
:1000E00011E0A0E0B1E0EEEEFFE002C005900D925D
:1000F000AA39B107D9F710E0C2E6D0E004C02197D1
:10010000FE010E94EF07C136D107C9F70E9497068A
:100110000C94F5070C940000E5E4F2E0A089B189A5
:1001200082E08C93A485B5851C92A685B78580E175
:100130008C93108EA489B58986E08C93A289B389AB
:100140008C9180618C93A289B3898C9188608C9307
:10015000A289B3898C9180688C930288F389E02D01
:1001600080818F7D80830895833081F028F48130F1
:1001700099F08230A9F008958730A9F08830C9F04D
:100180008430B1F4809180008F7D03C08091800025
:100190008F7780938000089584B58F7784BD08950C
:1001A00084B58F7DFBCF8091B0008F778093B000B6
:1001B00008958091B0008F7DF9CF1F93CF93DF9387
:1001C000282F30E0F901E255FF4F8491F901E656FE
:1001D000FF4FD491F901EA57FF4FC491CC23A9F006
:1001E000162F81110E94B400EC2FF0E0EE0FFF1FDC
:1001F000E458FF4FA591B4918FB7F894EC91111189
:1002000008C0D095DE23DC938FBFDF91CF911F9183
:100210000895DE2BF8CFCF93DF9390E0FC01E656F4
:10022000FF4F24918A579F4FFC0184918823C9F086
:1002300090E0880F991FFC01EE58FF4FA591B491F3
:10024000FC01E458FF4FC591D49161110DC09FB7D7
:10025000F8948C91209582238C938881282328837D
:100260009FBFDF91CF910895623051F49FB7F8940A
:100270003C91822F809583238C93E8812E2BEFCFA6
:100280008FB7F894EC912E2B2C938FBFEACF3FB70A
:10029000F8948091410290914202A0914302B09162
:1002A000440226B5A89B05C02F3F19F00196A11D59
:1002B000B11D3FBFBA2FA92F982F8827BC01CD01B0
:1002C000620F711D811D911D42E0660F771F881F0F
:1002D000991F4A95D1F708958F929F92AF92BF923E
:1002E000CF92DF92EF92FF924B015C010E94470197
:1002F0006B017C010E9447016C197D098E099F09E1
:10030000683E734081059105A8F321E0821A9108A7
:10031000A108B10888EEC80E83E0D81EE11CF11CCC
:1003200081149104A104B10429F7FF90EF90DF90AC
:10033000CF90BF90AF909F908F900895E09134023E
:10034000F0913502309729F010922F0210922E0270
:1003500009940895CF93DF93AC01E0913202F091BC
:1003600033023097F1F0909131028091300298176A
:10037000C0F090E0292F30E02617370754F4D90158
:10038000A656BE4F240F351FE90128812C939F5F8D
:10039000F1CF1092310260933002CB01DF91CF9107
:1003A0000994DF91CF910895AF92BF92CF92DF92DF
:1003B000EF92FF920F931F93CF93DF936C017B011A
:1003C0008B01040F151FEB015E01AE18BF08C017AB
:1003D000D10759F06991D601ED91FC910190F0811E
:1003E000E02DC6010995892B79F7C501DF91CF91E1
:1003F0001F910F91FF90EF90DF90CF90BF90AF9043
:100400000895FC01538D448D252F30E0842F90E01A
:10041000821B930B541710F0CF96089501970895FF
:10042000FC01918D828D981761F0A28DAE0FBF2FC8
:10043000B11D5D968C91928D9F5F9F73928F90E01E
:1004400008958FEF9FEF0895FC01918D828D98178D
:1004500031F0828DE80FF11D858D90E008958FEFCA
:100460009FEF0895FC01918D228D892F90E0805C93
:100470009F4F821B91098F739927089585E492E01D
:100480000E94320221E0892B09F420E0822F089596
:1004900080E090E0892B29F00E943E0281110C94AB
:1004A00000000895FC01A48DA80FB92FB11DA35A17
:1004B000BF4F2C91848D90E001968F739927848F84
:1004C000A689B7892C93A089B1898C9183708064A7
:1004D0008C93938D848D981306C00288F389E02D48
:1004E00080818F7D80830895EF92FF920F931F93F9
:1004F000CF93DF93EC0181E0888F9B8D8C8D9813D7
:100500001AC0E889F989808185FF15C09FB7F894E2
:10051000EE89FF896083E889F9898081837080642E
:1005200080839FBF81E090E0DF91CF911F910F9179
:10053000FF90EF900895F62E0B8D10E00F5F1F4F88
:100540000F731127E02E8C8D8E110CC00FB607FC97
:10055000FACFE889F989808185FFF5CFCE010E9425
:100560005202F1CFEB8DEC0FFD2FF11DE35AFF4F3F
:10057000F0829FB7F8940B8FEA89FB8980818062B3
:10058000CFCFCF93DF93EC01888D8823B9F0AA8970
:10059000BB89E889F9898C9185FD03C0808186FD3E
:1005A0000DC00FB607FCF7CF8C9185FFF2CF80818D
:1005B00085FFEDCFCE010E945202E9CFDF91CF91AE
:1005C00008952091E001260F3327331F2132310592
:1005D000ECF420910402FC0190E080E0243069F00A
:1005E00082E00895A091E0012191AC0140545E4F5A
:1005F000A40FB52FB11D2C930196861798F3809107
:10060000E001680F6093E00180E0089581E00895C3
:100610001092040281E0809306021092050261E0CC
:1006200082E10E94DD0061E083E10E94DD00E9EBF0
:10063000F0E080818E7F808380818D7F808388E45D
:100640008093B80085E48093BC0008950895E091FC
:10065000310280913002E81730F4F0E0E656FE4FA8
:10066000808190E008958FEF9FEF0895909131027F
:10067000809130022FEF3FEF981748F4E92FF0E018
:10068000E656FE4F208130E09F5F90933102C90112
:1006900008958091300290913102891B990B089541
:1006A000CF93DF93CB01EA01642F0E94E102CE01D8
:1006B000DF91CF910895CF93DF931F92CDB7DEB72F
:1006C000698361E0CE0101960E94E10281E090E041
:1006D0000F90DF91CF91089590E080E008951092FF
:1006E0003B0260E083E00C94DD00FC0101900020FF
:1006F000E9F73197AF01481B590BBC0185E492E043
:100700000C94D401CF93DF930E947503EC0185E232
:1007100091E00E9475038C0F9D1FDF91CF9108958A
:10072000CF92DF92EF92FF920F931F93CF93DF93BD
:10073000CDB7DEB7A1970FB6F894DEBF0FBECDBF21
:10074000282F30E050E040E019A28E010F5D1F4FCE
:100750008AE0C82ED12CE12CF12CCA01B901A701E5
:1007600096010E94CD07605DF80162938F0121150B
:1007700031054105510589F73097C9F0CF010E9435
:1007800075038C0185E291E00E947503800F911F33
:10079000A1960FB6F894DEBF0FBECDBFDF91CF910B
:1007A0001F910F91FF90EF90DF90CF90089510E090
:1007B00000E0E8CF88E291E00E947503809100019B
:1007C0000E94900380910001833039F08E3F99F4AC
:1007D00064E082EE92E00C945B036091360282EE5C
:1007E00092E00E945B038EE291E00E94750380918B
:1007F00036020C9490038AE491E00E94820360E048
:1008000082EE92E00E945B038FEF809300010895D7
:1008100018161906D4F582EE92E00E9436038093F2
:10082000000188E591E00E947503809100010E941B
:10083000900380910001813019F0823021F10895F8
:1008400090913B02911121C01092360280933B029D
:100850002FB7F89480913D0290913E02A0913F0203
:10086000B09140022FBF8093370290933802A0933B
:100870003902B0933A0261E083E00E940B0161E02B
:1008800083E00C94DD000C946F030895CF93DF9305
:1008900085ED8093BC008091BC019091BD01A09139
:1008A000BE01B091BF010796A11DB11D23E0B69511
:1008B000A795979587952A95D1F72091BC0024FD9F
:1008C00003C01092040236C04091BC015091BD019A
:1008D0006091BE017091BF01452B462B472B69F3F8
:1008E0000097A105B10541F025E32A95F1F7000035
:1008F0000197A109B109E1CF8091BB0191E09093EB
:10090000BA018823B9F0C091B800D091BA008091A3
:10091000BC008A7B8093BC0060E082E10E94DD0025
:1009200060E083E10E94DD000E940803D093BA00DA
:10093000C093B800DF91CF9108951F920F920FB628
:100940000F9211242F933F938F939F93AF93BF9355
:1009500080913D0290913E02A0913F02B0914002F1
:1009600030913C0223E0230F2D3758F50196A11D4D
:10097000B11D20933C0280933D0290933E02A093D0
:100980003F02B09340028091410290914202A091B7
:100990004302B09144020196A11DB11D8093410212
:1009A00090934202A0934302B0934402BF91AF914F
:1009B0009F918F913F912F910F900FBE0F901F909D
:1009C000189526E8230F0296A11DB11DD2CF1F92C4
:1009D0000F920FB60F9211242F933F934F935F9373
:1009E0006F937F938F939F93AF93BF93EF93FF93F7
:1009F00085E492E00E945202FF91EF91BF91AF9186
:100A00009F918F917F916F915F914F913F912F9126
:100A10000F900FBE0F901F9018951F920F920FB658
:100A20000F9211242F938F939F93EF93FF93E09155
:100A30005502F09156028081E0915B02F0915C02D8
:100A400082FD1BC0908180915E028F5F8F73209129
:100A50005F02821741F0E0915E02F0E0EB5BFD4F38
:100A6000958F80935E02FF91EF919F918F912F91CF
:100A70000F900FBE0F901F9018958081F4CF1F929A
:100A80000F920FB60F9211242F933F934F935F93C2
:100A90006F937F938F939F93AF93BF93EF93FF9346
:100AA0008091B900887F803609F44AC0F0F5883219
:100AB00009F4A7C018F5803109F49BC0B8F4882365
:100AC00009F4F9C0883009F494C0FF91EF91BF9107
:100AD000AF919F918F917F916F915F914F913F91D6
:100AE0002F910F900FBE0F901F901895883109F429
:100AF00088C0803251F78093030214C0803409F417
:100B00009DC040F48033B9F38833F9F68093030233
:100B100085ECB0C0803509F485C0883509F496C0ED
:100B2000883499F60E944604D0CF883909F48CC0E5
:100B300038F5883729F050F4883611F0803729F6D7
:100B400083E0809304021092020257C0883809F4AF
:100B50007BC0803919F0803809F0B7CF809102024C
:100B6000803208F071C0E091020281E08E0F809324
:100B700002028091BB00F0E0EE51FE4F80833DC049
:100B8000803B39F0E0F4803A09F479C0883A09F002
:100B90009CCF84E0809304021092E1011092E00166
:100BA000E0912C02F0912D0209958091E0018111D4
:100BB0000FC081E08093E0011092C00109C0803C29
:100BC00009F4A6CF883C09F4A3CF883B09F07DCF78
:100BD000E091E10181E08E0F8093E101F0E0E054CB
:100BE000FE4F80818093BB009091E1018091E001F4
:100BF00029C0809129028093BB0085EC8093BC00C2
:100C000064CF9091280280912702981758F5E091BF
:100C1000280281E08E0F80932802F0E0E95FFD4F0B
:100C20008081E9CFE091280281E08E0F8093280235
:100C30008091BB00F0E0E95FFD4F80839091280236
:100C4000809127029817C8F285E8D8CFE091280252
:100C500081E08E0F809328028091BB00F0E0E95F75
:100C6000FD4F80838091060281115CCF81E08093EB
:100C7000050284EA8093BC001092040226CF85EC22
:100C80008093BC001092040280910202803230F402
:100C9000E0910202F0E0EE51FE4F108260910202FC
:100CA00070E0E0912A02F0912B0282EE91E009952A
:100CB000109202020ACF1092030234CFE5E4F2E070
:100CC0001382128288EE93E0A0E0B0E084839583E3
:100CD000A683B78325E031E03183208325EC30E023
:100CE0003587248724EC30E03787268720EC30E0F6
:100CF000318B208B21EC30E0338B228B22EC30E0E7
:100D0000358B248B26EC30E0378B268B118E128EA0
:100D1000138E148EE2EEF2E01382128284839583A6
:100D2000A683B78387E191E09183808308957894C7
:100D300084B5826084BD84B5816084BD85B58260E0
:100D400085BD85B5816085BD80916E008160809391
:100D50006E001092810080918100826080938100FA
:100D6000809181008160809381008091800081600A
:100D7000809380008091B10084608093B100809165
:100D8000B00081608093B00080917A00846080938D
:100D90007A0080917A00826080937A0080917A0054
:100DA000816080937A0080917A00806880937A00D5
:100DB0001092C1000E948C000E948C0060E083E0D1
:100DC0000E940B0161E084E00E940B0161E085E07C
:100DD0000E940B0161E086E00E940B0160E084E16B
:100DE0000E940B0162E088E00E940B011092310228
:100DF0001092300210922F0210922E020E940803CD
:100E00008EE991E090932D0280932C028AEA91E082
:100E100090932B0280932A0288E08093BA0060E0CE
:100E200083E10E94DD0060E082E10E94DD0088E055
:100E300094E090933302809332028AED93E0909392
:100E400035028093340261E08DE00E94DD0064EFA2
:100E500071E080E090E00E946C0160E08DE00E9413
:100E6000DD0064E670E080E090E00E946C01C4E088
:100E7000D0E061E08DE00E94DD0064E670E080E09B
:100E800090E00E946C0160E08DE00E94DD0064E66D
:100E900070E080E090E00E946C01219751F78EE5B0
:100EA00091E00E94820360E084E00E94DD0060E047
:100EB00085E00E94DD0060E086E00E94DD0061E0E8
:100EC00084E00E94DD0061E086E00E940B0161E0A9
:100ED00086E00E94DD0006EB10E092EAE92E90E049
:100EE000F92E2EE8C22E20E0D22EC0E0D0E0AA24B7
:100EF000A39432E0932E80913B028823A1F12FB777
:100F0000F89480913D0290913E02A0913F02B091F1
:100F100040022FBF40913702509138026091390250
:100F200070913A02841B950BA60BB70B893893413D
:100F3000A105B10540F0909236020E946F0388E748
:100F400091E00E948203F8018491F701B490F601C8
:100F50008490811013C0A09236020E946F0387E82C
:100F600091E00E948203209709F4C5CF0E943E02BF
:100F7000882309F4C0CF0E940000BDCF81110E94D8
:100F8000B400E82DF0E0EE0FFF1FE859FF4FA591E8
:100F9000B4918C91B822F9F2E6CFA1E21A2EAA1BE5
:100FA000BB1BFD010DC0AA1FBB1FEE1FFF1FA21719
:100FB000B307E407F50720F0A21BB30BE40BF50B16
:100FC000661F771F881F991F1A9469F7609570959F
:100FD000809590959B01AC01BD01CF010895EE0F66
:0E0FE000FF1F0590F491E02D0994F894FFCFC7
:100FEE00FF000000007402D4010102C1023202109F
:100FFE00022402000000005B0350036C0326034929
:10100E0003360327030D0A004745543A2000457264
:10101E00726F72207265717565737465642C2072BF
:10102E00657475726E65643A200057726F6E672034
:10103E0072657175657374005345543A200043729E
:10104E00757368657220626F61726420696E69746F
:10105E0069616C69736564004572726F723A2074CF
:10106E00696D656F7574004572726F723A20636FA9
:0A107E00766572206F70656E000049
:00000001FF
