:100000000C9462000C948A000C948A000C948A0070
:100010000C948A000C948A000C948A000C948A0038
:100020000C948A000C948A000C948A000C948A0028
:100030000C948A000C948A000C948A000C948A0018
:100040000C9427060C948A000C948A000C948A0065
:100050000C948A000C948A000C948A000C948A00F8
:100060000C9471060C948A00000000002400270004
:100070002A0000000000250028002B0000000000DE
:1000800023002600290004040404040404040202DA
:100090000202020203030303030301020408102007
:1000A0004080010204081020010204081020000012
:1000B0000008000201000003040700000000000027
:1000C0000000900711241FBECFEFD8E0DEBFCDBFE8
:1000D00022E0A2E2B1E001C01D92A232B207E1F734
:1000E00011E0A0E0B1E0E4E2FBE102C005900D9276
:1000F000A232B107D9F710E0C2E6D0E004C02197E0
:10010000FE010E944B0BC136D107C9F70E94BB0705
:100110000C94900D0C940000DC011A96ED91FC916A
:100120001B978D919C9111979C01220F331F280FD3
:10013000391F2E0F3F1FE217F30728F45083418326
:1001400012823396F8CF12968C911297806812968D
:100150008C930895833081F028F4813099F08230B7
:10016000A9F008958730A9F08830C9F08430B1F43F
:10017000809180008F7D03C0809180008F77809375
:100180008000089584B58F7784BD089584B58F7DF0
:10019000FBCF8091B0008F778093B000089580915D
:1001A000B0008F7DF9CFCF93DF93282F30E0F90196
:1001B000E255FF4F8491F901E656FF4FD491F901C2
:1001C000EA57FF4FC491CC23A1F081110E94AA00ED
:1001D000EC2FF0E0EE0FFF1FE458FF4FA591B49114
:1001E000EC91ED2381E090E009F480E0DF91CF9184
:1001F000089580E090E0FACF1F93CF93DF93282FEC
:1002000030E0F901E255FF4F8491F901E656FF4FC6
:10021000D491F901EA57FF4FC491CC23A9F0162FCE
:1002200081110E94AA00EC2FF0E0EE0FFF1FEE58A4
:10023000FF4FA591B4918FB7F894EC91111108C0BC
:10024000D095DE23DC938FBFDF91CF911F9108956E
:10025000DE2BF8CFCF93DF9390E0FC01E656FF4F03
:1002600024918A579F4FFC0184918823D1F090E01C
:10027000880F991FFC01E859FF4FA591B491FC012B
:10028000EE58FF4FC591D491623071F49FB7F89446
:100290003C91822F809583238C93E8812E2B288399
:1002A0009FBFDF91CF9108958FB7F894EC912E2BDB
:1002B0002C938FBFF6CF3FB7F8948091ED019091CA
:1002C000EE01A091EF01B091F00126B5A89B05C009
:1002D0002F3F19F00196A11DB11D3FBFBA2FA92FC5
:1002E000982F8827BC01CD01620F711D811D911DC2
:1002F00042E0660F771F881F991F4A95D1F708952E
:100300008F929F92AF92BF92CF92DF92EF92FF9225
:100310006B017C010E945B014B015C01C114D104A3
:10032000E104F104B9F00E945B01681979098A09B6
:100330009B09683E73408105910580F321E0C21A54
:10034000D108E108F10888EE880E83E0981EA11C10
:10035000B11CE4CFFF90EF90DF90CF90BF90AF90B3
:100360009F908F900895E091BD01F091BE0130976C
:1003700029F01092B8011092B70109940895CF9313
:10038000DF93AC01E091BB01F091BC013097F1F03B
:100390009091BA018091B9019817C0F090E0292F8F
:1003A00030E02617370754F4D901AD5DBE4F240F56
:1003B000351FE90128812C939F5FF1CF1092BA017C
:1003C0006093B901CB01DF91CF910994DF91CF9177
:1003D000089520916901260F3327331F21323105FB
:1003E000ECF420918D01FC0190E080E0243069F074
:1003F00082E00895A09169012191AC01475B5E4FB5
:10040000A40FB52FB11D2C930196861798F38091F8
:100410006901680F6093690180E0089581E00895A3
:1004200010928D0181E080938F0110928E0161E026
:1004300082E10E94FC0061E083E10E94FC00E9EBA4
:10044000F0E080818E7F808380818D7F808388E44F
:100450008093B80085E48093BC0008950895E091EE
:10046000BA018091B901E81730F4F0E0ED5DFE4F7C
:10047000808190E008958FEF9FEF08959091BA01E9
:100480008091B9012FEF3FEF981748F4E92FF0E082
:10049000ED5DFE4F208130E09F5F9093BA01C9016E
:1004A00008958091B9019091BA01891B990B089523
:1004B000CF93DF93CB01EA01642F0E94E901CE01C3
:1004C000DF91CF910895CF93DF931F92CDB7DEB721
:1004D000698361E0CE0101960E94E90181E090E02C
:1004E0000F90DF91CF91089590E080E008950895F6
:1004F0001F93CF93DF93CDB7DEB728970FB6F8944D
:10050000DEBF0FBECDBF809100018230F1F158F403
:100510008130E1F060E085EF91E00E9463028FEFAF
:100520008093000109C08B30D1F08E3F99F761E0D4
:1005300085EF91E00E94630228960FB6F894DEBF23
:100540000FBECDBFDF91CF911F9108956091BF0184
:1005500085EF91E00E9463021092BF01EDCF809180
:10056000E8019091E901A091EA01B091EB018D833E
:100570009E83AF83B88744E050E0BE016B5F7F4F3E
:1005800085EF91E00E945802D7CF8091C0019091F1
:10059000C101A091C201B091C30189839A83AB8349
:1005A000BC8344E050E0BE016F5F7F4F85EF91E078
:1005B0000E94580210912201612F81E00E94FC00EC
:1005C00081E0182710932201B7CFCF92DF92EF92EC
:1005D000FF920F931F93CF93DF9300D000D000D0F2
:1005E0001F92CDB7DEB78C01DC0112968C9187FF8C
:1005F00060C00E945B01F801C680D780E084F1846E
:100600006C197D098E099F096C3271408105910535
:1006100080F3F894D8011E968C911E971C96ED914C
:10062000FC911D9713964D915C9114971A962D91FC
:100630003C915A8349837901BFEFEB1AFB0AD90138
:100640009C919F839081982B9E8390818095892394
:100650008D838D818C8388E08B835E816D814F815A
:100660003B812C8189819A81D701508347FD252FB9
:100670003A952083262F39F0441F00C00000608384
:10068000000000C0F2CF38E04D9160830000019778
:1006900061F74F833B832C839A83898378940E94EC
:1006A0005B01F801668377838087918782818F77EA
:1006B000828327960FB6F894DEBF0FBECDBFDF91C1
:1006C000CF911F910F91FF90EF90DF90CF90089501
:1006D0004F925F926F927F928F929F92AF92BF9252
:1006E000CF92DF92EF92FF920F931F93CF93DF93FE
:1006F0009FB7F894C090F101D090F201E090F3011F
:10070000F090F4019FBF2091030230910402223047
:10071000310509F4FAC0CCF42115310509F4F0C013
:100720002130310509F4CAC0DF91CF911F910F919B
:10073000FF90EF90DF90CF90BF90AF909F908F9001
:100740007F906F905F904F9008952430310509F4A9
:1007500081C10CF41DC12530310531F7811119C05B
:1007600080910B0290910C02A0910D02B0910E02AB
:10077000C296A11DB11D8C159D05AE05BF05A0F645
:100780008091090290910A02019690930A02809347
:1007900009028091090290910A020C9724F01092AC
:1007A0000A02109209026091090270910A02072E52
:1007B000000C880B990B0E94060A2B013C01C09289
:1007C0000B02D0920C02E0920D02F0920E02D0E0E9
:1007D000C0E09CE0C92ED12CCE01B6010E94230BB3
:1007E000BC01990F880B990B0E94060AA301920184
:1007F0000E94510B4B015C0120E030E0A9010E94F6
:10080000660C18160CF07DC1C501B4010E94300CB5
:100810006630710524F0C601861B970BBC01072EBC
:10082000000C880B990B0E94060A20E030E040EC97
:1008300050E40E94BE0B9B01AC0160E070E080E8D8
:100840009FE30E94510B4B015C0120E030E0A901C5
:100850000E94660C18161CF0812C912C5401E0901B
:100860000F02F0901002F70180819181C817D9071B
:10087000F8F48E01000F111F0C0F1D1F8285938548
:10088000080F191F20E030E04FE753E4C501B40121
:100890000E94650AA50194010E94650A0E94370C16
:1008A000F801608311821282F7018281806882835D
:1008B0002196C831D10509F08FCF0CC04FEF8823A6
:1008C00009F432CF50E060E080910F029091100265
:1008D0000E948C0080910F0290911002DF91CF91C5
:1008E0001F910F91FF90EF90DF90CF90BF90AF904E
:1008F0009F908F907F906F905F904F900C94E50247
:10090000882309F411CF40E0DDCF811112C080911E
:10091000050290910602A0910702B0910802885149
:100920009C4FAF4FBF4FC816D906EA06FB0608F426
:10093000FBCE80910F02909110022091090230911C
:100940000A0244E65FEF2130310511F040E050E04B
:1009500060E00E948C0080910F02909110020E9432
:10096000E50281E090E02091090230910A02232BF8
:1009700011F090E080E090930A0280930902C09207
:100980000502D0920602E0920702F0920802CCCE55
:1009900081111BC080910B0290910C02A0910D025D
:1009A000B0910E028C599F4FAF4FBF4F8C159D05D4
:1009B000AE05BF0508F0B8CE8091090290910A02F9
:1009C000019690930A028093090280910902909106
:1009D0000A02039724F010920A0210920902C092B0
:1009E0000B02D0920C02E0920D02F0920E0230E067
:1009F00020E003E010E0C0910F02D0911002888146
:100A000099812817390700F5F901EE0FFF1FE20F52
:100A1000F31F8A859B85E80FF91F80910902909149
:100A20000A02A901481B590BCA01B8010E94230BF5
:100A3000AC0191E0452B09F090E0919590831182F3
:100A400012828A8180688A832F5F3F4F2831310567
:100A500091F640CF81111AC080910B0290910C0247
:100A6000A0910D02B0910E02C296A11DB11D8C1570
:100A70009D05AE05BF0508F057CE80910902909103
:100A80000A02019690930A0280930902809109025A
:100A900090910A02C29724F010920A021092090261
:100AA000C0920B02D0920C02E0920D02F0920E0264
:100AB0006091090270910A02660F771F072E000CE1
:100AC000880B990B0E94060A20E030E048E452E4CB
:100AD0000E94BE0B20E030E040E85FE30E94510B33
:100AE0006B017C0120E030E04FE753E40E94650A8F
:100AF000A70196010E94650A0E94370C562F40E01C
:100B0000E2CEC501B401905881CECF93DF93181681
:100B10001906ECF4EC0185EF91E00E943E0280930F
:100B200000018330A1F4229791F485EF91E00E94B7
:100B30003E0210920A021092090299279093040231
:100B40008093030281E0DF91CF910C946803DF91E1
:100B5000CF910895FF920F931F93CF93DF93F82EB9
:100B6000062FC7E0D0E010E061E0802F0E94FC007B
:100B70008F2D0E94D3000C2E01C0880F0A94EAF733
:100B8000182B60E0802F0E94FC00219768F7812FCE
:100B9000DF91CF911F910F91FF900895CF93DF9335
:100BA00085ED8093BC008091450190914601A09114
:100BB0004701B09148010796A11DB11D23E0B695EC
:100BC000A795979587952A95D1F72091BC0024FD8C
:100BD00003C010928D0136C04091450150914601ED
:100BE0006091470170914801452B462B472B69F3D3
:100BF0000097A105B10541F025E32A95F1F7000022
:100C00000197A109B109E1CF8091440191E090934E
:100C100043018823B9F0C091B800D091BA00809107
:100C2000BC008A7B8093BC0060E082E10E94FC00F3
:100C300060E083E10E94FC000E941002D093BA00A1
:100C4000C093B800DF91CF9108950C94070D1F92C7
:100C50000F920FB60F9211242F933F938F939F9370
:100C6000AF93BF938091F1019091F201A091F301B4
:100C7000B091F4013091EC0123E0230F2D3758F5AA
:100C80000196A11DB11D2093EC018093F101909379
:100C9000F201A093F301B093F4018091ED019091E2
:100CA000EE01A091EF01B091F0010196A11DB11DDF
:100CB0008093ED019093EE01A093EF01B093F001CA
:100CC000BF91AF919F918F913F912F910F900FBE48
:100CD0000F901F90189526E8230F0296A11DB11DB5
:100CE000D2CF1F920F920FB60F9211242F933F93E2
:100CF0004F935F936F937F938F939F93AF93BF9324
:100D0000EF93FF938091B900887F803609F44AC041
:100D1000F0F5883209F4A7C018F5803109F49BC0BA
:100D2000B8F4882309F4F9C0883009F494C0FF911D
:100D3000EF91BF91AF919F918F917F916F915F9153
:100D40004F913F912F910F900FBE0F901F901895CC
:100D5000883109F488C0803251F780938C0114C027
:100D6000803409F49DC040F48033B9F38833F9F638
:100D700080938C0185ECB0C0803509F485C088353E
:100D800009F496C0883499F60E94CE05D0CF8839F0
:100D900009F48CC038F5883729F050F4883611F002
:100DA000803729F683E080938D0110928B0157C024
:100DB000883809F47BC0803919F0803809F0B7CF42
:100DC00080918B01803208F071C0E0918B0181E04D
:100DD0008E0F80938B018091BB00F0E0E559FE4FB0
:100DE00080833DC0803B39F0E0F4803A09F479C05B
:100DF000883A09F09CCF84E080938D0110926A01BB
:100E000010926901E091B501F091B60109958091C8
:100E1000690181110FC081E080936901109249013D
:100E200009C0803C09F4A6CF883C09F4A3CF883BD5
:100E300009F07DCFE0916A0181E08E0F80936A0115
:100E4000F0E0E75BFE4F80818093BB0090916A01E8
:100E50008091690129C08091B2018093BB0085EC2B
:100E60008093BC0064CF9091B1018091B00198173C
:100E700058F5E091B10181E08E0F8093B101F0E06F
:100E8000E057FE4F8081E9CFE091B10181E08E0F04
:100E90008093B1018091BB00F0E0E057FE4F80836A
:100EA0009091B1018091B0019817C8F285E8D8CF30
:100EB000E091B10181E08E0F8093B1018091BB0080
:100EC000F0E0E057FE4F808380918F0181115CCF6D
:100ED00081E080938E0184EA8093BC0010928D01A2
:100EE00026CF85EC8093BC0010928D0180918B0100
:100EF000803230F4E0918B01F0E0E559FE4F108232
:100F000060918B0170E0E091B301F091B4018BE648
:100F100091E0099510928B010ACF10928C0134CF89
:100F2000E5EFF1E01382128288EE93E0A0E0B0E0FA
:100F300084839583A683B7838BE091E0918380833C
:100F4000E1E1F2E08DE191E09183808315821682E8
:100F50001782108680E090E0A0E8BFE38187928747
:100F6000A387B487E1E0F2E08EE090E09183808394
:100F7000138212820895CF93DF9300D000D0CDB7B3
:100F8000DEB7789484B5826084BD84B5816084BD09
:100F900085B5826085BD85B5816085BD80916E0017
:100FA000816080936E001092810080918100826048
:100FB0008093810080918100816080938100809185
:100FC00080008160809380008091B1008460809374
:100FD000B1008091B00081608093B00080917A0070
:100FE000846080937A0080917A00826080937A0096
:100FF00080917A00816080937A0080917A00806885
:1010000080937A001092C10061E081E00E942A0181
:1010100081E18093130280E18093140261E081E119
:101020000E942A0162E0809114020E942A0181E05C
:10103000809315028BE89FEEAAECBCE38093D0016D
:101040009093D101A093D201B093D3014BE85FEE0E
:101050006AE47DE34093D4015093D5016093D601B7
:101060007093D7018093D8019093D901A093DA01AE
:10107000B093DB0181EB97E0A1ECBFE38093C80163
:101080009093C901A093CA01B093CB0184E59DE67A
:10109000ABE1BFEB8093CC019093CD01A093CE0147
:1010A000B093CF011092BA011092B9011092B80119
:1010B0001092B7010E94100283EB91E09093B60169
:1010C0008093B5018FEB91E09093B4018093B301CD
:1010D00082E08093BA0060E083E10E94FC0060E05F
:1010E00082E10E94FC0085E895E09093BC0180932A
:1010F000BB0188E792E09093BE018093BD0161E05F
:1011000081E00E94FC0064EF71E080E090E00E94CA
:10111000800160E081E00E94FC0064E670E080E015
:1011200090E00E94800161E081E00E94FC0064E6A2
:1011300070E080E090E00E94800160E081E00E9429
:10114000FC0064E670E080E090E00E9480018FE0A7
:1011500090E00E946B0C9A838983E0900102F090EA
:10116000020288E190E0A981BA8111969C938E9346
:1011700012961C92129788E490E014969C938E939A
:1011800013971596EC9215971D961C921E921C971C
:101190001E961C9261E08E2D0E942A01E981FA813F
:1011A000838194810E946B0CA981BA811B969C93C8
:1011B0008E931A97C7019927FC01EA57FF4FE491D4
:1011C000F0E0EE0FFF1FEE58FF4F259134911D9672
:1011D0003C932E931C9786569F4FFC0184911E963C
:1011E0008C931E97B0931002A0930F0210920A02E4
:1011F00010920902109204021092030281E00E94F0
:10120000680311E0809114020E94D300892B09F039
:10121000F0C0809114020E94D300892B31F060E06D
:1012200070E0CB010E948001F4CFCFB6F8946091BA
:101230001302809114020E94AA05F82E60911302F5
:10124000809114020E94AA05E82E609113028091F9
:1012500014020E94AA05D82EB12CA12C809115024F
:101260008A151B0479F070F061E0809113020E94EE
:10127000FC0060E0809113020E94FC00FFEFAF1AB7
:10128000BF0AECCFCFBE6E2D70E090E080E0982FCB
:10129000872F762F66278F296D29FF0CFF08CF2C0B
:1012A000D12CF12CE12CFC2CEE24DD24CC246C2957
:1012B0007D298E299F290E94060A6B017C01C0921C
:1012C000E801D092E901E092EA01F092EB0180900E
:1012D000E0019090E101A090E201B090E3018091E3
:1012E000E4019091E501A091E601B091E7018983C5
:1012F0009A83AB83BC832091C8013091C90140918E
:10130000CA015091CB01C501B4010E94650AA70131
:1013100096010E94520B6B017C012091CC0130910F
:10132000CD014091CE015091CF0169817A818B81AD
:101330009C810E94650A9B01AC01C701B6010E9415
:10134000520B6B017C01C092DC01D092DD01E09276
:10135000DE01F092DF012091D0013091D101409166
:10136000D2015091D3010E94650A2B013C012091CA
:10137000D4013091D5014091D6015091D701C501DA
:10138000B4010E94650A9B01AC01C301B2010E9435
:10139000520B2B013C012091D8013091D901409191
:1013A000DA015091DB0169817A818B819C810E94F5
:1013B000650A9B01AC01C301B2010E94520B8092ED
:1013C000E4019092E501A092E601B092E701C0929B
:1013D000E001D092E101E092E201F092E30160933A
:1013E000C0017093C1018093C2019093C301109317
:1013F000BF0180E00E946803A0E0B0E0AB2B09F4DD
:1014000001CF0E940000FECEE89409C097FB3EF495
:1014100090958095709561957F4F8F4F9F4F992341
:10142000A9F0F92F96E9BB279395F69587957795BF
:101430006795B795F111F8CFFAF4BB0F11F460FF7F
:101440001BC06F5F7F4F8F4F9F4F16C0882311F0D7
:1014500096E911C0772321F09EE8872F762F05C0EB
:10146000662371F096E8862F70E060E02AF09A9586
:10147000660F771F881FDAF7880F9695879597F97B
:101480000895990F0008550FAA0BE0E8FEEF161615
:101490001706E807F907C0F012161306E407F50768
:1014A00098F0621B730B840B950B39F40A2661F0DC
:1014B000232B242B252B21F408950A2609F4A1407F
:1014C000A6958FEF811D811D08950E94780A0C94C6
:1014D000E90A0E94DB0A38F00E94E20A20F0952314
:1014E00011F00C94D20A0C94D80A11240C941D0B00
:1014F0000E94FA0A70F3959FC1F3950F50E0551FB3
:10150000629FF001729FBB27F00DB11D639FAA2758
:10151000F00DB11DAA1F649F6627B00DA11D661FA7
:10152000829F2227B00DA11D621F739FB00DA11DC8
:10153000621F839FA00D611D221F749F3327A00D82
:10154000611D231F849F600D211D822F762F6A2F1E
:1015500011249F5750409AF0F1F088234AF0EE0F83
:10156000FF1FBB1F661F771F881F91505040A9F7B0
:101570009E3F510580F00C94D20A0C941D0B5F3FE6
:10158000E4F3983ED4F3869577956795B795F795EC
:10159000E7959F5FC1F7FE2B880F911D9695879564
:1015A00097F9089597F99F6780E870E060E00895E3
:1015B0009FEF80EC089500240A941616170618066B
:1015C0000906089500240A94121613061406050647
:1015D0000895092E0394000C11F4882352F0BB0FD8
:1015E00040F4BF2B11F460FF04C06F5F7F4F8F4F3B
:1015F0009F4F089557FD9058440F551F59F05F3F76
:1016000071F04795880F97FB991F61F09F3F79F024
:1016100087950895121613061406551FF2CF4695A6
:10162000F1DF08C0161617061806991FF1CF869528
:101630007105610508940895E894BB27662777270C
:10164000CB0197F9089597FB072E16F4009407D065
:1016500077FD09D00E94370B07FC05D03EF490952A
:1016600081959F4F0895709561957F4F0895AA1BAE
:10167000BB1B51E107C0AA1FBB1FA617B70710F07D
:10168000A61BB70B881F991F5A95A9F780959095AF
:10169000BC01CD010895EE0FFF1F0590F491E02DE0
:1016A00009945058BB27AA270E94690B0C94E90A99
:1016B0000E94DB0A38F00E94E20A20F039F49F3FD2
:1016C00019F426F40C94D80A0EF4E095E7FB0C9478
:1016D000D20AE92F0E94FA0A58F3BA176207730771
:1016E0008407950720F079F4A6F50C941C0B0EF4F2
:1016F000E0950B2EBA2FA02D0B01B90190010C0122
:10170000CA01A0011124FF27591B99F0593F50F439
:10171000503E68F11A16F040A22F232F342F442791
:10172000585FF3CF469537952795A795F040539589
:10173000C9F77EF41F16BA0B620B730B840BBAF059
:101740009150A1F0FF0FBB1F661F771F881FC2F7C4
:101750000EC0BA0F621F731F841F48F487957795D8
:101760006795B795F7959E3F08F0B0CF9395880F92
:1017700008F09927EE0F9795879508950E94D20B50
:101780000C94E90A0E94E20A58F00E94DB0A40F039
:1017900029F45F3F29F00C94D20A51110C941D0BCF
:1017A0000C94D80A0E94FA0A68F39923B1F35523DE
:1017B00091F3951B550BBB27AA2762177307840764
:1017C00038F09F5F5F4F220F331F441FAA1FA9F3FA
:1017D00035D00E2E3AF0E0E832D091505040E695E8
:1017E000001CCAF72BD0FE2F29D0660F771F881F49
:1017F000BB1F261737074807AB07B0E809F0BB0B3C
:10180000802DBF01FF2793585F4F3AF09E3F51054F
:1018100078F00C94D20A0C941D0B5F3FE4F3983ED1
:10182000D4F3869577956795B795F7959F5FC9F738
:10183000880F911D9695879597F90895E1E0660FB9
:10184000771F881FBB1F621773078407BA0720F032
:10185000621B730B840BBA0BEE1F88F7E09508959B
:101860000E94370C6894B1110C941D0B08950E94CE
:10187000020B88F09F5798F0B92F9927B751B0F015
:10188000E1F0660F771F881F991F1AF0BA95C9F704
:1018900014C0B13091F00E941C0BB1E008950C947B
:1018A0001C0B672F782F8827B85F39F0B93FCCF32E
:1018B000869577956795B395D9F73EF49095809581
:1018C000709561957F4F8F4F9F4F08950E94410AF9
:1018D00008F48FEF08950F931F93CF93DF93823017
:1018E000910510F482E090E0E0912002F091210255
:1018F00030E020E0B0E0A0E0309799F42115310508
:1019000009F44AC0281B390B24303105D8F58A81E7
:101910009B816115710589F1FB0193838283FE012F
:1019200011C0408151810281138148175907E0F0AD
:101930004817590799F4109761F012960C93129773
:1019400013961C933296CF01DF91CF911F910F9187
:1019500008950093200210932102F4CF2115310540
:1019600051F04217530738F0A901DB019A01BD017C
:10197000DF01F801C1CFEF01F9CF909321028093ED
:101980002002CDCFFE01E20FF31F819391932250ED
:10199000310939832883D7CF20911E0230911F024D
:1019A000232B41F4209103013091040130931F0255
:1019B00020931E0220910101309102012115310571
:1019C00041F42DB73EB74091050150910601241B0B
:1019D000350BE0911E02F0911F02E217F307A0F40D
:1019E0002E1B3F0B2817390778F0AC014E5F5F4F75
:1019F0002417350748F04E0F5F1F50931F02409386
:101A00001E02819391939FCFF0E0E0E09CCFCF93B3
:101A1000DF930097E9F0FC01329713821282A091C4
:101A20002002B0912102ED0130E020E01097A1F4F6
:101A300020813181820F931F20911E0230911F025D
:101A40002817390709F061C0F0931F02E0931E02C6
:101A5000DF91CF910895EA01CE17DF07E8F54A81BB
:101A60005B819E0141155105B1F7E901FB83EA83D2
:101A700049915991C40FD51FEC17FD0761F480817E
:101A800091810296840F951FE90199838883828151
:101A900093819B838A83F0E0E0E012968D919C9184
:101AA00013970097B9F52D913C911197CD010296AE
:101AB000820F931F20911E0230911F0228173907B1
:101AC00039F6309751F51092210210922002B0930E
:101AD0001F02A0931E02BCCFD383C28340815181D9
:101AE000840F951FC817D90761F44E5F5F4F888137
:101AF0009981480F591F518340838A819B81938329
:101B000082832115310509F0B0CFF0932102E093D3
:101B100020029ECFFD01DC01C0CF13821282D7CFFD
:041B2000F894FFCF67
:101B2400FF000022028000000000006302580274DB
:101B3400022E0251023E022F02000000007702250D
:021B4400060099
:00000001FF
