:100000000C943E010C9466010C9466010C946601FC
:100010000C9466010C9466010C9466010C946601C4
:100020000C9466010C9466010C9466010C946601B4
:100030000C9466010C9466010C9466010C946601A4
:100040000C94CC0C0C9466010C9466010C94660123
:100050000C9466010C9466010C9466010C94660184
:100060000C94340D0C946601400E440E440E440E64
:10007000440E440E440E440E540D440E440E440EE1
:10008000440E440E440E440E540D440E440E440ED1
:10009000440E440E440E440E5C0D440E440E440EB9
:1000A000440E440E440E440E820D440E440E440E83
:1000B000440E440E440E440E5C0D440E440E440E99
:1000C000440E440E440E440E880D440E440E440E5D
:1000D000440E440E440E440E8E0D440E440E440E47
:1000E000440E440E440E440EA00D440E440E440E25
:1000F000440E440E440E440ECA0D440E440E440EEB
:10010000440E440E440E440E940D440E440E440E10
:10011000440E440E440E440EAE0D440E440E440EE6
:10012000440E440E440E440ECD0D440E440E440EB7
:10013000440E440E440E440ECD0D440E440E440EA7
:10014000440E440E440E440ECD0D440E440E440E97
:10015000440E440E440E440ECD0D440E440E440E87
:10016000440E440E440E440ED60D440E440E440E6E
:10017000440E440E440E440E070E440E440E440E2C
:10018000440E440E440E440ED60D440E440E440E4E
:10019000440E440E440E440E070E440E440E440E0C
:1001A000440E440E440E440EEE0D440E440E440E16
:1001B000440E440E440E440E0B0E440E440E440EE8
:1001C000440E440E440E440E0B0E440E440E440ED8
:1001D000440E440E440E440E200E440E440E440EB3
:1001E000440E440E440E440E3A0E440E440E440E89
:1001F000440E440E440E440E3A0E0664EC1B3C04BE
:10020000BC163E3BE5B93CC93C37C29E5A3D66042C
:1002100098083EEA69AAAA3E000000803F0000005C
:100220000000240027002A0000000000250028000C
:100230002B00000000002300260029000404040411
:100240000404040402020202020203030303030380
:10025000010204081020408001020408102001025D
:100260000408102000000008000201000003040739
:100270000000000000000000BF0C550E11241FBE3E
:10028000CFEFD8E0DEBFCDBF22E0A0E4B1E001C0F7
:100290001D92A034B207E1F711E0A0E0B1E0EEE278
:1002A000F5E202C005900D92A034B107D9F711E034
:1002B000CDE3D1E004C02197FE010E948F0FCC3323
:1002C000D107C9F70E94270D0C948A120C940000E4
:1002D000833069F028F48130B1F08230C1F00895A4
:1002E0008730C9F08830E9F0843001F506C0E0E8D5
:1002F000F0E080818F7780830895E0E8F0E08081EE
:100300008F7D8083089584B58F7784BD089584B5EB
:100310008F7D84BD0895E0EBF0E080818F7780834E
:100320000895E0EBF0E080818F7D80830895CF9386
:10033000DF93282F30E0F901EC59FD4F8491F9014A
:10034000E05BFD4FD491F901E45CFD4FC491CC23F7
:1003500089F081110E946801EC2FF0E0EE0FFF1F81
:10036000EE5CFD4FA591B491EC91ED2331F081E06D
:1003700090E005C080E090E002C080E090E0DF9176
:10038000CF9108951F93CF93DF93282F30E0F90189
:10039000EC59FD4F8491F901E05BFD4F1491F90197
:1003A000E45CFD4FC491CC23D1F0D62F81110E9483
:1003B0006801EC2FF0E0EE0FFF1FE85DFD4FA59107
:1003C000B4918FB7F894D11106C09C91E12FE095BC
:1003D000E923EC9303C0EC91E12BEC938FBFDF9109
:1003E000CF911F910895FF920F931F93CF93DF93A7
:1003F000F82E162F042FC0E0D0E023C061E0812F3B
:100400000E94C20101110BC08F2D0E9497010C2E7A
:1004100002C0880F991F0A94E2F7D82B0DC08F2DC8
:100420000E94970127E030E02C1B310902C0880FA1
:10043000991F2A95E2F7D82B60E0812F0E94C20114
:10044000CF5FC830D8F28D2FDF91CF911F910F91E0
:10045000FF900895CF93DF9390E0FC01E05BFD4FA8
:100460002491FC01E45CFD4F8491882379F190E0B4
:10047000880F991FFC01E25EFD4FA591B491FC012C
:10048000E85DFD4FC591D49161110CC09FB7F89400
:100490008C91E22FE0958E238C932881E223E883D0
:1004A0009FBF14C0623061F49FB7F8948C91322FD3
:1004B000309583238C93E881E22BE8839FBF06C0AD
:1004C0008FB7F894EC91E22BEC938FBFDF91CF9133
:1004D0000895789484B5826084BD84B5816084BDBC
:1004E00085B5826085BD85B5816085BDEEE6F0E0AD
:1004F000808181608083E1E8F0E010828081826009
:100500008083808181608083E0E8F0E08081816089
:100510008083E1EBF0E0808184608083E0EBF0E0B9
:10052000808181608083EAE7F0E08081846080835D
:100530008081826080838081816080838081806807
:1005400080831092C10008953FB7F89480913802DB
:1005500090913902A0913A02B0913B0226B5A89B36
:1005600005C02F3F19F00196A11DB11D3FBFBA2F45
:10057000A92F982F8827820F911DA11DB11DBC01A5
:10058000CD01660F771F881F991F660F771F881F81
:10059000991F08952FB7F894609134027091350235
:1005A00080913602909137022FBF089508950895E3
:1005B0008F929F92AF92BF92CF92DF92EF92FF9273
:1005C0006B017C010E94A4024B015C011DC021E073
:1005D000C21AD108E108F10888EE880E83E0981E5F
:1005E000A11CB11CC114D104E104F10469F00E9402
:1005F000A402DC01CB0188199909AA09BB09883E2C
:100600009340A105B10518F7C114D104E104F10428
:1006100049F7FF90EF90DF90CF90BF90AF909F9001
:100620008F900895CF92DF92EF92FF920F931F93D6
:10063000CF93DF938C01DB01C0E0D0E07A0181E051
:10064000E81AF108452BA1F0F80180819181FC01A5
:10065000208131816D01FFEFCF1ADF0A6C91C80153
:10066000F9010995892B21F02196A701D601E6CF42
:10067000CE01DF91CF911F910F91FF90EF90DF900E
:10068000CF9008950F931F93CF93DF93082F162FCA
:1006900061E0812F0E94C20164EF71E080E090E090
:1006A0000E94D80260E0812F0E94C20164E670E0DF
:1006B00080E090E00E94D802C0E0D0E0802F90E07F
:1006C000C817D907B4F461E0812F0E94C20164E623
:1006D00070E080E090E00E94D80260E0812F0E94EC
:1006E000C20164E670E080E090E00E94D8022196AA
:1006F000E5CFDF91CF911F910F91089585EC809305
:10070000BC00109201020895882321F085EC8093AB
:10071000BC00089585E88093BC0008959093DA01A9
:100720008093D90108959093DE018093DD010895AF
:10073000AC019091DB01262F30E0290F311D2132D1
:100740003105F4F4809101028430E1F490E00FC0AF
:100750008091DB01292F30E0F901E80FF11DDA016A
:10076000A20FB31F8C91E754FE4F80839F5F9617B3
:1007700078F38091DB01680F6093DB0180E00895DE
:1007800081E0089582E00895880F8093BA0008956B
:10079000ECEBF0E080818A7B808360E082E10E9464
:1007A000C20160E083E10E94C2010895109201023B
:1007B00081E0809303021092020261E082E10E94D4
:1007C000C20161E083E10E94C201E9EBF0E08081B7
:1007D0008E7F808380818D7F808388E48093B800C2
:1007E00085E48093BC000895EF92FF920F931F93CE
:1007F000CF93DF9391E09093B801882371F0C8EB19
:10080000D0E0F8800AEB10E0F801E0800E94C80315
:100810000E94D603F801E082F882DF91CF911F9108
:100820000F91FF90EF9008957093B2016093B10122
:1008300008957093B0016093AF010895E091B10104
:10084000F091B201309729F01092AE011092AD01F3
:1008500009950895CF93DF93EC01E091AF01F091FA
:10086000B0013097E1F09091AC018091AB01981705
:10087000B0F090E0292F30E02617370754F4DE015E
:10088000A90FB11D4C91D901A557BE4F4C939F5F45
:10089000F1CFCB011092AC016093AB010995DF91D0
:1008A000CF9108950895E091AC018091AB01E817D4
:1008B00030F4F0E0E557FE4F808190E008958FEF2F
:1008C0009FEF08959091AC018091AB01981750F47F
:1008D000E92FF0E0E557FE4F208130E09F5F9093D5
:1008E000AC0102C02FEF3FEFC90108958091AB0129
:1008F00090E02091AC01821B91090895CF93DF9382
:10090000CB01C42FD52F642F0E9498038C2F9D2FCD
:10091000DF91CF910895CF93DF9300D000D0CDB772
:10092000DEB769837A838B839C8344E050E0BE0109
:100930006F5F7F4F87E292E00E947E040F900F90DE
:100940000F900F90DF91CF910895CF93DF931F9277
:10095000CDB7DEB7698361E0CE0101960E949803AE
:1009600081E090E00F90DF91CF9108951092AC015B
:100970001092AB011092AE011092AD010E94D6030D
:100980008EE194E00E948E038AE294E00E94930339
:100990000895CF93C62F0E94B6048C2F0E94C403E3
:1009A000CF9108950E94C9040895FC011382128218
:1009B00088EE93E0A0E0B0E084839583A683B783BC
:1009C00083E191E0918380830895019739F46F3F2B
:1009D0007F4F21F487E292E00E94D50408950895A4
:1009E00080E090E008950F931F93CF93DF93CDB7EE
:1009F000DEB727970FB6F894DEBF0FBECDBFFA0162
:100A00007A8369838C010F5F1F4FDC018C918B838C
:100A10008081822B8C838081209528232D838D815A
:100A20008E8388E08F836C817D815B813F812E8105
:100A300089819A81452FD801608347FD262F3A95F9
:100A40002083272F39F0441F00C00000708300006E
:100A500000C0F2CF38E04D9170830000019761F73C
:100A60004B833F832E839A83898327960FB6F8940E
:100A7000DEBF0FBECDBFDF91CF911F910F910895C3
:100A8000603449F0603819F0603261F408C021E048
:100A9000FC012483089523E0FC012483089522E0CF
:100AA000FC0124830895FC0183810E94970121E0C9
:100AB000892B09F020E0822F0895CF92DF92EF92E8
:100AC000FF92CF93DF93EC016A017B01CE010E947C
:100AD0005305811105C0C701B6010E94D802F6CFA7
:100AE000DF91CF91FF90EF90DF90CF900895CF925C
:100AF000DF92EF92FF920F931F93CF93DF93EC015E
:100B000040E050E0BA010E945D05E12CF12CD12CAF
:100B1000CFB6F89421E0222329F141E06A818B814C
:100B20000E94F301D82E41E06A818B810E94F3017B
:100B3000F82E41E06A818B810E94F301E82E00E0EB
:100B400010E08C8120E090E00817190720F761E0A1
:100B50008A810E94C20160E08A810E94C2010F5F07
:100B60001F4FEFCFCFBEDD2014F48FEF01C080E028
:100B700090E0A0E0B0E0782F6627552744278D2D20
:100B800090E0A0E0B0E0DC0199278827842B952B2A
:100B9000A62BB72B4F2D50E060E070E0762F652F2D
:100BA000542F4427842B952BA62BB72BBC01CD01AA
:100BB0006E29DF91CF911F910F91FF90EF90DF9001
:100BC000CF9008951F93CF93DF93EC01842F122FC2
:100BD0004A836B8361E00E942A0262E08B810E945B
:100BE0002A02612FCE010E944005DF91CF911F9113
:100BF00008952BE031E0FC01318320830895FC014E
:100C00008BE091E091838083158216821782108693
:100C100080E090E0A0E8BFE381879287A387B48754
:100C2000089561E070E087E292E00E94D20460E003
:100C300083E10E94C20160E082E10E94C2016BE692
:100C40007AE087E292E00E94190460E376E087E2AE
:100C500092E00E94140461E081E00E944203089542
:100C6000809100018230F1F08B3089F08130A9F55C
:100C700060914101E0912702F09128020190F081FA
:100C8000E02D87E292E0099510924101089560916C
:100C90006A0170916B0180916C0190916D010E94CD
:100CA0008B04089560914201709143018091440149
:100CB000909145010E948B0480914001882311F09E
:100CC00061E001C060E081E00E94C20190914001BA
:100CD00081E08927809340010895E0912702F091F7
:100CE00028020190F081E02D60E087E292E0099512
:100CF0008FEF8093000108954F925F926F927F92E1
:100D00008F929F92AF92BF92EF92FF920F931F9399
:100D1000CF93DF9300D01F92CDB7DEB77C01162FA3
:100D20000E94CA022B013C01F7018281938182302B
:100D3000910509F4D6C034F4009709F470C0019706
:100D400059F09BC38430910509F40AC20CF475C1B3
:100D5000059709F4ADC291C3112309F48EC3F701BD
:100D600046855785FA01A285B38519828FEF8A835C
:100D70001B82808191819C01220F331F280F391F14
:100D80002A0F3B1FA217B30770F480E08330D0F71F
:100D9000E1E0F0E0EC0FFD1FE80FF11D90819C9366
:100DA0008F5F1196F3CFFA01828180688283F70109
:100DB00006851785F801828188230CF05EC37801CF
:100DC000F3E0EF0EF11C0E94A402F70183809480EF
:100DD000A580B680DC01CB0188199909AA09BB0955
:100DE0008C329140A105B10570F3F894F701238589
:100DF00041855285F80163817481F701878190856F
:100E00000E94F30478940E94A402F7016383748320
:100E100085839683F80182818F7782832EC3112385
:100E200009F42BC3F70146855785FA01A285B385DE
:100E300019821A821B82808191819C01220F331FAB
:100E4000280F391F2A0F3B1FA217B30770F480E049
:100E50008330D0F7E1E0F0E0EC0FFD1FE80FF11D6B
:100E600090819C938F5F1196F3CFFA018281806805
:100E70008283F70106851785F801828188230CF0AB
:100E8000FCC27801F3E0EF0EF11C0E94A402F7010E
:100E900083809480A580B680DC01CB0188199909F4
:100EA000AA09BB098C329140A105B10570F3F894F1
:100EB000F701238541855285F80163817481F7012B
:100EC000878190850E94F30478940E94A402F70120
:100ED0006383748385839683F80182818F7782830D
:100EE000CCC211110FC0F70184819581A681B78111
:100EF00088519C4FAF4FBF4F481659066A067B0674
:100F000008F4BBC2F70180859185019749F54685B4
:100F10005785FA01A285B3858FEF898384E68A839A
:100F20001B82808191819C01220F331F280F391F62
:100F30002A0F3B1FA217B30770F480E08330D0F76D
:100F4000E1E0F0E0EC0FFD1FE80FF11D90819C93B4
:100F50008F5F1196F3CFFA0182818068828327C068
:100F6000F70146855785FA01A285B38519821A8251
:100F70001B82808191819C01220F331F280F391F12
:100F80002A0F3B1FA217B30770F480E08330D0F71D
:100F9000E1E0F0E0EC0FFD1FE80FF11D90819C9364
:100FA0008F5F1196F3CFFA01828180688283F70107
:100FB000A684B784F5018281882374F585010D5FCD
:100FC0001F4F0E94A402F80123813481458156817C
:100FD000DC01CB01821B930BA40BB50B8C3291402F
:100FE000A105B10570F3F894F80123854185528578
:100FF000F50163817481F801878190850E94F30473
:1010000078940E94A402F801638374838583968395
:10101000F50182818F77828381E090E0F70120855E
:101020003185232B11F080E090E0F70191878087D4
:10103000448255826682778220C211110FC0F70167
:1010400082859385A485B5858C599F4FAF4FBF4F3F
:1010500084159505A605B70508F00FC2111106C045
:10106000F70180859185019691878087F7018085BA
:101070009185039714F011861086F70142865386F6
:101080006486758620E030E0283131058CF510E06B
:1010900000E040E0F70180859185B901681B790B7C
:1010A000CB0163E070E00E947B0F892B09F40FEF06
:1010B000F701A685B7858D919C911197281739075F
:1010C000A0F41A968D919C911B97F901EE0FFF1FCA
:1010D000E20FF31FE80FF91F00831183428312967A
:1010E0008C911297806812968C932F5F3F4FCCCFD4
:1010F000F70106851785F801828188230CF0BDC1B0
:101100007801F3E0EF0EF11C0E94A402F701838046
:101110009480A580B680DC01CB0188199909AA09C1
:10112000BB098C329140A105B10570F3F894F70129
:10113000238541855285F80163817481F701878198
:1011400090850E94F30478940E94A402F7016383BF
:10115000748385839683F80182818F7782838DC122
:1011600011110EC0F70182859385A485B585C296BD
:10117000A11DB11D84159505A605B70508F07DC113
:10118000111106C0F70180859185019691878087AE
:10119000F70180859185C29714F011861086F701BA
:1011A000428653866486758660857185660F771FD3
:1011B000072E000C880B990B0E945E0E20E030E099
:1011C00048E452E40E94161020E030E040E85FE37B
:1011D0000E94A90F4B015C0120E030E04FE753E48F
:1011E0000E94BD0E9B01AC01C501B4010E94BD0E61
:1011F0000E948F10F70146855785FA01A285B385B5
:1012000069831A821B82808191819C01220F331F86
:10121000280F391F2A0F3B1FA217B30770F480E075
:101220008330D0F7E1E0F0E0EC0FFD1FE80FF11D97
:1012300090819C938F5F1196F3CFFA018281806831
:101240008283F701E684F784F701828188230CF01A
:1012500014C187010D5F1F4F0E94A402F801838013
:101260009480A580B680DC01CB0188199909AA0970
:10127000BB098C329140A105B10570F3F894F801D7
:10128000238541855285F70163817481F801878147
:1012900090850E94F30478940E94A402F80163836D
:1012A000748385839683F70182818F778283E5C07B
:1012B00011110EC0F70182859385A485B585C2966C
:1012C000A11DB11D84159505A605B70508F0D5C06B
:1012D000111106C0F701808591850196918780875D
:1012E000F701808591850C9714F011861086F7011F
:1012F00060857185072E000C880B990B0E945E0E8D
:101300004B015C01F701428653866486758600E0D6
:1013100010E0083111050CF07BC0C8016CE070E0F2
:101320000E947B0FBC01990F880B990B0E945E0EE7
:10133000A50194010E94A90F2B013C0120E030E09F
:10134000A9010E94BE1018162CF4C301B2010E941C
:10135000881005C0C301B20190580E948810663001
:10136000710534F08CE090E09C01261B370BB9012D
:10137000072E000C880B990B0E945E0E20E030E0D7
:1013800040EC50E40E9416109B01AC0160E070E05C
:1013900080E89FE30E94A90F2B013C0120E030E090
:1013A000A9010E94BE1018161CF0412C512C3201CC
:1013B00020E030E04FE753E4C301B2010E94BD0ECC
:1013C0009B01AC01C301B2010E94BD0E0E948F10AF
:1013D000F701A685B7858D919C911197081719077C
:1013E000A0F41A968D919C911B97F801EE0FFF1FA8
:1013F000E00FF11FE80FF91F60831182128212962D
:101400008C911297806812968C930F5F1F4F81CF3B
:10141000F701E684F784F7018281882374F5870158
:101420000D5F1F4F0E94A402F80183809480A58065
:10143000B680DC01CB0188199909AA09BB098C3255
:101440009140A105B10570F3F894F8012385418519
:101450005285F70163817481F801878190850E942C
:10146000F30478940E94A402F80163837483858353
:101470009683F70182818F7782830F900F900F9070
:10148000DF91CF911F910F91FF90EF90BF90AF90A0
:101490009F908F907F906F905F904F900895FC0188
:1014A0001186108670E07383628361E00E947C067F
:1014B00008959C0190910001933061F42130310531
:1014C00049F487E292E00E946204682F8EE691E080
:1014D0000E944F0A0895CF93DF93181619065CF403
:1014E000EC0187E292E00E94620480930001CE0149
:1014F00001970E94590ADF91CF910895FC017183F1
:1015000060831382128208950F931F93CF93DF930A
:10151000EC018B01019769F46F3F7F4F51F48EE727
:1015200091E00E94FF056EE070E08EE691E00E947F
:101530007E0ACD2B39F40F3F1F4F21F48EE791E047
:101540000E94F905DF91CF911F910F9108954F925D
:101550005F926F927F928F929F92AF92BF92CF9243
:10156000DF92EF92FF92CF93DF9300D000D000D0B4
:10157000CDB7DEB79E838D836A017B01FC01648158
:10158000758186819781448C558C668C778CA301FC
:1015900092010E94BD0EA70196010E94AA0F6B0145
:1015A0007C01ED81FE81608571858285938580A0B7
:1015B00091A0A2A0B3A0A50194010E94BD0E9B0121
:1015C000AC01C701B6010E94AA0F6B017C01ED813D
:1015D000FE81608F718F828F938F2485358546853C
:1015E00057850E94BD0E69837A838B839C83ED812E
:1015F000FE812089318942895389C301B2010E9449
:10160000BD0E9B01AC0169817A818B819C810E9416
:10161000AA0F69837A838B839C83ED81FE81248961
:10162000358946895789C501B4010E94BD0E9B01C9
:10163000AC0169817A818B819C810E94AA0FED8126
:10164000FE8140A251A262A273A2C48ED58EE68E04
:10165000F78E26960FB6F894DEBF0FBECDBFDF9192
:10166000CF91FF90EF90DF90CF90BF90AF909F9081
:101670008F907F906F905F904F9008958EE791E0EC
:101680000E9453058823F9F08EE791E00E947705C8
:101690000E945E0EAB01BC0140936A0150936B0146
:1016A00060936C0170936D0186E491E00E94A70A3B
:1016B00060934201709343018093440190934501EC
:1016C00081E08093410160E08EE691E00E947C061B
:1016D00008950E94FC110895CF93DF93EC010E94BE
:1016E000F905CE010E94690BDF91CF9108950E9408
:1016F00064110895DF92EF92FF920F931F93CF939F
:10170000DF937C018FE090E00E94770BEC01D70122
:10171000DC9088E190E0998388831A828E010D5FC6
:101720001F4F88E490E09C838B83F801D28212865D
:101730001186138661E08D2D0E942A028B819C8187
:101740000E946411D80118969C938E9317978D2D43
:1017500090E0FC01E45CFD4FE491F0E0EE0FFF1F30
:10176000E85DFD4F25913491F80132872187FC0116
:10177000E05BFD4FE4911B96EC93F701D787C6879A
:1017800060E0C7010E944F0ADF91CF911F910F9136
:10179000FF90EF90DF9008950E94851285ED809371
:1017A000BC004091B4015091B5016091B6017091B7
:1017B000B701495F5F4F6F4F7F4F689412F876957E
:1017C0006795579547951694D1F71FC08091B4013E
:1017D0009091B501A091B601B091B701892B8A2BE8
:1017E0008B2B99F0411551056105710549F085E391
:1017F0008A95F1F70000415051096109710905C04E
:101800008091B3010E94F40308958091BC0084FD8F
:10181000DDCF1092010208954F925F926F927F92F6
:101820008F929F92AF92BF92CF92DF92EF92FF92F0
:10183000CF93DF93EC01CB01BA012BED3FE049E4FC
:1018400050E40E94BD0E0E94C3109B01AC0160E0F9
:1018500070E080E89FE30E9416104B015C0123EFCB
:1018600034E045EB5FE30E94BD0E2B013C0120E01C
:1018700030E040E85FE30E94AA0F6B017C01A50104
:101880009401C501B4010E94BD0E4B015C019B0196
:10189000AC01C701B6010E94AA0F9B01AC0160E038
:1018A00070E080E89FE30E9416106B017C016C875A
:1018B0007D878E879F879B01AC010E94AA0F688B52
:1018C000798B8A8B9B8BCC8ADD8AEE8AFF8A20E01B
:1018D00030E040E85FE3C501B4010E94A90F9B011D
:1018E000AC010E94AA0F9B01AC01C701B6010E9486
:1018F000BD0E6C837D838E839F83A301920160E084
:1019000070E080E89FE30E94A90F9B01AC01C50134
:10191000B4010E94AA0F9B01AC015058C701B60147
:101920000E94BD0E688779878A879B87DF91CF9158
:10193000FF90EF90DF90CF90BF90AF909F908F90EF
:101940007F906F905F904F90089561E081E00E94DA
:101950002A0220E841E160E18EE791E00E94E20581
:1019600044EC5CE166E67DE386E491E00E940C0CC9
:101970000E9411068EE691E00E947A0B08956FEFA7
:101980007FEF81E090E00E94E5046FEF7FEF81E060
:1019900090E00E94840A08951F920F920FB60F9252
:1019A00011240F931F932F933F934F935F936F9344
:1019B0007F938F939F93AF93BF93009134021091C5
:1019C0003502209136023091370290913302B901ED
:1019D000A8014F5F5F4F6F4F7F4F83E0890F8D37B7
:1019E00040F086E8890FB901A8014E5F5F4F6F4F45
:1019F0007F4F8093330240933402509335026093BB
:101A00003602709337028091380290913902A0918A
:101A10003A02B0913B020196A11DB11D809338029C
:101A200090933902A0933A02B0933B02BF91AF91D9
:101A30009F918F917F916F915F914F913F912F91E6
:101A40001F910F910F900FBE0F901F9018950E943D
:101A500069020E94A50C0E943E0B80E090E0892B59
:101A6000D1F30E940000F7CF1F920F920FB60F9292
:101A700011242F933F934F935F936F937F938F9393
:101A80009F93AF93BF93EF93FF938091B900E82F9B
:101A9000E87F8E2F90E0893C910508F0F5C0FC01AD
:101AA000EC5CFF4F0C948F0F809126028093BB005B
:101AB00081E00E948403E8C0909125028091240275
:101AC000981780F4E091250281E08E0F8093250223
:101AD000F0E0EC5FFD4F80818093BB0081E00E94CD
:101AE0008403D2C080910302882319F00E94CE0B98
:101AF000CBC081E08093020284EA8093BC00109204
:101B00000102C2C080E2809300020E94CE0BBCC0E2
:101B100080E3809300020E94CE0BB6C088E38093DE
:101B200000020E947E03B0C0E091250281E08E0F8A
:101B300080932502F0E08091BB00EC5FFD4F808335
:101B40009091250280912402981720F481E00E9450
:101B500084039AC080E00E94840396C0E09125022D
:101B600081E08E0F80932502F0E08091BB00EC5F56
:101B7000FD4F808380910302882319F00E94CE0BD1
:101B800083C081E08093020284EA8093BC001092BB
:101B900001027AC00E94CE0B77C083E080930102DD
:101BA0001092FF0181E00E9484036EC08091FF01CA
:101BB000803280F4E091FF0181E08E0F8093FF017D
:101BC000F0E08091BB00E152FE4F808381E00E94F3
:101BD00084035AC080E00E94840356C00E947E03A2
:101BE0008091FF01803230F4E091FF01F0E0E1529A
:101BF000FE4F10826091FF0170E0E091DD01F091F5
:101C0000DE018FED91E009951092FF013DC080E06B
:101C10000E94840339C084E0809301021092DC01A9
:101C20001092DB01E091D901F091DA0109958091E0
:101C3000DB01811105C081E08093DB011092B901C5
:101C4000E091DC0181E08E0F8093DC01F0E0E7544D
:101C5000FE4F80818093BB009091DC018091DB017D
:101C6000981720F481E00E9484030EC080E00E9457
:101C700084030AC081E00E9484031092010204C020
:101C8000109200020E94CE0BFF91EF91BF91AF9195
:101C90009F918F917F916F915F914F913F912F9184
:101CA0000F900FBE0F901F9018956FEF7FEF80E0A1
:101CB00090E00E94840A0895E89409C097FB3EF4DE
:101CC00090958095709561957F4F8F4F9F4F992389
:101CD000A9F0F92F96E9BB279395F6958795779507
:101CE0006795B795F111F8CFFAF4BB0F11F460FFC7
:101CF0001BC06F5F7F4F8F4F9F4F16C0882311F01F
:101D000096E911C0772321F09EE8872F762F05C032
:101D1000662371F096E8862F70E060E02AF09A95CD
:101D2000660F771F881FDAF7880F9695879597F9C2
:101D30000895990F0008550FAA0BE0E8FEEF16165C
:101D40001706E807F907C0F012161306E407F507AF
:101D500098F0621B730B840B950B39F40A2661F023
:101D6000232B242B252B21F408950A2609F4A140C6
:101D7000A6958FEF811D811D08950E94D00E0C94B1
:101D8000410F0E94330F38F00E943A0F20F0952344
:101D900011F00C942A0F0C94300F11240C94750F31
:101DA0000E94520F70F3959FC1F3950F50E0551F9D
:101DB000629FF001729FBB27F00DB11D639FAA27A0
:101DC000F00DB11DAA1F649F6627B00DA11D661FEF
:101DD000829F2227B00DA11D621F739FB00DA11D10
:101DE000621F839FA00D611D221F749F3327A00DCA
:101DF000611D231F849F600D211D822F762F6A2F66
:101E000011249F5750409AF0F1F088234AF0EE0FCA
:101E1000FF1FBB1F661F771F881F91505040A9F7F7
:101E20009E3F510580F00C942A0F0C94750F5F3F74
:101E3000E4F3983ED4F3869577956795B795F79533
:101E4000E7959F5FC1F7FE2B880F911D96958795AB
:101E500097F9089597F99F6780E870E060E008952A
:101E60009FEF80EC089500240A94161617061806B2
:101E70000906089500240A9412161306140605068E
:101E80000895092E0394000C11F4882352F0BB0F1F
:101E900040F4BF2B11F460FF04C06F5F7F4F8F4F82
:101EA0009F4F089557FD9058440F551F59F05F3FBD
:101EB00071F04795880F97FB991F61F09F3F79F06C
:101EC00087950895121613061406551FF2CF4695EE
:101ED000F1DF08C0161617061806991FF1CF869570
:101EE0007105610508940895E894BB276627772754
:101EF000CB0197F9089597FB072E16F4009407D0AD
:101F000077FD09D00E94950F07FC05D03EF490950F
:101F100081959F4F0895709561957F4F0895EE0FBD
:101F2000FF1F0590F491E02D0994AA1BBB1B51E102
:101F300007C0AA1FBB1FA617B70710F0A61BB70B39
:101F4000881F991F5A95A9F780959095BC01CD01DE
:101F500008955058BB27AA270E94C10F0C94410F27
:101F60000E94330F38F00E943A0F20F039F49F3F5F
:101F700019F426F40C94300F0EF4E095E7FB0C9462
:101F80002A0FE92F0E94520F58F3BA1762077307FE
:101F90008407950720F079F4A6F50C94740F0EF4DD
:101FA000E0950B2EBA2FA02D0B01B90190010C0169
:101FB000CA01A0011124FF27591B99F0593F50F481
:101FC000503E68F11A16F040A22F232F342F4427D9
:101FD000585FF3CF469537952795A795F0405395D1
:101FE000C9F77EF41F16BA0B620B730B840BBAF0A1
:101FF0009150A1F0FF0FBB1F661F771F881FC2F70C
:102000000EC0BA0F621F731F841F48F4879577951F
:102010006795B795F7959E3F08F0B0CF9395880FD9
:1020200008F09927EE0F9795879508950E942A103A
:102030000C94410F0E943A0F58F00E94330F40F069
:1020400029F45F3F29F00C942A0F51110C94750F5D
:102050000C94300F0E94520F68F39923B1F355236B
:1020600091F3951B550BBB27AA27621773078407AB
:1020700038F09F5F5F4F220F331F441FAA1FA9F341
:1020800035D00E2E3AF0E0E832D091505040E6952F
:10209000001CCAF72BD0FE2F29D0660F771F881F90
:1020A000BB1F261737074807AB07B0E809F0BB0B83
:1020B000802DBF01FF2793585F4F3AF09E3F510597
:1020C00078F00C942A0F0C94750F5F3FE4F3983E60
:1020D000D4F3869577956795B795F7959F5FC9F780
:1020E000880F911D9695879597F90895E1E0660F01
:1020F000771F881FBB1F621773078407BA0720F07A
:10210000621B730B840BBA0BEE1F88F7E0950895E2
:102110000E948F106894B1110C94750F08950E945D
:102120005A0F88F09F5798F0B92F9927B751B0F000
:10213000E1F0660F771F881F991F1AF0BA95C9F74B
:1021400014C0B13091F00E94740FB1E008950C9466
:10215000740F672F782F8827B85F39F0B93FCCF319
:10216000869577956795B395D9F73EF490958095C8
:10217000709561957F4F8F4F9F4F08950E94990EE4
:1021800008F48FEF0895DF93D92F0E94FE10E69593
:10219000D7952AED3FE049E45FE3B33A620773075E
:1021A00084079507D7953AF0A2EA49EC90680E9417
:1021B000C10F0E94410FEAEFF1E00E94E810DD0F2D
:1021C00013F00E942711DD0F0BF49058DF91089552
:1021D0009F938F937F936F93FF93EF939B01AC013A
:1021E0000E94BD0EEF91FF910E943D112F913F91F2
:1021F0004F915F910C94BD0E0C94300F0E945A0FBA
:10220000D8F3E894E0E0BB279F57F0F02AED3FE0D9
:1022100049EC06C0EE0FBB0F661F771F881F28F022
:10222000B23A62077307840728F0B25A620B730B45
:10223000840BE3959A9572F7803830F49A95BB0F2A
:10224000661F771F881FD2F790480C9431119B01AD
:10225000AC0160E070E080E89FE30C9416109F3FB3
:1022600031F0915020F4879577956795B795880F51
:10227000911D9695879597F90895DF93CF931F93B6
:102280000F93FF92EF92DF927B018C01689406C05E
:10229000DA2EEF010E94D00EFE01E894A59125915F
:1022A000359145915591A6F3EF010E94C10FFE01B2
:1022B0009701A801DA9469F7DF90EF90FF900F91F2
:1022C0001F91CF91DF9108950F931F93CF93DF93C9
:1022D0008230910510F482E090E0E0913E02F091AE
:1022E0003F0220E030E0A0E0B0E0309719F14081FB
:1022F00051810281138148175907C8F08417950747
:1023000069F4109731F012960C93129713961C9360
:1023100027C000933E0210933F0222C021153105D1
:1023200019F04217530718F49A01BD01EF01DF01BC
:10233000F801DBCF21153105F9F0281B390B2430CA
:10234000310580F48A819B816115710521F0FB01C3
:102350009383828304C090933F0280933E02FE01E8
:10236000329644C0FE01E20FF31F819391932250F5
:102370003109398328833AC020913C0230913D02D3
:10238000232B41F4209103013091040130933D024D
:1023900020933C0220910101309102012115310569
:1023A00041F42DB73EB74091050150910601241B21
:1023B000350BE0913C02F0913D02E217F307A0F4E7
:1023C0002E1B3F0B2817390778F0AC014E5F5F4F8B
:1023D0002417350748F04E0F5F1F50933D0240937E
:1023E0003C028193919302C0E0E0F0E0CF01DF91E5
:1023F000CF911F910F910895CF93DF93009709F428
:1024000081C0FC01329713821282A0913E02B091EA
:102410003F02109781F420813181820F931F209118
:102420003C0230913D022817390751F5F0933D02E7
:10243000E0933C0267C0ED0120E030E0CE17DF07FB
:1024400040F44A815B819E0141155105F1F0EA019A
:10245000F5CFD383C28340815181840F951FC81764
:10246000D90759F488819981840F951F0296918329
:1024700080838A819B81938382832115310529F48E
:10248000F0933F02E0933E023DC0E901FB83EA8303
:1024900049915991C40FD51FEC17FD0761F4808154
:1024A0009181840F951F0296E90199838883828127
:1024B00093819B838A83E0E0F0E012968D919C915A
:1024C0001397009719F0FD01DC01F7CF8D919C91D6
:1024D00011979D012E5F3F4F820F931F20913C0269
:1024E00030913D022817390769F4309729F410928A
:1024F0003F0210923E0202C013821282B0933D024C
:10250000A0933C02DF91CF91089581E090E0F89490
:102510000C948A1211E0CDE3D1E004C0FE010E94C8
:0E2520008F0F2196CE33D107C9F7F894FFCF65
:10252E00FF00004002200000000000F9056C0B00C7
:10253E00000000A5047E04F00452047604620453E5
:10254E000400000000CC0B1203F004EF04CC0BCC03
:10255E000BCC0B00000000CC0B1203F004EF0400B8
:00000001FF
