:100000000C945D000C9485000C9485000C94850084
:100010000C9485000C9485000C9485000C9485004C
:100020000C9485000C9485000C9485000C9485003C
:100030000C9485000C9485000C9485000C9485002C
:100040000C94B9030C9485000C9429040C940304BB
:100050000C9485000C9485000C9485000C9485000C
:100060000C945B040C948500000000002400270021
:100070002A0000000000250028002B0004040404CE
:100080000404040402020202020203030303030342
:10009000010204081020408001020408102001021F
:1000A00004081020000000080002010000030407FB
:1000B0000000000000000000890511241FBECFEFE2
:1000C000D8E0DEBFCDBF22E0A6E2B1E001C01D92C4
:1000D000A637B207E1F711E0A0E0B1E0E2EDFDE004
:1000E00002C005900D92A632B107D9F710E0CDE518
:1000F000D0E004C02197FE010E94DC06CC35D10778
:10010000C9F70E94C2050C94E7060C94000090E029
:10011000FC01EC55FF4F2491FC01E057FF4F349157
:10012000FC01E458FF4FE491EE2309F43CC0222384
:1001300039F1233091F038F42130A9F0223001F563
:1001400084B58F7D12C0273091F02830A1F0243083
:10015000B9F4809180008F7D03C0809180008F77FB
:10016000809380000DC084B58F7784BD09C08091D5
:10017000B0008F7703C08091B0008F7D8093B00076
:10018000F0E0EE0FFF1FEE58FF4FA591B4919FB71F
:10019000F894611104C08C913095382302C0EC9121
:1001A0003E2B3C939FBF0895CF93DF9390E0FC01DB
:1001B000E057FF4F2491FC01E458FF4F84918823BE
:1001C00061F190E0880F991FFC01E859FF4FC5913C
:1001D000D491FC01EE58FF4FA591B491611109C073
:1001E0009FB7F8948881209582238883EC912E23F1
:1001F0000BC0623061F49FB7F8948881322F30953C
:1002000083238883EC912E2B2C939FBF06C08FB73E
:10021000F894E8812E2B28838FBFDF91CF9108952A
:100220003FB7F8948091C9019091CA01A091CB0188
:10023000B091CC0126B5A89B05C02F3F19F00196BF
:10024000A11DB11D3FBFBA2FA92F982F8827820F5C
:10025000911DA11DB11DBC01CD0142E0660F771FAC
:10026000881F991F4A95D1F708958F929F92AF9258
:10027000BF92CF92DF92EF92FF926B017C010E94BE
:1002800010014B015C01C114D104E104F104F1F04F
:100290000E941001DC01CB0188199909AA09BB0948
:1002A000883E9340A105B10570F321E0C21AD10840
:1002B000E108F10888EE880E83E0981EA11CB11CAD
:1002C000C114D104E104F10419F7DDCFFF90EF90E0
:1002D000DF90CF90BF90AF909F908F900895E09166
:1002E000C001F091C101309729F01092BB0110922A
:1002F000BA0109940895CF93DF93AC01E091BE0158
:10030000F091BF013097F1F09091BD018091BC0157
:100310009817C0F090E0292F30E02617370754F4E3
:10032000D901AA5DBE4FEA01C20FD31F28812C93C9
:100330009F5FF1CF1092BD016093BC01CB01DF91B3
:10034000CF910994DF91CF910895CF92DF92EF92F0
:10035000FF920F931F93CF93DF936C017A018B0170
:10036000C0E0D0E0CE15DF0581F0D8016D918D01A0
:10037000D601ED91FC910190F081E02DC601099527
:10038000892B11F02196EECF7E01C701DF91CF912D
:100390001F910F91FF90EF90DF90CF900895FC0197
:1003A000538D448D252F30E0842F90E0821B930BDA
:1003B000541710F0CF96089501970895FC01918D80
:1003C000828D981761F0828DDF01A80FB11D5D96B7
:1003D0008C91928D9F5F9F73928F90E008958FEF25
:1003E0009FEF0895FC01918D828D981731F0828DD9
:1003F000E80FF11D858D90E008958FEF9FEF089530
:10040000FC01918D228D892F90E0805C9F4F821B93
:1004100091098F73992708958DEC91E00E94000255
:1004200021E0892B09F420E0822F0895FC01848DBE
:10043000DF01A80FB11DA35ABF4F2C91848D90E00E
:1004400001968F739927848FA689B7892C93A089E9
:10045000B1898C91837080648C93938D848D981373
:1004600006C00288F389E02D80818F7D8083089506
:10047000EF92FF920F931F93CF93DF93EC0181E0F4
:10048000888F9B8D8C8D981305C0E889F9898081B0
:1004900085FD26C0F62E0B8D10E00F5F1F4F0F73EA
:1004A0001127E02E8C8DE8120CC00FB607FCFACF96
:1004B000E889F989808185FFF5CFCE010E94160277
:1004C000F1CF8B8DFE01E80FF11DE35AFF4FF08253
:1004D0009FB7F8940B8FEA89FB89808180620AC0FC
:1004E0009FB7F894EE89FF896083E889F989808154
:1004F0008370806480839FBF81E090E0DF91CF9123
:100500001F910F91FF90EF900895CF93DF93EC012F
:10051000888D8823C9F0EA89FB89808185FD05C023
:10052000A889B9898C9186FD0FC00FB607FCF5CF5D
:10053000808185FFF2CFA889B9898C9185FFEDCFA5
:10054000CE010E941602E7CFDF91CF91089580E09F
:1005500090E0892B29F00E940C0281110C9400007C
:10056000089540916C01262F30E0240F311D213277
:100570003105DCF4209190012430C9F4FC0180E0C5
:1005800090E0861758F430916C012191DC01A45B56
:10059000BE4FA30FB11D2C930196F3CF80916C0138
:1005A000680F60936C0180E0089581E0089582E017
:1005B00008951092900181E0809392011092910130
:1005C00061E082E10E94870061E083E10E94870090
:1005D000E9EBF0E080818E7F808380818D7F808356
:1005E00088E48093B80085E48093BC000895089562
:1005F000E091BD018091BC01E81730F4F0E0EA5DC4
:10060000FE4F808190E008958FEF9FEF08959091C5
:10061000BD018091BC01981750F4E92FF0E0EA5D2C
:10062000FE4F208130E09F5F9093BD0102C02FEF0D
:100630003FEFC90108958091BC0190E02091BD0178
:10064000821B91090895CF93DF93CB01EA01642FB8
:100650000E94B102CE01DF91CF910895CF93DF9335
:100660001F92CDB7DEB7698361E0CE0101960E948B
:10067000B10281E090E00F90DF91CF91089508954D
:1006800080E090E008951816190634F48AE692E0A6
:100690000E94070380930001089580910001833038
:1006A00031F46091C2018AE692E00C942E0360E07E
:1006B0008AE692E00E942E038FEF80930001089556
:1006C0000E94E206CF93DF9385ED8093BC0080917A
:1006D000480190914901A0914A01B0914B010796C0
:1006E000A11DB11D23E0B695A795979587952A95ED
:1006F000D1F72091BC0024FF37C0409148015091B0
:10070000490160914A0170914B01452B462B472BC3
:1007100081F30097A105B10541F025E32A95F1F792
:1007200000000197A109B109E4CF8091470191E050
:10073000909346018823D1F0C091B800D091BA00BF
:100740008091BC008A7B8093BC0060E082E10E94C3
:10075000870060E083E10E9487000E94D902D09365
:10076000BA00C093B80002C010929001DF91CF91FF
:1007700008951F920F920FB60F9211242F933F935B
:100780008F939F93AF93BF938091C5019091C601C2
:10079000A091C701B091C8013091C40123E0230F9B
:1007A0002D3720F40196A11DB11D05C026E8230FA9
:1007B0000296A11DB11D2093C4018093C5019093A1
:1007C000C601A093C701B093C8018091C90190915F
:1007D000CA01A091CB01B091CC010196A11DB11D20
:1007E0008093C9019093CA01A093CB01B093CC012F
:1007F000BF91AF919F918F913F912F910F900FBE1D
:100800000F901F9018951F920F920FB60F92112400
:100810002F933F934F935F936F937F938F939F9308
:10082000AF93BF93EF93FF938DEC91E00E9416027C
:10083000FF91EF91BF91AF919F918F917F916F91B8
:100840005F914F913F912F910F900FBE0F901F908E
:1008500018951F920F920FB60F9211242F938F931A
:100860009F93EF93FF93E091DD01F091DE01808192
:10087000E091E301F091E40182FD12C0908180914A
:10088000E6018F5F8F732091E701821751F0E091AD
:10089000E601F0E0E353FE4F958F8093E60101C03F
:1008A0008081FF91EF919F918F912F910F900FBEBB
:1008B0000F901F9018951F920F920FB60F92112450
:1008C0002F933F934F935F936F937F938F939F9358
:1008D000AF93BF93EF93FF938091B900887F8036E9
:1008E00009F49CC068F5883209F45BC090F480314B
:1008F00009F454C038F4882309F4F6C0883009F4A8
:100900004DC0F6C0883109F44CC0803209F45DC096
:10091000EFC0803409F468C048F4803309F455C04E
:10092000883309F0E5C080938F01D8C0803509F481
:100930004FC0883509F45DC0883409F0D9C0D6C0ED
:10094000883909F4C7C0A8F4883709F467C038F4B7
:10095000883609F463C0803709F460C0C9C088389C
:1009600009F4B8C0803909F45FC0803809F0C0C00C
:100970005BC0803B09F486C038F4803A09F466C055
:10098000883A09F47FC0B4C0803C09F4A7C0883C11
:1009900009F4A4C0883B09F48AC0AAC08091B501BB
:1009A00010C09091B4018091B301981770F5E09157
:1009B000B40181E08E0F8093B401F0E0ED56FE4F5C
:1009C00080818093BB0085EC86C080938F018EC0B0
:1009D000E091B40181E08E0F8093B4018091BB005F
:1009E000F0E0ED56FE4F80839091B4018091B30109
:1009F0006EC0E091B40181E08E0F8093B4018091CC
:100A0000BB00F0E0ED56FE4F808380919201811192
:100A10006DC081E08093910184EA61C083E080939E
:100A2000900110928E01CFCF80918E01803208F01C
:100A300051C0E0918E0181E08E0F80938E018091F4
:100A4000BB00F0E0E259FE4F8083BDCF85EC809380
:100A5000BC001092900180918E01803230F4E091C0
:100A60008E01F0E0E259FE4F108260918E0170E03D
:100A7000E091B601F091B7018EE691E009951092F0
:100A80008E0136C084E08093900110926D01109227
:100A90006C01E091B801F091B901099580916C0168
:100AA000811105C081E080936C0110924C01E091AE
:100AB0006D0181E08E0F80936D01F0E0E45BFE4FED
:100AC00080818093BB0090916D0180916C0198179B
:100AD00008F479CF85E88093BC000AC085EC809348
:100AE000BC001092900104C010928F010E9462031A
:100AF000FF91EF91BF91AF919F918F917F916F91F6
:100B00005F914F913F912F910F900FBE0F901F90CB
:100B10001895EDECF1E01382128288EE93E0A0E0EC
:100B2000B0E084839583A683B78325E031E03183E9
:100B3000208325EC30E03587248724EC30E03787AC
:100B4000268720EC30E0318B208B21EC30E0338B9A
:100B5000228B22EC30E0358B248B26EC30E0378B77
:100B6000268B118E128E138E148EEAE6F2E013821B
:100B7000128284839583A683B78387E191E0918372
:100B800080830895789484B5826084BD84B5816043
:100B900084BD85B5826085BD85B5816085BD809148
:100BA0006E00816080936E001092810080918100C0
:100BB00082608093810080918100816080938100B8
:100BC000809180008160809380008091B10084607A
:100BD0008093B1008091B00081608093B0008091DB
:100BE0007A00846080937A0080917A00826080939A
:100BF0007A0080917A00816080937A0080917A00F7
:100C0000806880937A001092C100E091DD01F0913C
:100C1000DE0182E08083E091D901F091DA01108257
:100C2000E091DB01F091DC0180E180831092E5012D
:100C3000E091E101F091E20186E08083E091DF0143
:100C4000F091E001808180618083E091DF01F0918B
:100C5000E001808188608083E091DF01F091E00114
:100C6000808180688083E091DF01F091E0018081E4
:100C70008F7D808360E083E00E94D40061E084E0A7
:100C80000E94D40061E085E00E94D40061E086E02B
:100C90000E94D40060E084E10E94D4001092BD0163
:100CA0001092BC011092BB011092BA010E94D902AD
:100CB0008FE691E09093B9018093B8018BE791E0C2
:100CC0009093B7018093B60188E08093BA0060E00A
:100CD00083E10E94870060E082E10E94870083E454
:100CE00093E09093BF018093BE018DE493E09093D5
:100CF000C1018093C00161E08DE00E94870064EF34
:100D000071E080E090E00E94350160E08DE00E949B
:100D1000870064E670E080E090E00E943501C4E066
:100D2000D0E061E08DE00E94870064E670E080E042
:100D300090E00E94350160E08DE00E94870064E64B
:100D400070E080E090E00E943501219751F760E06B
:100D500084E00E94870060E085E00E94870060E0F8
:100D600086E00E94870061E084E00E94870061E0E5
:100D700086E00E94D40061E086E00E948700C2E025
:100D80008091C301882381F02FB7F8948091C50129
:100D90009091C601A091C701B091C8012FBF8938B9
:100DA0009341A105B10518F40E94A702E9CFC093B1
:100DB000C2011092C301F8CFEE0FFF1F0590F4910E
:100DC000E02D099481E090E0F8940C94E706F89403
:020DD000FFCF53
:100DD200FF000000003802A501CF0185020002DEFB
:100DE20001F201000000002E0323034003F7021B5F
:060DF200030703F80200F4
:00000001FF
