:100000000C9462000C948A000C948A000C948A0070
:100010000C948A000C948A000C948A000C948A0038
:100020000C948A000C948A000C948A000C948A0028
:100030000C948A000C948A000C948A000C948A0018
:100040000C9476030C948A000C948A000C948A0019
:100050000C948A000C948A000C948A000C948A00F8
:100060000C94C0030C948A000000000024002700B8
:100070002A0000000000250028002B0000000000DE
:1000800023002600290004040404040404040202DA
:100090000202020203030303030301020408102007
:1000A0004080010204081020010204081020000012
:1000B0000008000201000003040700000000000027
:1000C0000000880611241FBECFEFD8E0DEBFCDBFF1
:1000D00021E0A8E1B1E001C01D92AB3CB207E1F71D
:1000E00011E0A0E0B1E0EAE6FDE002C005900D926B
:1000F000A831B107D9F710E0C2E6D0E004C02197DB
:10010000FE010E94A806C136D107C9F70E94EE047D
:100110000C94B3060C940000833081F028F48130F5
:1001200099F08230A1F008958730A9F08830B9F0B5
:100130008430D1F4809180008F7D03C08091800055
:100140008F7780938000089584B58F7702C084B53F
:100150008F7D84BD08958091B0008F7703C080911A
:10016000B0008F7D8093B0000895CF93DF93282F48
:1001700030E0F901E255FF4F8491F901E656FF4F57
:10018000D491F901EA57FF4FC491CC2391F081112A
:100190000E948C00EC2FF0E0EE0FFF1FE458FF4FA1
:1001A000A591B491EC91ED2381E090E021F480E001
:1001B00002C080E090E0DF91CF9108951F93CF932C
:1001C000DF93282F30E0F901E255FF4F8491F901C8
:1001D000E656FF4FD491F901EA57FF4FC491CC2363
:1001E000C1F0162F81110E948C00EC2FF0E0EE0F71
:1001F000FF1FEE58FF4FA591B4919FB7F8941111CE
:1002000004C08C91D095D82302C0EC91DE2BDC93F6
:100210009FBFDF91CF911F910895CF93DF9390E01F
:10022000FC01E656FF4F2491FC01EA57FF4F8491F1
:10023000882361F190E0880F991FFC01E859FF4F76
:10024000C591D491FC01EE58FF4FA591B491611175
:1002500009C09FB7F8948881209582238883EC9108
:100260002E230BC0623061F49FB7F8948881322F3F
:10027000309583238883EC912E2B2C939FBF06C04F
:100280008FB7F894E8812E2B28838FBFDF91CF9111
:1002900008953FB7F8948091C7019091C801A0914B
:1002A000C901B091CA0126B5A89B05C02F3F19F01E
:1002B0000196A11DB11D3FBFBA2FA92F982F8827E6
:1002C000820F911DA11DB11DBC01CD0142E0660F41
:1002D000771F881F991F4A95D1F708958F929F9293
:1002E000AF92BF92CF92DF92EF92FF926B017C01AF
:1002F0000E9449014B015C01C114D104E104F104E5
:10030000F1F00E944901DC01CB0188199909AA0981
:10031000BB09883E9340A105B10570F321E0C21AE4
:10032000D108E108F10888EE880E83E0981EA11C30
:10033000B11CC114D104E104F10419F7DDCFFF9021
:10034000EF90DF90CF90BF90AF909F908F900895E7
:10035000E091B301F091B401309729F01092AE0111
:100360001092AD0109940895CF93DF93AC01E09111
:10037000B101F091B2013097F1F09091B00180910C
:10038000AF019817C0F090E0292F30E0261737070B
:1003900054F4D901A75EBE4FEA01C20FD31F2881D2
:1003A0002C939F5FF1CF1092B0016093AF01CB010E
:1003B000DF91CF910994DF91CF910895CF92DF9291
:1003C000EF92FF920F931F93CF93DF936C017A010B
:1003D0008B01C0E0D0E0CE15DF0581F0D8016D9132
:1003E0008D01D601ED91FC910190F081E02DC601C7
:1003F0000995892B11F02196EECF7E01C701DF917F
:10040000CF911F910F91FF90EF90DF90CF900895C3
:1004100040915F01262F30E0240F311D213231053C
:10042000DCF4209183012430C9F4FC0180E090E0E9
:10043000861758F430915F012191DC01A15CBE4F19
:10044000A30FB11D2C930196F3CF80915F01680F2C
:1004500060935F0180E0089581E0089582E008954F
:100460001092830181E0809385011092840161E004
:1004700082E10E94DE0061E083E10E94DE00E9EBA0
:10048000F0E080818E7F808380818D7F808388E40F
:100490008093B80085E48093BC0008950895E091AE
:1004A000B0018091AF01E81730F4F0E0E75EFE4F55
:1004B000808190E008958FEF9FEF08959091B001B3
:1004C0008091AF01981750F4E92FF0E0E75EFE4FFE
:1004D000208130E09F5F9093B00102C02FEF3FEF8B
:1004E000C90108958091AF0190E02091B001821B75
:1004F00091090895CF93DF93CB01EA01642F0E9405
:100500000802CE01DF91CF910895CF93DF931F9220
:10051000CDB7DEB7698361E0CE0101960E94080283
:1005200081E090E00F90DF91CF910895089580E0F1
:1005300090E008951092180121E02093C101643FDA
:1005400021E07207810591056CF0DC01CB0189384F
:1005500023E19207A105B1054CF088E893E1A0E002
:10056000B0E004C084EF91E0A0E0B0E0809301012E
:1005700090930201A0930301B093040161E084E031
:100580000C94DE0061E08EE00E94DE0061E08FE00E
:100590000C94DE00CF93DF93181619064CF5EC018E
:1005A00085EB91E00E945E0280930001813001F5AD
:1005B000CE01019749F48091C101811119C060ED0C
:1005C00077E080E090E010C0019791F485EB91E036
:1005D0000E945E029091C10191110AC0282F30E063
:1005E000A8EEB3E00E949906DF91CF910C949A0295
:1005F000DF91CF91089580910001823039F08330EE
:1006000059F46091180181E0682702C06091C1012E
:1006100085EB91E00C94850260E085EB91E00E940F
:1006200085028FEF80930001089580931801109246
:10063000C10160E084E00C94DE000E94AE06CF931E
:10064000DF9385ED8093BC0080913B0190913C014C
:10065000A0913D01B0913E010796A11DB11D23E07F
:10066000B695A795979587952A95D1F72091BC00C7
:1006700024FF37C040913B0150913C0160913D0106
:1006800070913E01452B462B472B81F30097A10526
:10069000B10541F025E32A95F1F700000197A10982
:1006A000B109E4CF80913A0191E090933901882318
:1006B000D1F0C091B800D091BA008091BC008A7B83
:1006C0008093BC0060E082E10E94DE0060E083E194
:1006D0000E94DE000E943002D093BA00C093B8009E
:1006E00002C010928301DF91CF9108951F920F9263
:1006F0000FB60F9211242F933F938F939F93AF9335
:10070000BF938091C3019091C401A091C501B091A4
:10071000C6013091C20123E0230F2D3720F401964A
:10072000A11DB11D05C026E8230F0296A11DB11D14
:100730002093C2018093C3019093C401A093C5018B
:10074000B093C6018091C7019091C801A091C901E1
:10075000B091CA010196A11DB11D8093C70190936C
:10076000C801A093C901B093CA01BF91AF919F91F5
:100770008F913F912F910F900FBE0F901F90189562
:100780001F920F920FB60F9211242F933F934F9306
:100790005F936F937F938F939F93AF93BF93EF93E9
:1007A000FF938091B900887F803609F49CC068F57A
:1007B000883209F45BC090F4803109F454C038F4F5
:1007C000882309F4F6C0883009F44DC0F6C088319A
:1007D00009F44CC0803209F45DC0EFC0803409F4E4
:1007E00068C048F4803309F455C0883309F0E5C087
:1007F00080938201D8C0803509F44FC0883509F450
:100800005DC0883409F0D9C0D6C0883909F4C7C0A2
:10081000A8F4883709F467C038F4883609F463C04F
:10082000803709F460C0C9C0883809F4B8C080397D
:1008300009F45FC0803809F0C0C05BC0803B09F498
:1008400086C038F4803A09F466C0883A09F47FC05B
:10085000B4C0803C09F4A7C0883C09F4A4C0883B1C
:1008600009F48AC0AAC08091A80110C09091A70184
:100870008091A601981770F5E091A70181E08E0F95
:100880008093A701F0E0EA57FE4F80818093BB0080
:1008900085EC86C0809382018EC0E091A70181E043
:1008A0008E0F8093A7018091BB00F0E0EA57FE4FC6
:1008B00080839091A7018091A6016EC0E091A7016D
:1008C00081E08E0F8093A7018091BB00F0E0EA5792
:1008D000FE4F80838091850181116DC081E08093FE
:1008E000840184EA61C083E08093830110928101D6
:1008F000CFCF80918101803208F051C0E091810119
:1009000081E08E0F809381018091BB00F0E0EF5970
:10091000FE4F8083BDCF85EC8093BC001092830195
:1009200080918101803230F4E0918101F0E0EF5953
:10093000FE4F10826091810170E0E091A901F09179
:10094000AA0181E691E009951092810136C084E008
:10095000809383011092600110925F01E091AB01DE
:10096000F091AC01099580915F01811105C081E092
:1009700080935F0110923F01E091600181E08E0F52
:1009800080936001F0E0E15CFE4F80818093BB00CA
:100990009091600180915F01981708F479CF85E804
:1009A0008093BC000AC085EC8093BC001092830148
:1009B00004C0109282010E941F03FF91EF91BF912A
:1009C000AF919F918F917F916F915F914F913F91E7
:1009D0002F910F900FBE0F901F901895789484B5AB
:1009E000826084BD84B5816084BD85B5826085BD2B
:1009F00085B5816085BD80916E00816080936E00B9
:100A000010928100809181008260809381008091AA
:100A1000810081608093810080918000816080935B
:100A200080008091B10084608093B1008091B0001B
:100A300081608093B00080917A00846080937A0016
:100A400080917A00826080937A0080917A00816040
:100A500080937A0080917A00806880937A00109267
:100A6000C10061E084E00E940D0161E085E10E9427
:100A70000D0161E08EE00E940D0161E08FE00E94B7
:100A80000D0160E082E00E940D0160E083E00E94C1
:100A90000D0161E081E00E940D0161E080E00E94B3
:100AA0000D0162E08AE00E940D0161E08EE00E948B
:100AB000DE0061E08FE00E94DE0061E085E10E94DF
:100AC000DE0060E081E00E94DE001092B001109232
:100AD000AF011092AE011092AD010E94300288EA7F
:100AE00091E09093AC018093AB0184EB91E0909303
:100AF000AA018093A90184E08093BA0060E083E1B9
:100B00000E94DE0060E082E10E94DE008AEC92E05A
:100B10009093B2018093B1018BEF92E09093B40176
:100B20008093B30161E084E00E94DE0064EF71E035
:100B300080E090E00E946E0160E084E00E94DE00B0
:100B400064E670E080E090E00E946E01C2E0D0E0D8
:100B500061E084E00E94DE0064E670E080E090E006
:100B60000E946E0160E084E00E94DE0064E670E0B6
:100B700080E090E00E946E01219751F7C0E0D0E044
:100B80008091C10181110BC08AE00E94B5000197DC
:100B900051F160ED77E080E090E00E949A0260E021
:100BA0008EE00E94DE0061E08FE00E94DE008FB7E1
:100BB000F894C090C301D090C401E090C501F090BA
:100BC000C6018FBF88EBC80E8BE0D81EE11CF11C5C
:100BD00083E00E94B500892B11F583E00E94B500E7
:100BE000892BE9F435C082E00E94B500892B29F4F5
:100BF00082E00E94B500892B79F061E08EE00E94CE
:100C0000DE0060E08FE00E94DE0061E070E080E0E6
:100C100090E00E946E01B4CF0E94C202F6CF2FB7BF
:100C2000F8948091C3019091C401A091C501B09145
:100C3000C6012FBFC816D906EA06FB0610F481E0EC
:100C40005FC061E070E080E090E00E946E01C0CF84
:100C50000E94C20261E080E00E94DE0061E081E06B
:100C60000E94DE00609101017091020180910301F8
:100C7000909104010E946E0161E080E00E94DE001C
:100C800060E081E00E94DE0061E08EE00E94DE0014
:100C900060E08FE00E94DE008FB7F894C090C3013F
:100CA000D090C401E090C501F090C6018FBF88EBE1
:100CB000C80E8BE0D81EE11CF11C82E00E94B5003A
:100CC000892B29F482E00E94B500892BC1F02FB74F
:100CD000F8948091C3019091C401A091C501B09195
:100CE000C6012FBFC816D906EA06FB0608F4A7CF2F
:100CF00061E070E080E090E00E946E01DECF80E075
:100D00000E941503209709F43BCF0E94000038CFC2
:100D1000E5EBF1E01382128288EE93E0A0E0B0E010
:100D200084839583A683B78389E091E09183808350
:100D30000895A29FB001B39FC001A39F700D811DB4
:100D40001124911DB29F700D811D1124911D0895D4
:100D5000EE0FFF1F0590F491E02D099481E090E0E3
:0A0D6000F8940C94B306F894FFCF4A
:100D6A00FFE80300000000000085027A0297024EA5
:080D7A000272025E024F02004A
:00000001FF
