:100000000C9462000C948A000C948A000C948A0070
:100010000C948A000C948A000C948A000C948A0038
:100020000C948A000C948A000C948A000C948A0028
:100030000C948A000C948A000C948A000C948A0018
:100040000C9445030C948A000C948A000C948A004A
:100050000C948A000C948A000C948A000C948A00F8
:100060000C948F030C948A000000000024002700E9
:100070002A0000000000250028002B0000000000DE
:1000800023002600290004040404040404040202DA
:100090000202020203030303030301020408102007
:1000A0004080010204081020010204081020000012
:1000B0000008000201000003040700000000000027
:1000C00000005A0611241FBECFEFD8E0DEBFCDBF1F
:1000D00021E0A8E1B1E001C01D92AB3CB207E1F71D
:1000E00011E0A0E0B1E0E4E0FDE002C005900D9277
:1000F000A831B107D9F710E0C2E6D0E004C02197DB
:10010000FE010E947A06C136D107C9F70E94AE04EB
:100110000C9480060C940000833081F028F4813028
:1001200099F08230A9F008958730A9F08830C9F09D
:100130008430B1F4809180008F7D03C08091800075
:100140008F7780938000089584B58F7784BD08955C
:1001500084B58F7DFBCF8091B0008F778093B00006
:1001600008958091B0008F7DF9CFCF93DF93282F32
:1001700030E0F901E255FF4F8491F901E656FF4F57
:10018000D491F901EA57FF4FC491CC23A1F081111A
:100190000E948C00EC2FF0E0EE0FFF1FE458FF4FA1
:1001A000A591B491EC91ED2381E090E009F480E019
:1001B000DF91CF91089580E090E0FACF1F93CF9325
:1001C000DF93282F30E0F901E255FF4F8491F901C8
:1001D000E656FF4FD491F901EA57FF4FC491CC2363
:1001E000A9F0162F81110E948C00EC2FF0E0EE0F89
:1001F000FF1FEE58FF4FA591B4918FB7F894EC9183
:10020000111108C0D095DE23DC938FBFDF91CF9111
:100210001F910895DE2BF8CFCF93DF9390E0FC0180
:10022000E656FF4F24918A579F4FFC018491882303
:10023000C9F090E0880F991FFC01E859FF4FA59184
:10024000B491FC01EE58FF4FC591D49161110DC0DE
:100250009FB7F8948C91209582238C9388812823D2
:1002600028839FBFDF91CF910895623051F49FB7EB
:10027000F8943C91822F809583238C93E8812E2BD8
:10028000EFCF8FB7F894EC912E2B2C938FBFEACF42
:100290003FB7F8948091BB019091BC01A091BD0142
:1002A000B091BE0126B5A89B05C02F3F19F001965D
:1002B000A11DB11D3FBFBA2FA92F982F8827BC01C0
:1002C000CD01620F711D811D911D42E0660F771FE8
:1002D000881F991F4A95D1F708958F929F92AF92E8
:1002E000BF92CF92DF92EF92FF926B017C010E944E
:1002F00048014B015C01C114D104E104F104B9F0DF
:100300000E944801681979098A099B09683E73406F
:100310008105910580F321E0C21AD108E108F108B6
:1003200088EE880E83E0981EA11CB11CE4CFFF90DC
:10033000EF90DF90CF90BF90AF909F908F900895F7
:10034000E091B301F091B401309729F01092AE0121
:100350001092AD0109940895CF93DF93AC01E09121
:10036000B101F091B2013097F1F09091B00180911C
:10037000AF019817C0F090E0292F30E0261737071B
:1003800054F4D901A75EBE4F240F351FE90128811F
:100390002C939F5FF1CF1092B0016093AF01CB011E
:1003A000DF91CF910994DF91CF91089520915F0162
:1003B000260F3327331F21323105ECF420918301BE
:1003C000FC0190E080E0243069F082E00895A09183
:1003D0005F012191AC01415C5E4FA40FB52FB11DAF
:1003E0002C930196861798F380915F01680F6093B4
:1003F0005F0180E0089581E008951092830181E01B
:10040000809385011092840161E082E10E94DE0008
:1004100061E083E10E94DE00E9EBF0E080818E7F05
:10042000808380818D7F808388E48093B80085E419
:100430008093BC0008950895E091B0018091AF01D0
:10044000E81730F4F0E0E75EFE4F808190E0089519
:100450008FEF9FEF08959091B0018091AF012FEF42
:100460003FEF981748F4E92FF0E0E75EFE4F208158
:1004700030E09F5F9093B001C90108958091AF0172
:100480009091B001891B990B0895CF93DF93CB0115
:10049000EA01642F0E94D601CE01DF91CF91089529
:1004A000CF93DF931F92CDB7DEB7698361E0CE01B2
:1004B00001960E94D60181E090E00F90DF91CF91EC
:1004C0000895682F8FEB91E00C94500290E080E04B
:1004D00008951092180141E04093B501462F572F1F
:1004E000BC01493883E158076105710524F048E8EB
:1004F00053E160E070E0443F81E058076105710519
:1005000024F444EF51E060E070E040930101509327
:100510000201609303017093040161E084E00C9494
:10052000DE0061E08EE00E94DE0061E08FE00C946E
:10053000DE00CF93DF931816190644F5EC018FEB1C
:1005400091E00E942B02809300018130F9F4219701
:1005500061F48091B501811119C060ED77E080E010
:1005600090E0DF91CF910C946902219779F48FEBA1
:1005700091E00E942B029091B501911107C0282FA4
:1005800030E0A8EEB3E00E946B06EBCFDF91CF9195
:10059000089580910001833061F08E3F31F0823008
:1005A00069F48091B50190E002C082E090E00C9483
:1005B00061028091180191E08927F5CF90E080E0F9
:1005C0000E9461028FEF80930001089580931801CB
:1005D0001092B50160E084E00C94DE00CF93DF93CD
:1005E00085ED8093BC0080913B0190913C01A091EE
:1005F0003D01B0913E010796A11DB11D23E0B695C6
:10060000A795979587952A95D1F72091BC0024FD51
:1006100003C01092830136C040913B0150913C01D0
:1006200060913D0170913E01452B462B472B69F3AC
:100630000097A105B10541F025E32A95F1F70000E7
:100640000197A109B109E1CF80913A0191E090931E
:1006500039018823B9F0C091B800D091BA008091D7
:10066000BC008A7B8093BC0060E082E10E94DE00D7
:1006700060E083E10E94DE000E94FD01D093BA0099
:10068000C093B800DF91CF9108951F920F920FB6DB
:100690000F9211242F933F938F939F93AF93BF9308
:1006A0008091B7019091B801A091B901B091BA01C0
:1006B0003091B60123E0230F2D3758F50196A11D87
:1006C000B11D2093B6018093B7019093B801A09318
:1006D000B901B093BA018091BB019091BC01A09186
:1006E000BD01B091BE010196A11DB11D8093BB015A
:1006F0009093BC01A093BD01B093BE01BF91AF9197
:100700009F918F913F912F910F900FBE0F901F904F
:10071000189526E8230F0296A11DB11DD2CF1F9276
:100720000F920FB60F9211242F933F934F935F9325
:100730006F937F938F939F93AF93BF93EF93FF93A9
:100740008091B900887F803609F44AC0F0F588327C
:1007500009F4A7C018F5803109F49BC0B8F48823C8
:1007600009F4F9C0883009F494C0FF91EF91BF916A
:10077000AF919F918F917F916F915F914F913F9139
:100780002F910F900FBE0F901F901895883109F48C
:1007900088C0803251F78093820114C0803409F4FC
:1007A0009DC040F48033B9F38833F9F68093820119
:1007B00085ECB0C0803509F485C0883509F496C051
:1007C000883499F60E94EE02D0CF883909F48CC0A3
:1007D00038F5883729F050F4883611F0803729F63B
:1007E00083E0809383011092810157C0883809F417
:1007F0007BC0803919F0803809F0B7CF8091810132
:10080000803208F071C0E091810181E08E0F809309
:1008100081018091BB00F0E0EF59FE4F80833DC025
:10082000803B39F0E0F4803A09F479C0883A09F065
:100830009CCF84E0809383011092600110925F014D
:10084000E091AB01F091AC01099580915F018111BC
:100850000FC081E080935F0110923F0109C0803C8E
:1008600009F4A6CF883C09F4A3CF883B09F07DCFDB
:10087000E091600181E08E0F80936001F0E0E15C27
:10088000FE4F80818093BB009091600180915F0159
:1008900029C08091A8018093BB0085EC8093BC00A7
:1008A00064CF9091A7018091A601981758F5E09127
:1008B000A70181E08E0F8093A701F0E0EA57FE4F79
:1008C0008081E9CFE091A70181E08E0F8093A7019D
:1008D0008091BB00F0E0EA57FE4F80839091A70122
:1008E0008091A6019817C8F285E8D8CFE091A701BA
:1008F00081E08E0F8093A7018091BB00F0E0EA5762
:10090000FE4F80838091850181115CCF81E08093CF
:10091000840184EA8093BC001092830126CF85EC89
:100920008093BC001092830180918101803230F469
:10093000E0918101F0E0EF59FE4F1082609181015A
:1009400070E0E091A901F091AA0181E691E009959A
:10095000109281010ACF1092820134CF789484B52D
:10096000826084BD84B5816084BD85B5826085BDAB
:1009700085B5816085BD80916E00816080936E0039
:10098000109281008091810082608093810080912B
:1009900081008160809381008091800081608093DC
:1009A00080008091B10084608093B1008091B0009C
:1009B00081608093B00080917A00846080937A0097
:1009C00080917A00826080937A0080917A008160C1
:1009D00080937A0080917A00806880937A001092E8
:1009E000C10061E084E00E940C0161E085E10E94A9
:1009F0000C0161E08EE00E940C0161E08FE00E943A
:100A00000C0160E082E00E940C0160E083E00E9443
:100A10000C0161E081E00E940C0161E080E00E9435
:100A20000C0162E08AE00E940C0161E08EE00E940D
:100A3000DE0061E08FE00E94DE0061E085E10E945F
:100A4000DE0060E081E00E94DE001092B0011092B2
:100A5000AF011092AE011092AD010E94FD0180EA3B
:100A600091E09093AC018093AB018CEA91E090937C
:100A7000AA018093A90184E08093BA0060E083E139
:100A80000E94DE0060E082E10E94DE0089E992E0DF
:100A90009093B2018093B10189EC92E09093B401FC
:100AA0008093B30161E084E00E94DE0064EF71E0B6
:100AB00080E090E00E946D0160E084E00E94DE0032
:100AC00064E670E080E090E00E946D0161E084E007
:100AD0000E94DE0064E670E080E090E00E946D011C
:100AE00060E084E00E94DE0064E670E080E090E078
:100AF0000E946D0161E084E00E94DE0064E670E027
:100B000080E090E00E946D0160E084E00E94DE00E1
:100B100064E670E080E090E00E946D01C0E0D0E00B
:100B20008091B50181115EC08AE00E94B5000197F5
:100B300009F052C082E00E94B500892B71F482E076
:100B40000E94B500892B49F40E94910261E070E097
:100B500080E090E00E946D01E3CF61E08EE00E94B2
:100B6000DE0060E08FE00E94DE00F0CF2FB7F89447
:100B70008091B7019091B801A091B901B091BA01EB
:100B80002FBFC816D906EA06FB0640F481E00E9492
:100B9000E602209729F20E940000C2CF61E070E0D7
:100BA00080E090E00E946D0136C02FB7F8948091EC
:100BB000B7019091B801A091B901B091BA012FBFCE
:100BC000C816D906EA06FB0608F361E070E080E08B
:100BD00090E00E946D0160C060ED77E080E090E001
:100BE0000E94690260E08EE00E94DE0061E08FE01A
:100BF0000E94DE008FB7F894C090B701D090B80182
:100C0000E090B901F090BA018FBF88EBC80E8BE07D
:100C1000D81EE11CF11C83E00E94B500892B09F06D
:100C2000A5CF83E00E94B500892B09F09FCF0E94D9
:100C3000910261E080E00E94DE0061E081E00E94BC
:100C4000DE00609101017091020180910301909199
:100C500004010E946D0161E080E00E94DE0060E01E
:100C600081E00E94DE0061E08EE00E94DE0060E034
:100C70008FE00E94DE008FB7F894C090B701D0904B
:100C8000B801E090B901F090BA018FBF88EBC80EAF
:100C90008BE0D81EE11CF11C82E00E94B500892B7C
:100CA00009F083CF82E00E94B500892B09F07DCF47
:100CB00080E06DCFEFEBF1E01382128288EE93E0DB
:100CC000A0E0B0E084839583A683B78389E091E0B8
:100CD000918380830895A29FB001B39FC001A39F19
:100CE000700D811D1124911DB29F700D811D112465
:100CF000911D0895EE0FFF1F0590F491E02D0994CA
:040D0000F894FFCF95
:100D0400FFE8030000000000005002450266021BD9
:080D1400023E022B021C02004A
:00000001FF
